:020000040800F2
:10000000A0180020D10100086B2E00082527000849
:10001000692E0008950A0008E53400080000000079
:10002000000000000000000000000000992E000801
:10003000DB0A000800000000972E0008152F0008BA
:10004000EB010008EB010008EB010008EB010008E0
:10005000EB010008EB010008DD0A0008E30A0008D4
:10006000EB010008E90A0008EF0A0008990A0008F5
:10007000EB010008EB010008EB010008EB010008B0
:10008000A50A0008EB010008EB010008EB010008DD
:10009000EB010008EB010008EB010008EB01000890
:1000A000EB010008EB010008EB010008EB01000880
:1000B000EB010008EB010008EB010008EB01000870
:1000C000EB010008EB010008EB010008EB01000860
:1000D000EB010008EB010008EB010008EB01000850
:1000E000EB010008EB010008EB01000800F002F84A
:1000F00000F05EF80AA090E8000C82448344AAF164
:100100000107DA4501D100F053F8AFF2090EBAE861
:100110000F0013F0010F18BFFB1A43F0010318473B
:10012000986B0000B86B000010F8013B0A4413F014
:10013000030408BF10F8014B1D1108BF10F8015B44
:10014000641E05D010F8016B641E01F8016BF9D133
:10015000002D15D010F8014B03F00C030C2BA1EB74
:1001600004040ABF10F8013BA4EB8314A4EB03249E
:1001700005F1010314F8016B5B1E01F8016BF9D561
:10018000914238BF10F8013BD1D3704700230024BF
:1001900000250026103A28BF78C1FBD8520728BF97
:1001A00030C148BF0B6070471FB51FBD10B510BDF3
:1001B00000F0F3F81146FFF7F7FF05F08FFC00F0B1
:1001C00011F903B4FFF7F2FF03BC00F019F90000C6
:1001D0000948804709480047FEE7FEE7FEE7FEE7DB
:1001E000FEE7FEE7FEE7FEE7FEE7FEE70448054917
:1001F000054A064B70470000912F0008ED000008EB
:10020000A0120020A0180020A0140020A01400209C
:1002100040EA0103024630B59B0710D14FF001348C
:1002200000E008C208C91D1B9D4315EAC41FF8D091
:1002300013F0FF0102F8011B0DD01B0AF8E711F8BB
:10024000013B002B02F8013B05D011F8013B002BCC
:1002500002F8013BF3D130BD032A40F2308010F0A8
:10026000030C00F0158011F8013BBCF1020F624451
:1002700098BF11F801CB00F8013B38BF11F8013BE2
:10028000A2F1040298BF00F801CB38BF00F8013B8F
:1002900011F0030300F02580083AC0F0088051F8FF
:1002A000043B083A51F804CBA0E80810F5E7121D0A
:1002B0005CBF51F8043B40F8043BAFF30080D20729
:1002C00024BF11F8013B11F801CB48BF11F8012BF5
:1002D00024BF00F8013B00F801CB48BF00F8012B18
:1002E000704710B5203AC0F00B80B1E81850203AA2
:1002F000A0E81850B1E81850A0E81850BFF4F5AFC6
:100300005FEA027C24BFB1E81850A0E8185044BF4F
:1003100018C918C0BDE810405FEA827C24BF51F8BC
:10032000043B40F8043B08BF7047D20728BF31F8B0
:10033000023B48BF11F8012B28BF20F8023B48BF01
:1003400000F8012B70474FF0000200B513469446A9
:100350009646203922BFA0E80C50A0E80C50B1F11D
:100360002001BFF4F7AF090728BFA0E80C5048BF31
:100370000CC05DF804EB890028BF40F8042B08BFCF
:10038000704748BF20F8022B11F0804F18BF00F8CB
:10039000012B7047704770477047754600F02CF886
:1003A000AE4605006946534620F00700854618B062
:1003B00020B5FFF71BFFBDE820404FF000064FF0CF
:1003C00000074FF000084FF0000B21F00701AC468A
:1003D000ACE8C009ACE8C009ACE8C009ACE8C009A9
:1003E0008D46704710B50446AFF300802046BDE847
:1003F0001040FFF7E6BE0000004870473C120020A6
:1004000001491820ABBEFEE726000200704700003D
:1004100070B5044600688168C943C90717D181686F
:1004200021F00101816000F023FF05460AE000BFD2
:1004300000F01EFF401B022804D920688068C043DA
:10044000C00706D020688068C043C007F0D00020F5
:1004500070BDA06A40F01000A062E06A40F00100A8
:10046000E062012070BD000070B5164C4FF47A7543
:10047000207928B100F0FCFEE168401AA842F7D3C9
:10048000607928B100F0F4FEE168401AA842F7D381
:10049000A07928B100F0ECFEE168401AA842F7D339
:1004A000E07928B100F0E4FEE168401AA842F7D3F1
:1004B00000206071A0712071E071BDE8704000F013
:1004C000BFBA00004000002070B5294D044655F821
:1004D000240003F088FE55F8240003F069F855F86D
:1004E000240003F0B1FD234A55F82400511E03F007
:1004F00025FB204A55F82400921E02F1140103F056
:1005000020FB55F82400012103F0C2FB55F824001C
:100510000122002103F06AFC012255F82400114653
:1005200003F064FC55F824004FF48042012103F0ED
:100530009EFC55F824004FF40012002103F097FCB4
:1005400055F8240044F6206103F0B9FC55F8240066
:100550001222002103F00CFD55F824000E22012187
:1005600003F006FD55F82400BDE8704003F002BD1D
:10057000800F00200200002070B54B4E06F6B43408
:100580003146206803F0D8F9308940F2C575A0F1F2
:100590000B01A94209D206F0ADF90146A4F65C4070
:1005A00002F082FC06F086F930813F4E60681C360E
:1005B000314603F0C1F93089A0F10B01A94209D2FB
:1005C00006F098F90146A6F1AC0002F06DFC06F0C9
:1005D00071F93081344EA0683836314603F0ACF9F9
:1005E0003089A0F10B01A94209D206F083F9014636
:1005F000A6F1B00002F058FC06F05CF930812A4EFA
:10060000E0685436314603F097F93089A0F10B01C8
:10061000A94209D206F06EF90146A6F1B40002F033
:1006200043FC06F047F930811F4E20697036314691
:1006300003F082F93089A0F10B01A94209D206F03A
:1006400059F90146A6F1B80002F02EFC06F032F985
:100650003081154E60698C36314603F06DF9308972
:10066000A0F10B01A94209D206F044F90146A6F116
:10067000BC0002F019FC06F01DF930810A4EA06999
:10068000A836314603F058F93089A0F10B01A94290
:1006900009D206F02FF90146A6F1C00002F004FCD1
:1006A00006F008F9308170BDCC0300200349C0EB8F
:1006B000C00001EB8000008970470000CC030020DF
:1006C0002DE9F05F4FF400594FF0460800224946EB
:1006D000794800F0C7FD4FF4804A00225146764821
:1006E00000F0C0FD00224FF40041734800F0BAFD55
:1006F0004FF4007B002259466F4800F0B3FD002202
:1007000059466E4800F0AEFD00224FF480616B4800
:1007100000F0A8FD00224FF40061684800F0A2FD3F
:10072000404600F06FFC01225946644800F09AFDF3
:10073000404600F067FC6248624E00F59664624DE8
:1007400020615227C0F85C6180F86071297903F05C
:100750009BFA2169287981F860010420FFF7B4FE33
:1007600001225146544800F07DFD404600F04AFC0D
:10077000A4F516606060C0F85C6180F8607169780B
:1007800003F082FA6168687881F860010120FFF760
:100790009BFE01225946484800F064FD404600F0A7
:1007A00031FCA4F5C860E060C0F85C6180F860715D
:1007B000E97803F069FAE168E87881F860010320DC
:1007C000FFF782FE012249463B4800F04BFD4046C0
:1007D00000F018FCA4F52F602060C0F85C6180F880
:1007E0006071297803F050FA2168287881F8600157
:1007F0000020FFF769FE0122D1032F4800F032FDEF
:10080000404600F0FFFBA4F5FA60A060C0F85C6110
:1008100080F86071A97803F037FAA168A87881F8A8
:1008200060010220FFF750FE0122D102234800F0B0
:1008300019FD404600F0E6FBA4F5C870A061C0F8C1
:100840005C6180F86071A97903F01EFAA169A8794A
:1008500081F860010620FFF737FE01229102174858
:1008600000F000FD404600F0CDFBA4F5487060614B
:10087000C0F85C6180F86071697903F005FA61691C
:10088000687981F860010520FFF71EFE0F4D104EBC
:10089000104FDFF84480002404EB440005EBC00057
:1008A00033463A46414602F0F8FA641CE4B2072C9B
:1008B000F2D3BDE8F09F0000000C014000080140A9
:1008C000D00A00200010002018000020240300207F
:1008D0006F12833A0AD7233C295C8F3D03490A698A
:1008E0004B698869C96905F0D7BD00002000002068
:1008F00070B5174801F049FD4FF47A752B46032275
:100900001449134801F0C1FE124C0021641E2161FC
:100910006161A160E160A161E161052000F072FB0D
:100920002B460322611C0A4801F0AFFE0021216121
:100930006161A160E160A161E161052000F062FBFD
:10094000BDE8704021220449014801F02FBE00009B
:100950002C11002021000020AC0F002010B5FFF763
:10096000C7FFBDE8104021220149024801F01EBE28
:10097000AC0F00202C11002010B5044600210948BE
:1009800001F0B4FC0821074801F0B0FC2246002128
:10099000044802F06BFA2246BDE8104008210148E5
:1009A00002F064BA9C10002010B5044604210948E6
:1009B00001F09CFC0C21074801F098FC2246042120
:1009C000044802F053FA2246BDE810400C210148C9
:1009D00002F04CBA9C10002070B50D4604460C2164
:1009E000094801F083FC0021074801F07FFC323CFC
:1009F000E2B20C21044802F039FA2A46BDE8704000
:100A00000021014802F032BA9C10002070B50C465B
:100A100005460821094801F069FC0421074801F056
:100A200065FC2A460821054802F020FA323CE2B271
:100A3000BDE870400421014802F018BA9C10002063
:100A400010B50021124801F051FC0821104801F0B6
:100A50004DFC04210E4801F049FC0C210C4801F02A
:100A600045FC002211460A4802F000FA0022082143
:100A7000074802F0FBF900220421054802F0F6F9CC
:100A80000022BDE810400C21014802F0EFB900003F
:100A90009C100020FEE70000014800F0A3B9000010
:100AA00074110020014800F09DB90000B811002029
:100AB00030B590F840500124AC40C56B6C600468C0
:100AC00063604368102B036803D099600068C260BC
:100AD00030BD9A600068C16030BD7047012000F0F1
:100AE000BDBA022000F0BABA082000F0B7BA102050
:100AF00000F0B4BA72B6FEE7F8B50024009490F89E
:100B000024202546012A12D0012280F824204A6898
:100B10001F23072A0DD20668776B521E02EB820252
:100B200093409F430B6893401F43776319E0022073
:100B3000F8BD06680D2A0AD2376BD21F02EB82027B
:100B400093409F430B6893401F43376309E0F76A64
:100B50000D3A02EB820293409F430B6893401F4380
:100B6000F7620A68072306680A2A0AD3F7680A3A6E
:100B700002EB420293409F438B6893401F43F76010
:100B800008E0376902EB420293409F438B68934031
:100B90001F4337610A68102A01D0112A20D1124B55
:100BA00002689A4217D193681B0219D4936843F4E0
:100BB000000393600968102912D10C490C4A096896
:100BC000B1FBF2F101EB8101490000E0491E009107
:100BD0000029FBD104E0816A41F0200181620124F7
:100BE00080F824502046F8BD002401406400002015
:100BF00040420F002DE9F0414FF0000704003D4650
:100C00007ED0A06A002628B9E66284F824602046D7
:100C100000F07EF82046FFF7FBFBA16AC90600D46E
:100C200020B1A06A40F01000A06269E0A16A21F43E
:100C3000885141F00201A1626268E169237B0A43A5
:100C400047EA43010A43A1684FF48077B94209D0CB
:100C5000012907D05FF0000194F814C0BCF1010F26
:100C600002D00AE03946F7E7F3B1A36A43F0200364
:100C7000A362E36A43F00103E3622368D3F804C08C
:100C80002CF4694C4CEA010CC3F804C021688B6851
:100C9000DFF870C003EA0C0313438B60A168B9420C
:100CA0000BD0012909D00CE0DFF85CC0A3690CEB84
:100CB00043330B4343F40061DFE7218A0D05A5F5BB
:100CC00080152168CB6A23F470032B43CB62216823
:100CD00089680E4B1940914208D1E662A16A21F061
:100CE000020141F00101A162BDE8F081A06A20F09B
:100CF000020040F01000A062E06A40F00100E062F3
:100D00000120F1E7FDF7E1FF00E0FFFFFE0E1FFF0E
:100D1000F0B585B00025064600950195029503952E
:100D20000068194988422DD11849886940F400703B
:100D30008861886900F400700490886940F00400BC
:100D400088618869202700F0040004900320CDE921
:100D5000007069460E4800F08DF90F4C0D48C4E94B
:100D600000058020C4E90250400020618000E56158
:100D7000C4E90507204600F0DFF808B1FFF7BAFE26
:100D80003462666205B0F0BD0024014000100240EC
:100D900000080140080002407411002010B590F8CE
:100DA00021100022022905D00421816380F820202F
:100DB000012010BD01680B6823F00E030B60016871
:100DC0000B6823F001030B6090F84030C46B0121E5
:100DD00001FA03F3636080F8211080F820201046A8
:100DE00010BD00002DE9F05FC16B0C6801680B6855
:100DF000D0F840C0042202FA0CF2494DDFF824A1D9
:100E0000494E4A4FDFF828B1DFF828E122422CD0C2
:100E10005A072AD50A68920603D40A6822F0040207
:100E20000A600168A94201D1042219E0514501D1AB
:100E3000402215E0B14202D14FF4806210E0B94285
:100E400002D14FF480420BE0594502D14FF4802289
:100E500006E0714502D14FF4800201E04FF080625C
:100E60002F4908394A60C16A3BE04FF0020808FA8E
:100E70000CF818EA040F4FF000094FF0010235D0CA
:100E80005FEA837832D50B689B0605D40B6823F0A4
:100E90000A030B6080F821200168A94201D10222D7
:100EA00019E0514501D1202215E0B14202D14FF4A1
:100EB000007210E0B94202D14FF400520BE05945E4
:100EC00002D14FF4003206E0714502D14FF4001216
:100ED00001E04FF00072124908394A6080F8209012
:100EE000816A00291AD0BDE8F05F0847082505FA95
:100EF0000CF5254212D01B0710D50B6823F00E030A
:100F00000B6090F84010C36B02FA01F159608263E4
:100F100080F8212080F82090016BE2E7BDE8F09F87
:100F2000080002401C000240300002404400024021
:100F3000580002406C00024030B528B308C813497D
:100F400014221944B1FBF2F18900C1631049816395
:100F5000022141771A6843F6F0718A43D0E9001400
:100F60002143D0E902452C432143046921434469CC
:100F70002143846921431143196000214163012207
:100F800042770177084630BD012030BDF8FFFDBF34
:100F90000000024070B5044690F8200000250128AA
:100FA0000CD0012084F8200094F821600020012E4C
:100FB00006D084F820000225284670BD022070BDAE
:100FC000022684F82160A0632068066826F00106E6
:100FD00006602046FFF76CFDE06A00282068016883
:100FE00002D041F00E0106E021F00401016020680A
:100FF000016841F00A0101602068016841F00101C7
:101000000160D9E770B5044600F032F90546601C6E
:1010100002D004480078044400F02AF9401BA042A2
:10102000FAD370BD5800002000210B4A012808D0D7
:10103000022809D010280AD008280BD1117004F01A
:101040002FBD517004F01ABDD17004F0F3BC917043
:1010500004F002BD7047000040000020044910B5B4
:101060000A68024202D00860FFF7DEFF10BD0000F0
:10107000140401402DE9F84FDFF8B8910024A9F1DC
:10108000040B23460F2709F1040AABF1040EC9E053
:101090000125A5402A40AA427DD1674ED1F804C05F
:1010A000ACEB0608B44532D014DCBCF1030F3AD0E7
:1010B00009DCBCF1000F2AD0BCF1010F1CD0BCF13F
:1010C000020F31D11DE0BCF1110F17D0BCF1120F8E
:1010D0002AD119E0B8F5881F19D006DCB8F5803F91
:1010E00015D0B8F5801F1FD111E0B8F5001F0ED044
:1010F000B8F5041F18D10AE0CB6815E0CB681B1DBA
:1011000012E0CB6808330FE0CB680C330CE08B683F
:101110002BB1012B4FF0080303D0456104E00423F9
:1011200002E0056100E00023FF2A01D8064601E045
:1011300000F104064FEA840501D9A5F12005D6F88F
:10114000008007FA05FC28EA0C0803FA05F548EACE
:101150000508C6F800804D68ED0062D5374DAE69D0
:1011600046F00106AE61AD6924F0030605F0010505
:101170000095334D06EB050CDCF80850A607360F3A
:1011800007FA06F825EA0805DFF8B880404503D1DC
:101190004FF0000817E044E0DFF8AC80404502D192
:1011A0004FF001080FE0DFF8A480404502D14FF076
:1011B000020808E0DFF89880404502D14FF00308AC
:1011C00001E04FF0040808FA06F848EA0508CCF8F0
:1011D00008804D68D9F80060ED024D4601D51643F0
:1011E00000E096432E604D68DAF80060AD02554687
:1011F00001D5164300E096432E604D68DBF8006091
:10120000AD035D4601D5164300E096432E604D6860
:10121000DEF80060ED03754601D5164300E0964305
:101220002E60641C0D682A46E5407FF431AFBDE8AE
:10123000F88F000008040140000011100010024067
:101240000000014000080140000C01400010014076
:1012500000140140C26821EA02030A4043EA024145
:10126000016170470AB1016170470904FBE70000A2
:1012700001488068704700005800002070B50400E5
:1012800025D094F83D00002520B984F83C50204634
:1012900000F076FA242084F83D002068016821F0EF
:1012A000010101602068016841F40041016020688B
:1012B000016821F40041016000F034FC4D4A61688E
:1012C000914201D84C4900E04C49884201D20120AA
:1012D00070BD4B492368B0FBF1F15E6826F03F0614
:1012E0000E435E606368934206D94FF49673594388
:1012F0004FF47A73B1FBF3F12368491C1E6A26F0A0
:101300003F06314319626168914210D84900401E7E
:10131000B0FBF1F2521CC2F30B02042A01D20420EA
:1013200022E0B0FBF1F0401CC0F30B001CE0A2680F
:10133000F2B301EBC10303EB0116431EB3FBF6F35B
:101340005B1C43F480431B0549D092B301EBC102FF
:1013500002EB0111401EB0FBF1F0401CC0F30B008A
:1013600040F4804040F400402168CA694CF6FF73A5
:101370009A431043C861D4E907100143206802680A
:1013800022F0C00211430160D4E903010143206847
:10139000826848F2FF339A4311438160D4E9050122
:1013A00008432168CA6822F0FF021043C86001E0C8
:1013B0000EE016E02068016841F00101016025643B
:1013C000202084F83D00256384F83E50002070BD45
:1013D00001EB4106431EB3FBF6F35B1CB3E70120B0
:1013E000C2E701EB4101401EB0FBF1F0401CC0F32D
:1013F0000B00B7E7A086010080841E0000093D00B5
:1014000040420F002DE9F84F0025DDF8289098465E
:1014100017468A4604460095FFF72AFF064694F8C9
:101420003D0020287AD119230122864920460096C2
:1014300001F080FA0028F5D194F83C0001286DD025
:10144000012084F83C0020680168C90703D10168C5
:1014500041F0010101602068016821F40061016030
:10146000222084F83D00102084F83E002564676245
:10147000A4F82A80608D20857348E06233464A468E
:101480005146204601F066F900287CD1208DDFF816
:10149000BC81202768B1012814D002282068016887
:1014A0001ED041F48061016020684169806900902C
:1014B000BBE02068416981690091016841F40071D5
:1014C0000160B2E02068016821F48061016072B6B9
:1014D0002068416981690091016841F400710AE066
:1014E00041F40061016072B6206841698169009130
:1014F000016821F48061016062B696E0032865D836
:1015000001280CD002284B464FF0000241462046ED
:1015100000960BD001F00EFAA8BB0CE090E032462A
:101520004946204601F0ACFA68BB71E001F002FACE
:1015300048BB72B633E02068016821F48061016025
:1015400072B620680069616A0870606A401C606257
:10155000208D401E2085608D401E60853C4846F2EF
:10156000A8110068B0FBF1F0C0EBC00000EB8000F8
:101570000090401E009007D020684069C04340079B
:101580000DD50098F5E727E044F8305F6773A57341
:10159000206940F02000206162B625731CE02068BD
:1015A000016841F40071016020680069616A087097
:1015B000606A401C6062218D491E2185618D491E33
:1015C000618562B621680969017025E032464946A5
:1015D000204601F055FA10B10120BDE8F88F2068CF
:1015E0000069616A0870606A401C6062208D401E5C
:1015F00081B22185608D401E608520684269D2439A
:10160000520712D4032903D1016821F480610160DB
:1016100020680069616A0870606A401C6062208D01
:10162000401E2085608D401E6085208D00287FF43F
:1016300065AF84F83D7084F83E5084F83C50CCE7A8
:101640000220CAE7020010000000FFFF04000100B2
:10165000640000202DE9F84F1F4690468A46044654
:10166000DDF82890FFF704FE054694F83D00202899
:101670007FD11923012240492046009501F05AF9F3
:10168000002876D194F83C00012872D0012084F81B
:101690003C0020680168C90703D1016841F00101DD
:1016A00001602068016821F400610160212084F854
:1016B0003D00102084F83E0000262664C4F82480F3
:1016C0006785608D20852D48E0622B464A4651464D
:1016D000204601F0B5F890B9206841698069009012
:1016E00036E02A464946204601F002FA50B1206C05
:1016F000042804D12068016841F4007101600120D0
:10170000BDE8F88F606A216800780861606A401C53
:101710006062618D491E6185218D491E89B22185D6
:1017200022685369DB435B070BD451B10078106129
:10173000606A401C6062608D401E6085208D401E86
:1017400020852A464946204601F0C8F80028CED117
:10175000208D0028C5D154F83D0B016841F400717B
:101760000160202004F81E09E67766770020C7E7AD
:10177000FFE70220C4E70000020010000000FFFFA6
:1017800010B586B00021009101910291039100688B
:101790000F4988421AD10F4CA06940F00800A0619F
:1017A000A069694600F008000490C0200090122053
:1017B0000190032003900848FFF75CFCE06940F4C7
:1017C0000010E061E06900F40010049006B010BD64
:1017D0000054004000100240000C014002488168A3
:1017E000027811448160704758000020074810B506
:1017F000016841F010010160032000F075F800203D
:1018000000F006F800F024F8002010BD002002408F
:1018100070B50D4D04464FF47A712878B1FBF0F0A5
:101820000A490968B1FBF0F000F052FB48B9102CEE
:1018300007D200222146501E00F036F800206C60CE
:1018400070BD012070BD0000580000206400002021
:101850000C4808B5816941F001018161816901F09D
:1018600001010091C16941F08051C161C06900F07E
:10187000805000900448416821F0E06141F000711F
:10188000416008BD0010024000000140002809DB53
:1018900000F01F02012191404009800000F1E0208A
:1018A000C0F8001170470000F0B40E4B1B680C46E6
:1018B000C3F30223C3F10705042D00D90425191D24
:1018C000072901D2002300E0DB1E012606FA05F1FC
:1018D000491E214099409E40761E16403143F0BC7F
:1018E00003F06FBF0CED00E0064900F00702086846
:1018F0004FF6FF03184040EA0220034A10430860F5
:10190000704700000CED00E00000FA052DE9F843F7
:1019100005460078354CC00754D0E0690026C00069
:1019200008D4E06940F08050E061E069012600F0F1
:10193000805000902E480168C90512D40168804685
:1019400041F480710160FFF793FC074605E000BF9A
:10195000FFF78EFCC01B642823D8D8F80000C00510
:10196000F6D5206A10F4407021D0A98801F44071A6
:1019700081421CD0206A1F49012220F440700A6075
:1019800000220A602062C00711D0FFF771FC0746F1
:1019900041F2883808E000BFFFF76AFCC11B4145EF
:1019A00002D90320BDE8F883206A8007F4D5206AB5
:1019B000696820F44070084320621EB1E06920F09D
:1019C0008050E0612878800705D56068A96820F418
:1019D0004040084360602878C00605D56068E96823
:1019E00020F48000084360600020DBE70010024024
:1019F00000700040400442422DE9F0470F460500C8
:101A000061D0434E306800F00700B84209D2306818
:101A100020F0070038433060306800F00700B8421B
:101A200051D128683B4C810712D5400703D5606827
:101A300040F4E06060602878000703D5606840F4F7
:101A4000605060606068A96820F0F0000843606042
:101A50002878C00728D06868012810D0216802289B
:101A600010D0890700292EDA616821F003010143B3
:101A70006160FFF7FDFB804641F288390DE0216887
:101A80008903EFE78901EDE7FFF7F2FBA0EB08011F
:101A9000494502D90320BDE8F0876068696800F015
:101AA0000C00B0EB810FEFD1306800F00700B842B6
:101AB0000BD9306820F0070038433060306800F000
:101AC0000700B84201D00120E5E72878400705D596
:101AD0006068E96820F4E0600843606028780007E7
:101AE00006D56068296920F4605040EAC100606052
:101AF00000F038F86168084AC1F30311515CC8402E
:101B00000649086006480068FFF782FE0020C2E729
:101B10000020024000100240A06C00086400002079
:101B20005C0000200448054900684968044AC1F384
:101B30000221515CC8407047640000200010024040
:101B4000B06C00080448054900684968044AC1F3BC
:101B5000C221515CC8407047640000200010024060
:101B6000B06C00080E4A51680E4801F00C03042BBB
:101B700011D0082B0FD10C48C1F38343C903C05CBB
:101B80000AD55168084AC1F34041921E515C054A8A
:101B90005043B0FBF1F070470449484370470000E0
:101BA0000010024000127A00906C000800093D000D
:101BB0002DE9F84F040070D02078C04DC00749D0FF
:101BC0006868C0F38100012807D06868C0F381000D
:101BD000022809D16868C00306D52868800339D572
:101BE00060680028E7D035E06068B0F5803F0BD032
:101BF00010B1B0F5A02F11D0286820F480302860F3
:101C0000286820F4802002E0286840F480302860B2
:101C1000606890B1FFF72CFB06460AE0286840F4A4
:101C200080202860F0E700BFFFF722FB801B6428BC
:101C300073D828688003F7D50CE0FFF719FB064638
:101C400005E000BFFFF714FB801B6428F0D828686C
:101C50008003F7D420789A4E80074FF001094FF0A7
:101C6000000839D5686810F00C0F07D06868C0F319
:101C70008100022809D16868C00306D4286880075B
:101C800014D52069012808D110E02069B0B1C6F848
:101C90000090FFF7EDFA074605E00AE1FFF7E8FAE2
:101CA000C01B0228C4D828688007F7D52868616956
:101CB00020F0F80040EAC10028600DE0C6F800807E
:101CC000FFF7D6FA074604E0FFF7D2FAC01B022856
:101CD00023D828688007F7D4207800072CD57948C6
:101CE000A169D9B1C0F80090FFF7C2FA074604E035
:101CF000FFF7BEFAC01B02280FD8686A8007F7D525
:101D000071484FF4FA510068B0FBF1F0009000BF49
:101D10000098411E0091FAD20EE080E0C0F80080E9
:101D2000FFF7A6FA074604E0FFF7A2FAC01B022855
:101D300075D8686A8007F7D42078400760D5E869CD
:101D40000027C00008D4E86940F08050E861E869E5
:101D5000012700F0805000905C480168C90513D449
:101D60000168834641F480710160FFF781FA824681
:101D700006E000BFFFF77CFAA0EB0A0064284ED80B
:101D8000DBF80000C005F5D5E06801280AD008B1ED
:101D9000052813D0286A20F001002862286A20F064
:101DA000040002E0286A40F001002862E06841F285
:101DB000883B98B1FFF75CFA82460BE0286A40F056
:101DC00004002862EEE700BFFFF752FAA0EB0A0119
:101DD00059455AD8286A8007F6D50CE0FFF748FA2B
:101DE000824605E0FFF744FAA0EB0A0159454CD8BA
:101DF000286A8007F6D41FB1E86920F08050E861B6
:101E0000E06988B36968C1F38101022944D00228DE
:101E1000C6F8608004D0FFF72BFA044638E034E0BF
:101E2000FFF726FA074604E0FFF722FAC01B022854
:101E30002BD828688001F7D4206AB0F5803F05D1FF
:101E40006868A16820F4003008436860D4E908019C
:101E50000843696821F4741108436860C6F860900B
:101E6000FFF706FA044606E025E000BFFFF700FA98
:101E7000001B022809D828688001F7D51BE000BFA5
:101E8000FFF7F6F9001B022802D90320BDE8F88FFE
:101E900028688001F4D40EE00128F7D06868226A2F
:101EA00000F48031914204D1616A00F470108842DC
:101EB00001D00120EAE70020E8E70000001002401E
:101EC0000000424280044242640000200070004052
:101ED00010B5401EB0F1807F01D3012010BD4FF03E
:101EE000E02460610F21601703F06BFC0020A0610B
:101EF00007202061002010BD70B590F83C20012A19
:101F000026D0012480F83C40022280F83D2003685E
:101F10005A689D6822F070060A6832435A600D4B79
:101F200002689A4208D0B2F1804F05D00A4B9A421B
:101F300002D00A4B9A4204D1496825F08003194324
:101F4000916080F83D40002180F83C10084670BD4B
:101F5000022070BD002C0140000400400008004039
:101F600010B5040003D094F83D0010B107E0012043
:101F700010BD002084F83C00204600F01FF802202D
:101F800084F83D00211D206801F004F8012084F848
:101F9000460084F83E0084F83F0084F8400084F84E
:101FA000410084F8420084F8430084F8440084F837
:101FB000450084F83D00002010BD000008B5124A1D
:101FC00001681248914207D1816941F40061816141
:101FD000806900F4006014E0B1F1804F0AD00C4A2F
:101FE00091420FD1C16941F00201C161C06900F0A5
:101FF000020006E0C16941F00101C161C06900F061
:102000000100009008BD0000002C014000100240BB
:102010000004004090F83D10012901D001207047D4
:10202000022180F83D1000680B49884208D0B0F1C9
:10203000804F05D00949884202D00949884204D11D
:10204000816801F00701062903D0016841F0010110
:102050000160002070470000002C01400004004097
:102060000008004070B5044690F83C0000250128A7
:1020700017D0012684F83C60022084F83D002068D7
:10208000826822F0770222F47F428260086850283A
:1020900038D00DDC20284FD005DC90B3102811D1AA
:1020A0004AE0022070BD302846D040280AD13BE0EB
:1020B00060282FD070280DD0B0F5805F03D0B0F528
:1020C000005F12D0012584F83D60002084F83C00B8
:1020D000284670BDCB68D1E90121206800F09DFF42
:1020E0002068816841F0770109E0CB68D1E90121DE
:1020F000206800F092FF2068816841F4804181608F
:10210000E1E719E0CA684968206801F03BF850210E
:10211000206806E0CA684968206801F044F8602138
:10212000206800F084FFCEE7CA684968206801F0A3
:1021300029F840212068F4E7226801461046F0E7BC
:1021400010B586B0002100910191029103910068C1
:10215000B0F1804F2BD11748816941F004018161B2
:10216000816901F004010491816941F008018161F4
:102170008069022400F0080004900320CDE90004E7
:1021800069460D480394FEF775FF4FF44060CDE9B2
:102190000004694609480394FEF76CFF084841684B
:1021A00021F4407141F0E06141F40071416006B0FA
:1021B00010BD00000010024000080140000C01406A
:1021C0000000014070B5044690F83C0000260D4622
:1021D00001280FD0012084F83C006AB1042A1DD0E8
:1021E000082A2FD00C2A3FD00126002084F83C007A
:1021F000304670BD022070BD206800F021FF2068CD
:10220000816941F0080181612068816921F0040140
:102210008161206881692A69114311E0206800F01A
:1022200037FF2068816941F400618161206881691C
:1022300021F480618161206881692A6941EA022173
:102240008161D2E7206800F04FFF2068C16941F04A
:102250000801C1612068C16921F00401C1612068E1
:10226000C1692A69114311E0206800F069FF206804
:10227000C16941F40061C1612068C16921F48061D4
:10228000C1612068C1692A6941EA0221C161ACE7E4
:1022900010B5040003D094F83D0010B107E0012010
:1022A00010BD002084F83C00204600F01EF80220FB
:1022B00084F83D00211D206800F06CFE012084F8A8
:1022C000460084F83E0084F83F0084F8400084F81B
:1022D000410084F8420084F8430084F8440084F804
:1022E000450084F83D00002010BD704710B504463D
:1022F000022249B104290ED0082913D094F84100D4
:10230000012816D0012010BD94F83E000128F9D113
:1023100084F83E200FE094F83F000128F2D184F8C1
:102320003F2008E094F840000128EBD184F84020D9
:1023300001E084F841200122206800F061FE0F498D
:102340002068884203D1426C42F400424264206813
:10235000884208D0B0F1804F05D00949884202D0A8
:102360000849884204D1816801F00701062903D099
:10237000016841F001010160002010BD002C014006
:102380000004004000080040704710B50446006893
:10239000406994F84110C0F3C010212911D180B1D7
:1023A0002068143050E8001F21F0800140E800123E
:1023B000002AF5D1A06B08B1FEF7F0FC204600F032
:1023C000A2FF2068406994F84210C0F380102229CF
:1023D00011D180B12068143050E8001F21F0400175
:1023E00040E80012002AF5D1E06B08B1FEF7D6FCF8
:1023F000204600F061FF002010BD704770B504005A
:1024000004D094F84100002510B106E0012070BD11
:1024100084F84050204600F023F8242084F841003E
:102420002068C16821F40051C160204600F07AFFA5
:102430002068016921F4904101612068416921F01F
:102440002A0141612068C16841F40051C16065649E
:10245000202084F8410084F842006563002070BDAC
:1024600070B586B000250646009501950295039546
:1024700000681E49884237D11D49C86940F40030C0
:10248000C861C86900F400300490886940F0040015
:1024900088618869174C00F00400049004200090C3
:1024A000022001900320039069462046FEF7E2FDDA
:1024B0000820CDE90005694620460295FEF7DAFDC1
:1024C0000E4C0D48C4E900058020C4E902502020CC
:1024D0002561C4E905502046E561FEF72DFD08B1F0
:1024E000FEF708FBF463666206B070BD004400406E
:1024F00000100240000801406C000240B8110020AA
:102500002DE9F843044690F84200994616460D46D8
:10251000202802D00220BDE8F883ADB1A6B100208A
:102520006064222184F842102063FEF7A1FEA68594
:102530008046E685A0684FF48057B84201D12069F3
:1025400020B12E46002526E00120E4E7002622E007
:102550004346002220212046CDF8009000F086FF5F
:1025600008B10320D7E726B1A068B8421BD038B124
:1025700008E020684068C0F3080025F8020B07E077
:10258000206980B12068406800F07F0006F8010BE8
:10259000E08D401EE085E08D0028D9D1202084F810
:1025A00042000020B7E720684068EFE790F842302B
:1025B000202B01D00220704721B11AB10023036300
:1025C00000F00CBF0120704770B5006826498842B2
:1025D00049D126480178264D264C532903D0BDE821
:1025E000704003F009BAA269E169A260E160417933
:1025F000807941EA002003F0CBFD6FF00E0204F079
:1026000000FB00221C4B03F013FEA061E161A268F5
:10261000E368A069E16903F03FFF0022174B03F074
:1026200005FF06D2206900222B46616903F0F4FC05
:1026300010E0A268E368A069E16903F02DFF0022C1
:102640000F4B03F0B9FD07D2206900222B466169C8
:1026500003F022FF20616161BDE87040212203493F
:102660000848FFF7A3BF70BD00480040AC0F002032
:1026700000807640200000200080664000406F40CF
:1026800000406FC02C11002070472DE9F84304462C
:1026900090F841001F4616460D46202802D0022021
:1026A000BDE8F8837DB176B100206064212084F814
:1026B0004100FEF7DDFDA6848046E684A068B0F503
:1026C000805F02D003E00120EAE7206910B12E46C6
:1026D00000250EE000260CE08021204600F0C6FE1A
:1026E000A0B9AEB116F8010B21684860E08C401E1D
:1026F000E084E08C43464FF0000200970028EBD1C5
:102700004FF04001204600F0B1FE30B10320C7E792
:1027100035F8020BC0F30800E6E7202084F84100FA
:102720000020BDE7FEE701684A69D24352050FD495
:102730006FF480624A61002140F8301F202242730A
:102740008173026942F00402026101730120704743
:10275000002070472DE9F84F0446C06A1E46934694
:102760000D4621680A6842F480620A60082807D092
:10277000012805D010F5803F02D0206B112804D12C
:102780002068016841F4807101604FF001195B46D7
:10279000002249462046009600F0CCF84FF400781D
:1027A00040B120680068C00501D5C4F8408003200E
:1027B000BDE8F88F2069DFF884A0B0F5804F0FD016
:1027C0000620216800EAD51747F0F000086133467B
:1027D0005A460AF10601204600F0F4F858BB03E01F
:1027E000E8B240F001001CE02168E8B2086133461D
:1027F0005A465146204600F0E5F8E0B920684169A4
:1028000081690091016841F4807101605B4600229A
:1028100049462046009600F08DF80028C1D147F0C7
:10282000F1002168086133465A465146204600F0BF
:10283000C9F80028BCD00120BAE70000020001005E
:10284000F8B50446C06A1E460D461746082807D04C
:10285000012805D010F5803F02D0206B122804D14A
:102860002068016841F480710160134600224FF036
:1028700001112046009600F05DF840B12068006824
:10288000C00502D54FF4007020640320F8BD206914
:10289000B0F5804F0ED00620216800EAD51040F038
:1028A000F000086133463A460B49204600F08AF8AA
:1028B00078B902E005F0FE0000E0E8B221680861A6
:1028C000054933463A46891F204600F07BF8002828
:1028D000DCD00120F8BD00000800010070B51646EC
:1028E0000D4604461EE02046FFF71DFF08B10120FB
:1028F00070BD681C16D0FEF7BBFC801BA84200D838
:1029000085B920684069C04340070BD5002044F8D2
:10291000300F20216173A073216941F020012161F2
:102920002073E4E720684069C0434007DBD40020FF
:1029300070BD00002DE9F047984617460D46044645
:10294000C1F30746DDF820902AE000BFB8F1FF3F51
:1029500026D0FEF78DFCA0EB0901414502D8B8F165
:10296000000F1DD12068012E16D0806925EA0000D5
:102970000004000C12D00020B84211D1002044F80D
:10298000300F20216173A073216941F02001216182
:1029900020730120BDE8F0874069E7E70120EBE7FD
:1029A0002068012E0AD0806925EA00000004000C8E
:1029B00006D00020B842C9D00020EBE74069F3E719
:1029C0000120F7E72DE9F047984616460D460446E4
:1029D0004FF000094FF0200AC1F3074723E02068B9
:1029E0004069C043400515D42068016841F4007176
:1029F000016021686FF480604861C4F8309084F809
:102A00003DA084F83E90216C41F00401216484F8DB
:102A10003C9021E0701C06D0FEF72AFCA0EB0800D9
:102A2000B04203D816B1012F1FD021E02068012F3A
:102A300015D0806925EA00000004000C18D000BF02
:102A400044F8309F84F80DA084F80E90216941F07D
:102A50002001216184F80C900120BDE8F0874069D5
:102A600025EA00000004000CEAD12068406901E07A
:102A70002068806925EA00000004000CAFD1ECE773
:102A80002DE9F041002590460E460446202728E017
:102A90004069C043C0060CD454F8301B6FF01000DE
:102AA000486144F810596777A577206A2062257736
:102AB00014E0FEF7DDFBA0EB0800B04200D886B9B9
:102AC00020684069C04340060BD544F8305F677307
:102AD000A573206940F02000206125730120BDE826
:102AE000F08120684169C9434906D1D40020F6E746
:102AF00070B516460D4604461EE02046FFF713FE4D
:102B000008B1012070BD681C16D0FEF7B1FB801B18
:102B1000A84200D885B920684069C04300060BD59B
:102B2000002044F8300F20216173A073216941F027
:102B3000200121612073E4E720684069C04300065A
:102B4000DBD4002070BD00003EB50021114800918B
:102B500001910F4A029102600124816004730175A2
:102B60004FF460220461C2614160FEF743F808B18E
:102B700072B6FEE70520CDE90004029069460548DB
:102B8000FDF7BAFF002801D072B6FEE73EBD000097
:102B900000240140D00F00202DE9F04F85B0002423
:102BA00047480094019402940394816941F0100114
:102BB0008161816901F010010491816941F0200176
:102BC0008161816901F020010491816941F0040172
:102BD0008161816901F004010491816941F008017A
:102BE00081618069DFF8DC9000F008004FF4005547
:102BF0000490002229464846FEF734FBDFF8C8A0BF
:102C00004FF46247002239465046FEF72BFBDFF8AF
:102C1000BCB04FF46068002241465846FEF722FBE4
:102C20000095022601250396CDE9015469464846E0
:102C3000FEF720FA1B2000902548CDE901046946E3
:102C40005046FEF717FA00970396CDE901546946FE
:102C50005046FEF70FFA28020090032001906946C3
:102C60005846FEF707FACDF800800396CDE90154E7
:102C700069465846FEF7FEF9002201210620FEF7BC
:102C800013FE0620FEF702FE002201210720FEF7B8
:102C90000BFE0720FEF7FAFD002201210920FEF7B6
:102CA00003FE0920FEF7F2FD002201210A20FEF7B3
:102CB000FBFD0A20FEF7EAFD05B0BDE8F08F00003D
:102CC0000010024000100140000C014000080140CB
:102CD0000000111010B586B000241748009401942C
:102CE0000294039404941349059401604F21C0E9B0
:102CF000011440F2E731C0E9031444618461FFF735
:102D00002FF908B172B6FEE74FF480500090694683
:102D10000948FFF7A7F908B172B6FEE7049404A9C1
:102D200005480594FFF7E8F8002801D072B6FEE7E1
:102D300006B010BD002C01405410002010B58EB01C
:102D400000240794089409940A940B941C21684663
:102D50000C94FDF7F8FA2A484FF0804101604F21AA
:102D6000C0E9011440F2E731C0E903148021816118
:102D7000FFF7F6F808B172B6FEE74FF480500790FF
:102D800007A91F48FFF76EF908B172B6FEE71C48A5
:102D9000FFF77EFA08B172B6FEE70B940BA918484C
:102DA0000C94FFF7A9F808B172B6FEE76020CDE9F0
:102DB000000402940022694611480494FFF702FAC5
:102DC00008B172B6FEE7042269460D48FFF7FAF92A
:102DD00008B172B6FEE7082269460948FFF7F2F922
:102DE00008B172B6FEE70C2269460548FFF7EAF91A
:102DF00008B172B6FEE70248FFF7A2F90EB010BDA7
:102E00009C10002010B586B0002416480094019450
:102E100002940394049412490594C0E900144FF6F7
:102E2000FF71C0E9024104618461FFF799F808B1BC
:102E300072B6FEE74FF48050009069460948FFF7EC
:102E400011F908B172B6FEE7049404A90548059487
:102E5000FFF752F8002801D072B6FEE706B010BDA9
:102E600000040040E4100020FEE7FEE710B5036810
:102E7000D86A6424B0FBF4F0504380B229B104292D
:102E800005D0082905D0186410BD586310BD98639B
:102E900010BDD86310BD7047704780E80E00002158
:102EA000C1600161416170472DE9F04104460D4662
:102EB000D4E90017384603F0D9FB0146384603F041
:102EC00037FC6061266980463146284603F0F2FDF2
:102ED000414603F023FD314603F0C8FB0546E060A0
:102EE0002946304603F0E6FD20F00040A16803F0DB
:102EF00015FD064641464FF07E5003F0DBFD394696
:102F000003F00CFD314603F0B1FB256160602846FB
:102F1000BDE8F081FEF762BC30B593B02821684669
:102F2000FDF711FA14210AA8FDF70DFA002501207A
:102F30000F9510951195010412958DE823000490CA
:102F40004FF4E010CDE90810022407946846FEF71C
:102F50002FFE08B172B6FEE70AA90F2081E8310002
:102F60004FF48060CDE90D0502210AA8FEF744FD6B
:102F700008B172B6FEE74FF4004011900F940FA80D
:102F8000FEF7C4FC002801D072B6FEE713B030BDD6
:102F900070470000F0B50268164B174C174D4FF004
:102FA0008047984205D0B84203D0A04201D0A84241
:102FB00003D122F070064A683243984205D0B842E5
:102FC00003D0A04201D0A84203D122F44074CA68C1
:102FD00022434C6922F08002224302608A68C26266
:102FE0000A688262984201D1096901630121416145
:102FF000F0BD0000002C014000040040000800402B
:1030000010B501F01F030121046A99408C4304624A
:10301000016A9A401143016210BD10B5846842EA0A
:10302000032224F47F440A432243826010BD826855
:1030300022F070020A4342F00701816070470000ED
:1030400030B5036A026A22F00102026242688469B2
:1030500024F073050C682C4323F002058B682B4386
:103060000A4DA8420BD123F00805CB6822F4407228
:103070002B434D6923F0040315438A692A434260B8
:10308000846149684163036230BD0000002C014047
:1030900030B5026A036A23F010030362436884694F
:1030A0000D6824F4E64444EA05248D6822F02002E9
:1030B00042EA05120B4DA8420ED1CD6822F08002E3
:1030C00042EA05124D6923F4406343EA85038D69A2
:1030D00022F0400243EA85034360846149688163CA
:1030E000026230BD002C014030B5036A026A22F44E
:1030F000807202624268C46923F4007324F073058D
:103100000C682C438D6843EA05230C4DA8420ED170
:10311000CD6823F4006343EA05234D6922F440524D
:1031200042EA05128D6923F4806342EA0512426087
:10313000C4614968C163036230BD0000002C0140D6
:1031400030B5046A026A22F4805202624268C3699E
:103150000D6823F4E64343EA05238D6824F4005404
:1031600044EA0534064DA84204D14D6922F4804258
:1031700042EA85124260C36149680164046230BD5D
:10318000002C014010B5036A046A24F001040462B3
:10319000846924F0F00444EA021423F00A020A438A
:1031A0008461026210BD10B5036A046A24F0100441
:1031B0000462846923F0A00324F4704444EA0232D8
:1031C00043EA01118261016210BD70B5446A206852
:1031D000406994F84110C0F3C0100025212904D1A2
:1031E00018B1E584204600F08EF82068406994F814
:1031F0004210C0F38010222904D118B1E585204681
:1032000000F05AF8606C40F0100060642046FFF750
:10321000F4F870BD10B50146406A096809684FF0BE
:10322000000289062ED4C28501680C3151E8003FA6
:1032300023F4807341E80034002CF5D10168143187
:1032400051E8003F23F0010341E80034002CF5D1A0
:103250000168143151E8003F23F0400341E8003495
:10326000002CF5D1202180F84210016B012909D1F1
:1032700001680C3151E8003F23F0100341E80034AD
:10328000002CF5D14263016B012902D0FFF79CF9B4
:1032900010BD818DFFF778F810BD10B5406A01218F
:1032A0004163016B012902D0FFF7EEF910BD818D5A
:1032B0004908FFF769F810BD01680C3151E8002F8B
:1032C00022F4907241E80023002BF5D101681431FB
:1032D00051E8002F22F0010241E80023002BF5D134
:1032E000016B012909D101680C3151E8002F22F04E
:1032F000100241E80023002BF5D1202180F8421074
:1033000000210163704701680C3151E8002F22F061
:10331000C00241E80023002BF5D1202180F84110A4
:103320007047000070B5044600680169E26821F446
:103330004051114301612169A06808436169084354
:103340002168CA6841F20C639A430243CA6020684C
:103350004169A26921F44071114341611E4920680D
:10336000884202D1FEF7EEFB01E0FEF7DBFB00EB4B
:10337000C00101EB0012606864218000B2FBF0F331
:10338000B3FBF1F36FF018067343B2FBF0F5B2FB39
:10339000F0F605EB8305322303EB0515B5FBF1F5DC
:1033A000B6FBF1F605F0F00505EB0615B2FBF0F6FD
:1033B000B2FBF0F0B0FBF1F06FF01802504306EBF7
:1033C000800003EB0010B0FBF1F0216800F00F006B
:1033D0002844886070BD00000038014038B5816223
:1033E00004468285002013466064222284F842202D
:1033F000E56B1B4AAA62E56B1A4AEA62E56B1A4A58
:103400002A63E26B50630A462168E06B091DFDF7F1
:10341000C1FD2068016840680090206948B12068BB
:103420000C3050E8001F41F4807140E80012002A7F
:10343000F5D12068143050E8001F41F0010140E848
:103440000012002AF5D12068143050E8001F41F026
:10345000400140E80012002AF5D1002038BD0000EC
:10346000153200089B320008CB3100082DE9F041ED
:10347000984617460E460446069D27E0681C25D050
:103480002DB1FDF7F5FEA0EB0800A8421ED920687B
:103490000C3050E8001F21F4D07140E80012002ADF
:1034A000F5D12068143050E8001F21F0010140E8F8
:1034B0000012002AF5D1202084F8410084F842004F
:1034C000002084F840000320BDE8F08120680068F7
:1034D00036EA000004D00020B842CFD00020F3E745
:1034E0000120F9E7FEE700007CB50446002094F8CF
:1034F000DA200D46012A03D0022A01D0032A14D172
:1035000001AB6A460121204600F091F9009A4FF480
:103510007F018A4202D8019A8A4206D9002804D142
:1035200025B10F49204601F0E5FC7CBD0422FF21B6
:10353000204600F05BFE054600227021204600F088
:1035400055FE05430022FF21204600F04FFE0543B3
:1035500000228021204600F049FE28437CBD000067
:103560005B010020F8B50646002401220B213046FD
:1035700000F03CFE074600220B21304600F036FEEC
:1035800040EA07056A461321304600F00EFB641C32
:103590009DF800102843E4B2490704D0032C04D25C
:1035A0000028E2D0F8BD032CFCD36FF00B00F8BD6F
:1035B000F0B591B004460022882100F017FE0025E6
:1035C00084F8F0504FF47A70A4F852014FF4C870A8
:1035D000A4F854015748C4F8580157482562C4F864
:1035E000D4006946204600F0A9F8060009D18DF8FC
:1035F00000508DF801504022694604F11000FCF79C
:1036000070FE6420A4F834014FF46170A4F8360110
:103610004FF4FA70A4F838014FF42060A4F83C018C
:10362000012784F850713A468021204600F0DEFDE3
:1036300006430122FF21204600F0D8FD0643002268
:103640001146204600F0D2FD064310AA91212046E3
:1036500000F0ABFA06439DF8400084F83A010122DD
:103660000021204600F0C2FD06430022FF21204633
:1036700000F0BCFD064300228021204600F0B6FD8C
:1036800030430026002852D1B1B20122204600F07A
:10369000ADFB761C062EF5DB002848D10022022166
:1036A000204600F0A3FB002841D100220321204640
:1036B00000F09CFB00283AD100220421204600F0B3
:1036C00095FB002833D100220521204600F08EFB17
:1036D00000282CD14FF490120021204600F0C7FBA7
:1036E000002824D14FF480420121204600F0BFFB86
:1036F00000281CD14FF40C120221204600F0B7FB29
:10370000002814D100220321204600F0B0FB00283D
:103710000DD1FF2084F8300102460121204600F03F
:1037200065FD84F83271002801D184F8155111B07B
:10373000F0BD0000856B0100A470090070B506465D
:103740000C46007C01F8080B304600F044F80028D5
:1037500033D1207304F11001304600F0D9F900286C
:103760002BD104F11401304600F0E4F8002824D1F4
:10377000002501E0002820D104EB8502A9B23046E3
:10378000243200F07BF8002817D16219A9B2304624
:10379000183200F066F86D1C062DEBDB00280CD10A
:1037A00004F13C01304600F098F9002805D1211DB4
:1037B0003046BDE8704000F0BBB870BD10B50C4697
:1037C0000A46092100F0F1F9002803D1217801F01F
:1037D0000101217010BD3EB50C46054602AAF82134
:1037E00000F01CFA00280ED16A460421284600F099
:1037F000F1F9002807D1BDF8081029B1009AB2FBF1
:10380000F1F12160A9613EBD2168FBE738B50C46A6
:103810006A46132100F0C9F99DF8001001F0070273
:1038200011F0180F226001D06FF0050038BDF8B517
:1038300015461C4606466A460E2100F0EFF9BDF813
:1038400000100905C9082960002809D16A460C2121
:10385000304600F0E3F9BDF800100905C908216001
:10386000F8BD03460020062902D3001F002102E014
:10387000194491F82810117070470000F8B50446FB
:103880000020154606292ED2DFE801F00305191B9A
:103890001D1D646B25E06A464421204600F0BEF9F8
:1038A000002803D1BDF800104FEA412606D1EEB141
:1038B0002E604FF00101A66384F82910F8BDE46B77
:1038C0000FE0246C0DE06A464FF06401204600F0E2
:1038D000A5F9002804D100BFBDF800104FEA41242B
:1038E000ECD12C60F8BD6FF00300F8BDA16B29602E
:1038F0004FF00001E0E77CB50C4690F8DA100025A7
:10390000012604290AD06A46142100F04EF9002845
:103910000BD19DF80010C90706D007E001A9FFF7F9
:1039200075FF0199042901D025707CBD26707CBDEE
:1039300001F01FB901F07FB9F0B58DB00C46054616
:103940000C2302AA142100F087F906007ED1002181
:10395000A17521609DF813009DF81220616000EBB5
:1039600002209DF80F209DF80E304FF47A7E02EB76
:1039700003221204D209E2609DF811309DF8106014
:1039800080B203EB06231B04DB0923619DF80B3097
:103990009DF80A6003EB06239BB2A382B5F852613F
:1039A0009DF8087095F831C176451FD0464306F55D
:1039B000FA7696FBFEF02E8C95F81CE080B2B6B23B
:1039C000BEF1000F12D05E43B2EB262F08D1BCF13E
:1039D000000F02D042F2B82008E048F6E0200DE0E7
:1039E0005043A2EB2626B0FBF6F080B2BCF1000FEC
:1039F00004D0810821818001E07501E02081E1751A
:103A00000CA8CDE900403946284601F02DF9060002
:103A100025D19DF83000207605F150011C220D467D
:103A200005A8FCF75EFC2089ADF81C00E07D8DF850
:103A30002B006089ADF81E0060680690E068089071
:103A400020690990A08AADF8280000E007E0207EF8
:103A50008DF82C001C2205A92846FCF742FC0DB06D
:103A60003046F0BD38B5054600200C468DF8000004
:103A70006A460121284600F098F800282AD12346FA
:103A80009DF800200021284602F0E8F9002821D105
:103A9000A31C9DF800200121284602F0DFF9002830
:103AA00018D1631C9DF800200221284602F0D6F9A7
:103AB00000280FD1E31C9DF800200321284602F0C6
:103AC000CDF9002806D1231D9DF8002004212846A9
:103AD00002F0C4F938BD01F0DFB938B50C4605462F
:103AE0006A46012100F061F800280BD19DF8001012
:103AF00085F83011090601D5012100E0002121706F
:103B000085F84C1038BD02460020127F0A707047BD
:103B100038B50D4604466A46202100F07FF800289B
:103B200007D1BDF8001029B1C90029602162012127
:103B3000217738BD216A29600021F9E7012301F0CE
:103B400080BA01F09EBA70B5047C054614B900F045
:103B500011FA10B9284601F01FFA50EA040102D107
:103B6000032185F8321170BD70B50C460546002161
:103B700000F08EF8002810D12846FFF7E4FF002857
:103B80000BD121462846FFF7D7FE002805D128464D
:103B9000BDE870400021FFF7E5BC70BD10B5002402
:103BA0000220FDF72FFA204610BDF7B5164607464E
:103BB0000024012201A901F0F6FD6FF0130528B9D8
:103BC00001223146384601F0DEFD00B12C46204688
:103BD000FEBD0000F7B5164607460024012201A9E4
:103BE00001F0E1FD6FF0130528B904220A493846B7
:103BF00001F0C9FD08B12C460BE00748C1780278F6
:103C000001EB026142788078120402EB0020084444
:103C100030602046FEBD0000FC110020F7B51646BE
:103C200007460024012201A901F0BDFD6FF0130534
:103C300028B902220749384601F0A5FD08B12C46F3
:103C400005E004484178007801EB002030802046F0
:103C5000FEBD0000FC1100202DE9FF4117461E4665
:103C600080460024012201A901F09DFD6FF013059B
:103C700028B932463946404601F085FD00B12C4650
:103C800004B02046BDE8F0814A088A2100F0AEBAAF
:103C90000246002003290BD003DC49B1012904D1DD
:103CA00006E0142904D0152902D06FF007007047F0
:103CB0001174704770B51C46049E054611B16FF033
:103CC000090070BD142A08D0152A0FD0052C6FD218
:103CD000DFE804F066686A6C6F002EB10122BDE86F
:103CE0007040842100F082BA1022F8E70122FF21FF
:103CF00000F07CFA044600221146284600F076FACD
:103D000004430022FF21284600F070FA04430122F8
:103D10008021284600F06AFA0443022285212846C1
:103D200000F064FA04430422FF21284600F05EFA02
:103D300004430022CD21284600F058FA0443112202
:103D4000CC21284600F052FA04430722FF212846DE
:103D500000F04CFA04430022BE21284600F046FA47
:103D600004430622FF21284600F040FA04430922BA
:103D7000CC21284600F03AFA04430022FF212846CD
:103D800000F034FA04430122FF21284600F02EFA05
:103D9000044300221146284600F028FA204370BD53
:103DA000002207E0012205E0022203E0032201E0F5
:103DB00017E004220A21284600F018FA0028EED164
:103DC00096B11023EF228421284600F0F7F900284D
:103DD000E5D185F8DA402846BDE870400021FFF7BC
:103DE000C1BB6FF00A0070BD0023EBE72DE9F04185
:103DF000044600200D461646071F034601460246AC
:103E0000062D02D33846BDE8F08156B104EB85019A
:103E10004B6B0121062DF5D2DFE805F005080F12E6
:103E200015180122F6E784F8281017E0C3F34F2293
:103E30004421204600F0ECF90EE084F82A100DE051
:103E400084F82B100AE05300FE2201E01301EF2258
:103E50006021204600F0B2F90028D4D1611926B1C2
:103E60005FF0010281F82820CDE70022FAE770B563
:103E700014460022431800EB810593F82830DBB18B
:103E8000C4F34F23062914D2DFE801F00305080A22
:103E90000C0C446310E01A46442105E0C4630BE0B7
:103EA000046409E01A46642100F0B2F9020003D06C
:103EB00003E06FF0030200E06C63104670BD01F098
:103EC0009EBA2DE9F8430746002090460E468DF82D
:103ED00000006A4601213846FFF767FE05009DF89D
:103EE000000004462ED1291FB8F1010F06D0052E7F
:103EF0002CD2DFE806F0191C1F222500052E25D242
:103F0000DFE806F00306090C0F0044F0100419E086
:103F100044F0280416E044F0040413E044F04004A4
:103F200010E044F080040DE004F0EF040AE004F037
:103F3000D70407E004F0FB0404E004F0BF0401E050
:103F400004F07F04844210D015B10EE00D460CE061
:103F500022460121384600F049F9050005D187F8CD
:103F6000304138467969FFF7AAFF2846BDE8F88353
:103F700001F0F9BAF8B501250646047C2A468021ED
:103F800000F034F90122FF21304600F02FF9002221
:103F90001146304600F02AF996F83A219121304630
:103FA00000F024F901220021304600F01FF9002220
:103FB000FF21304600F01AF900228021304600F03F
:103FC00015F93CB10425012C26D0032C2FD06FF01D
:103FD0000700F8BD01220021304600F007F98DF8F6
:103FE00000500028F5D100244FF4FA6705E024B111
:103FF0006A4600213046FFF7D8FD9DF80020641C7A
:1040000025EA0201014304D0BC42E2D36FF006006E
:10401000F8BDBC42EBD3F9E718B901213046FFF7F0
:1040200063FA022209E000BF86F83251F8BD18B9E0
:1040300001213046FFF758FA04220021304600F0F3
:10404000D5F80028F0D0F8BD30B597B0044640212F
:1040500001A8FCF778F900258DF84450ADF85050D0
:104060008DF8545001212046169500F0EEFA94F890
:10407000142194F81311012A06D802D1202903D85B
:1040800008E03AB90C2905D915AA16A9204600F06E
:10409000F8FF02E0204601F013FA474900287DD1DD
:1040A00094F8500108B9D4F84C11204600F022FFD2
:1040B00000287ED100220423114620460095FFF7F8
:1040C000F9FD002875D10122FF21204600F08EF86D
:1040D000054614AA84212046FFF7A0FD05430022CF
:1040E000FF21204600F082F8284362D1BDF850003D
:1040F00001A90001C4F8D4002046FFF71FFB0028E7
:1041000057D111A92046FFF759FB002851D19DF83E
:10411000440084F83101402201A904F11000FCF7A9
:10412000E0F811AA01212046FFF73FFD002840D109
:104130009DF8440084F83001002211462046FFF724
:10414000C0FE002835D1002202212046FFF7B9FE2B
:1041500000282ED1032084F8320112AA0021204623
:10416000FFF7B9FC002824D19DF8480084F8E80046
:1041700012AA01212046FFF7AEFC002819D19DF8B4
:10418000480084F8E00013AA0321204601F0BBFB9D
:1041900000280ED1139813AA042100E009E0C4F806
:1041A000E400204601F0AFFB002802D11399C4F8C7
:1041B000DC1017B030BD000068000020F8B51546CF
:1041C0001C460E4607466A46FFF7EFFC002809D159
:1041D0009DF8002031462A4022438DF800203846C1
:1041E00000F004F8F8BD6FF062007047034610B5A8
:1041F000064800240170427001460222184601F070
:10420000D2FA08B16FF01304204610BDFC11002053
:10421000034610B5074800240170110A41708270EE
:1042200001460322184601F0BEFA08B16FF01304EC
:10423000204610BDFC11002070B51C460025134619
:1042400006463F2C01D9281F70BD0848224600F8B9
:10425000011B1946FCF700F8621C0449304601F0C6
:10426000A2FA08B16FF01305284670BDFC110020BA
:104270002DE9F047B0F854C1D0F85801DDE90A86BD
:104280000CFB00F58035DDE908972C0A4FF0000A99
:1042900004FB0CF4554652B1880200EB5200B0FB0F
:1042A000F2F000EB4000404300F50040050C07F53C
:1042B0000040000C0622C01CB0FBF2F003FB09F327
:1042C00003F50043190C4943C0EBC000B0F5803F33
:1042D00001D31C4808E0FF1CB7FBF2F0C0EBC000A4
:1042E00000F50040000C4043084400EB5800B0FBD0
:1042F000F8F08003FE227F30B0FBF2F068434FF409
:104300007A7100F5FA70B0FBF1F0000100F5FA7077
:10431000B0FBF1F7402004F12001B1FBF0F000F018
:10432000D3FD054627B104EB5700B0FBF7F000E0E2
:10433000002000F0C9FD3560854200D9306050464C
:10434000BDE8F0870000F0FF01EBC10140F27760AB
:104350000902A1FB000170472DE9FF4F87B0044619
:10436000006A0690884608694FF47A714843000C49
:104370000390D8F80C000590DFF8F8B14FF4481618
:1043800004AA4146204600F062FD06AA41462046A6
:1043900000F06BFD81464FF47A710498069D484306
:1043A00000F50040070C4D43B54200D93546B9F140
:1043B000000074D1D4F8DC00019094F8E06001466C
:1043C0003246204600F0DCF88246D4F8E400009043
:1043D000014694F8E820204600F0D2F80146032078
:1043E000082E00D1022051444143C9024FF47A7093
:1043F00001F5FA71B1FBF0F140F27762514301F53A
:10440000FA71B1FBF0FA04988030010A01FB0AF05E
:104410008030060A080204900FB14EB109E00999F4
:10442000C1F800B0C4F840B10A98002101609CE0D6
:1044300001264FF44870029003984F490004B0FBE6
:10444000F7F0884200D908464FF4167100FB01F9D5
:1044500006EB4600800000F037FD40000390B8F8FE
:10446000081046486A424143380400EB42024FF4C8
:104470007A7002F5FA72B2FBF0F2431003EB0743D5
:10448000B3FBF0F01202B2FBF0F0002800DA404279
:1044900098F8182000021AB14FF480350FE065E05B
:1044A00041F25C22B1FBF2F1C0F58030484300F5E7
:1044B0000040000C00F5803040084043850B4FF46D
:1044C000487105FB01F000F50040010C09F50040C2
:1044D000000C49434043084400F0F6FC000464210A
:1044E0003230B0FBF1F10398B1FBF0F040F6B5319A
:1044F000484341F2883108444900B0FBF1F74FF4DA
:104500007040874200D90746DDE9001008444FF4A7
:104510007A7800F5FA70B0FBF8F04FF4C81101EBAF
:104520005001B1FBF0F000F0CFFC000200F5FA7092
:10453000B0FBF8F07F434043384400F0C5FC4146EF
:1045400048430EB1584500D9584609990860C4F847
:1045500040010A98029B03908DE80806DDE90412E9
:104560002B462046FFF784FE814648460BB0BDE847
:10457000F08F0000AE878F02666666009A9906008B
:1045800000B50B461146FFF7DFFE4FF47A7100F5D8
:10459000FA70B0FBF1F04B4303EB5001B1FBF0F0CC
:1045A00000BD00B50B461146FFF7CEFE4FF47A7101
:1045B00000F5FA70B0FBF1F0434303F5FA73B3FB77
:1045C000F1F000BD0146C0B2090A8840401C7047A6
:1045D0004000801CC0B27047F8B506460022832117
:1045E000FFF704FE040011D100254FF4FA676A4674
:1045F00083213046FFF7D9FA04469DF80000204396
:104600000BD0BD4202D300BF6FF00604012283210C
:104610003046FFF7EBFD2043F8BD6D1CBD42E6D3ED
:10462000F2E70022114648B1401E02E04008491C52
:1046300089B2020AFAD161F31F2082B21046704794
:10464000FF2101EB5000C0B270472DE9F04F95B04B
:10465000002504460E954FF4C8500F95CDE904503F
:10466000129594F8F0600F46AB46AA46072E7ED00E
:10467000012280212046FFF7B9FD80460122FF215B
:104680002046FFF7B3FD40EA080500221146204608
:10469000FFF7ACFD40EA05080622FF212046FFF7A0
:1046A000A5FD40EA080502AA83212046FFF77DFA0E
:1046B00040EA05089DF80800832140F004022046E6
:1046C000FFF794FD40EA08050722FF212046FFF787
:1046D0008DFD40EA0508012281212046FFF786FD75
:1046E00040EA08052046FFF759FA40EA050801228A
:1046F00080212046FFF77AFD40EA0805F80755D0EB
:10470000F00753D16B2294212046FFF76FFD40EA5A
:1047100005082046FFF760FF40EA080501AA90213E
:104720002046FFF757FA40EA050801982422C0F313
:104730000621C0F3C03B129194212046FFF756FD9D
:1047400040EA08052046FFF747FF40EA050801AAAE
:1047500090212046FFF73EFA40EA08050198010E35
:104760008DF82C10010C8DF82D10010A00E0FCE1F1
:104770008DF82E108DF82F00252294212046FFF76A
:1047800035FD40EA05082046FFF726FF40EA080904
:1047900001AA90212046FFF71DFA40EA0905019879
:1047A000010E8DF83010000C8DF83100B8077ED561
:1047B000B0077CD4022294212046FFF717FD40EA7F
:1047C00005082046FFF708FF40EA080513AA9021D4
:1047D0002046FFF7EAF940EA05087B2294212046AB
:1047E000FFF704FD40EA08052046FFF7F5FE40EA22
:1047F000050810AA90212046FFF7D7F940EA0805DE
:10480000772294212046FFF7F1FC40EA0508204674
:10481000FFF7E2FE40EA080501AA90212046FFF7D3
:10482000D9F940EA050801987822410E8DF8181050
:10483000C0F386418DF81910C0F3C6218DF81A1007
:10484000C0F306110007400E8DF81B108DF808000C
:1048500094212046FFF7CAFC40EA08052046FFF7EE
:10486000BBFE40EA050801AA90212046FFF7B2F9F5
:1048700040EA08059DF80810019801EB50718DF889
:104880001C10C0F386518DF81D10C0F3C6318DF891
:104890001E10C0F306218DF81F10C0F34601C0079B
:1048A000400E8DF820108DF80800792200E055E0C8
:1048B00094212046FFF79AFC40EA05082046FFF7BE
:1048C0008BFE40EA080501AA90212046FFF782F9F5
:1048D00040EA05089DF8081001987A2201EB9061E2
:1048E0008DF82110C0F3C6418DF82210C0F30631B7
:1048F0008DF82310C0F34611C006400E8DF8241029
:104900008DF8080094212046FFF770FC40EA080566
:104910002046FFF761FE40EA050801AA90212046E3
:10492000FFF758F940EA08059DF80810019801EBD7
:1049300090718DF82510C0F3C6518DF82610C0F384
:1049400006418DF82710C0F346218DF82810C0F3DA
:1049500086008DF8290000208DF82A0078077ED582
:1049600070077CD47B2294212046FFF73FFC40EA6D
:1049700005082046FFF730FE40EA08050EAA902100
:104980002046FFF727F940EA05087C2294212046BB
:10499000FFF72CFC40EA08092046FFF71DFE40EA1D
:1049A00009050FAA90212046FFF714F940EA0508EF
:1049B000732294212046FFF719FC40EA080520469F
:1049C000FFF70AFE40EA050801AA90212046FFF7FA
:1049D00001F940EA08050198742200064FEA1049DF
:1049E00094212046FFF702FC40EA05082046FFF725
:1049F000F3FD40EA080501AA90212046FFF7EAF8F6
:104A0000019940EA050849EA116004907522942151
:104A10002046FFF7EBFB40EA08052046FFF7DCFDE8
:104A200040EA050901AA90212046FFF7D3F840EAA1
:104A300009080198762200064FEA10499421204681
:104A4000FFF7D4FB40EA08052046FFF7C5FD40EA22
:104A5000050801AA90212046FFF7BCF800E004E019
:104A6000019940EA080549EA116A0022812120469D
:104A7000FFF7BCFB40EA05080622FF212046FFF7AE
:104A8000B5FB40EA080502AA83212046FFF78DF80E
:104A900040EA05089DF80800832100F0FB0220464B
:104AA000FFF7A4FB40EA08050122FF212046FFF79B
:104AB0009DFB40EA0508012200212046FFF796FBF6
:104AC00040EA08050022FF212046FFF78FFB40EA5D
:104AD0000508002280212046FFF788FB50EA0805E0
:104AE00043D1F8070FD0F0070DD1129884F81301C5
:104AF00084F814B100200BA923180A5C401C83F829
:104B00002A210628F8DBB8070ED5B0070CD49DF88B
:104B10004C0084F8F1009DF8400084F8F20004F1A4
:104B2000F30006A9FBF774FB780719D5700717D4B3
:104B30000E98C4F818010F98C4F81C01049840029C
:104B4000C4F820010020BAF1000F08D00599AAEBA3
:104B500001004FF47A1148430014404200B2E06073
:104B60003E438DF8086084F8F06015B02846BDE833
:104B7000F08F30B585B005464FF4FA600290002002
:104B8000039040F6363008600C4669462846FEF72A
:104B900069FF00284DD19DF8001029B99DF801103A
:104BA00011B99DF8021011B302AA0221284600F0A3
:104BB000AAFE00283DD19DF8001029B10299226873
:104BC00001F24E21114421609DF8021031B1029989
:104BD000226801F2B22102EB410107E09DF80110C9
:104BE00029B10299226801F52571114421609DF8CF
:104BF000031061B103AA0321284600F084FE039943
:104C0000226801F5257111442160002811D19DF819
:104C1000041061B104AA0421284600F074FE04992E
:104C2000226801F2262111442160002801D1216867
:104C3000696105B030BD38B50C4640F2FF756A4673
:104C40002821FEF7EBFF00280DD1BDF80010C1F3BD
:104C50000B02ADF80020AA424FF0FA0101DDA2F5E7
:104C600080524A43226038BD2DE9FF4F8BB04FF090
:104C70000009199D8DF800909A460646C8464F4691
:104C80008DF804908DF808908DF80C90ADF8109088
:104C9000C1F3C304CDF81490BCB1052C15D0072C7A
:104CA00013D00C2C11D00D2C0FD00E2C0DD00F2C9E
:104CB0000BD0002083466A4600213046FEF7D1FD26
:104CC0009DF80010C9B110B11DE00120F2E705AB5D
:104CD00006AA30461899FFF73FFBA0B91899059826
:104CE00007AA488100213046FEF7C8FD079921B187
:104CF000069A8A4201D94FF0010920B902AA02217D
:104D00003046FEF7AEFD9DF8081011B338BB08AA77
:104D100002213046FEF7B2FD80B90122FF21304664
:104D2000FFF764FA50B904AAB6213046FEF776FFC1
:104D300020B90022FF213046FFF758FABDF81010C5
:104D40004902C6F84811089A1AB1914201D94FF0A8
:104D5000010820B903AA03213046FEF782FD9DF821
:104D60000C1091B190B9BAF1000F12D00D98010258
:104D7000B1FBFAF0824609AA03213046FEF77EFD18
:104D8000099911B18A4500D2012720B1287858B37A
:104D90002DE00020EEE7BBF1000F01D0FF2013E073
:104DA000012C10D0022C0ED0032C0CD0062C0DD0D0
:104DB000092C0BD0082C04D00A2C02D0B8F1000F1B
:104DC00006D0032000E00520287010E00420FBE757
:104DD000042C00D00FB10220F6E7B9F1000F01D08A
:104DE0000120F1E70020287018990020488101AACD
:104DF00001213046FEF735FD002825D19DF8001031
:104E000011B15FEA090100D0012186F82E10042CAF
:104E100015D09DF8041091B15FF0000186F82F10B5
:104E20009DF8081011B15FEA080100D0012186F851
:104E300030109DF80C1001B11FB1012102E00121D9
:104E4000ECE7002186F831100FB0BDE8F08F38B5DF
:104E50001446CA6822606A4600F007F8002803D1A9
:104E60002168009A1144216038BDF8B5064600203B
:104E70000D461060144669463046FEF744FE002891
:104E800009D19DF80010002905D0A98A326A514342
:104E90008031090A2160F8BD38B5144621B10129D5
:104EA00005D06FF003010DE06A46502101E06A462B
:104EB0007021FEF77AFE010004D19DF80000FFF793
:104EC00087FB2070084638BD024600204FF0804125
:104ED00000E089089142FCD808E04318934203D8C7
:104EE000D21A01EB500000E0400889080029F4D1F3
:104EF00070470000F8B5074600200D460446061F1F
:104F000013E0CBB2641CFF2B05D0042B0CD8295D19
:104F100000206A4639E0295D641C61B1012912D084
:104F2000022918D003291ED03046295D002901D05E
:104F30000028E6D0F8BD2A5D641C295D01EB022142
:104F4000A7F8341116E0295D641C2A5D02EB0121EB
:104F5000A7F836110EE02A5D641C295D01EB0221E1
:104F6000A7F8381106E0295D641C2A5D02EB0121D7
:104F7000A7F83C11641C295D0029C2D1F8BD00BF0F
:104F800015F804C002F800C0401C641C9842F7DB0E
:104F90003846FFF751F9C8E7F8B5064600208DF806
:104FA000000004464FF4FA6569463046FEF7A3FC5C
:104FB000002807D19DF80010012903D0641CAC42E1
:104FC00001D3C01FF8BD3046FEF7E8FDECE72DE940
:104FD000F04385B01D0091460E4607464FF0000491
:104FE00001D097F8304102220121FFF7FFF84FF07E
:104FF000000838B90021384600F052F910B9B9F16B
:10500000010F11D086F8008000280AD1002D08D0A9
:10501000224601213846FFF7E9F8002801D187F838
:10502000304105B0BDE8F083012004A9CDE90016A8
:10503000CDE90280424601461346384600F086F923
:10504000E2E72DE9F0411E461746054690F830414B
:105050000023324600F040F9002810D100233246E8
:1050600039462846FFF7B3FF002808D12246012120
:105070002846FFF7BBF8002801D185F83041BDE88C
:10508000F0812DE9F74F96B006462C200B900020BA
:105090000E9011908DF84C008DF850001290B6F8DB
:1050A0003CA14FF0B4094FF0030B01464FF0060846
:1050B000074672180020491C82F824014145F8D3A4
:1050C0000122FF213046FFF791F8040079D1002238
:1050D0004F213046FFF78AF80400F7D12C224E21E9
:1050E0003046FFF783F80400F0D10022FF2130465C
:1050F000FFF77CF80400E9D14A46B6213046FFF7B5
:1051000075F80400E2D1002280213046FFF76EF8E6
:105110000400DBD1002314AA13A93046FFF791FF46
:105120000400D3D106F592730EAACDF80080069341
:105130000E90CDE903B29A1D0A92CDE90190014685
:10514000304600F04EFB04003BD109A930460E9DCD
:1051500000F042FD040034D1BDF82410514531D98E
:1051600000213218401C82F824114045F9D300E098
:105170006D1C09EB050000F0A5FC10B90B988542E9
:10518000F6D301200EA9CDF800801590CDE903B12A
:10519000CDE9019501463046069B0A9A00F021FBB5
:1051A000040079D109A930460E9D00F015FD0400D8
:1051B00072D1BDF82410514505D901205F461290E7
:1051C00001E051E0159089B2514555D215981290E1
:1051D0005F4642460FA80699FBF783F8BDF82410F6
:1051E000B1EB0A0000D54042834611AB2A46414646
:1051F0000A9800F055FB1198411C0FD0484400F06C
:1052000061FC159988422ED1119D41462A467F1C8A
:10521000069800F030FB040003D03DE06FF031044D
:105220003AE030466D1C069900F034FE040033D19C
:1052300009A9304600F0D0FC04002DD1BDF824109F
:10524000B1EB0A0000D5404251450ED958450AD964
:105250000FA9304600F01EFE044642460FA90698EC
:10526000FBF73FF87F1E3CB116E0834642460FA88D
:105270000699FBF736F8B8E717980760189912985F
:105280000870012086F815011798007886F8130138
:105290001898007886F8140119B02046BDE8F08F00
:1052A00010B541F0010204460021FEF79FFF0028DF
:1052B00011D12046FFF770FE00280CD100212046B6
:1052C000FEF750F9002806D120460022BDE8104024
:1052D0001146FEF78BBF10BD2DE9F04385B04FF0AE
:1052E00000051E0091460F4680462C468DF8105052
:1052F00001D098F8305101221146FEF777FF38B9F6
:1053000040214046FFF7CCFF10B9B9F1010F10D092
:105310003C7000280AD1002E08D02A4601214046C0
:10532000FEF764FF002801D188F8305105B0BDE8D0
:10533000F083012004A900970394CDE901102246CF
:1053400001461346404600F001F8E2E72DE9FF4F21
:1053500081B00020DDE90EA9DDE910650F468DF86A
:1053600000009B460122FF210198FEF73FFF044603
:10537000002211460198FEF739FF40EA0408002296
:10538000FF210198FEF732FF40EA08046FB12EB109
:105390005246CB210198FEF708FC0443A5B16A46AA
:1053A000EE210198FEF701FC0DE02EB1CB21039A0E
:1053B0000198FEF71BFF044335B15B468022EE21C6
:1053C0000198FEF7FBFE04430122FF210198FEF73E
:1053D0000DFF0443012200210198FEF707FF04435B
:1053E0000022FF210198FEF701FF9DF800102043E5
:1053F00001F0EF0289F8002005B0BDE8F08F2DE93B
:10540000FF4107464FF4FA6002900020039044F6F3
:1054100020600E466FF0030581424FD3A6F6363466
:1054200069463846FEF71EFB002844D19DF800105F
:1054300029B99DF8011011B99DF8021001B302AA13
:105440000221384600F05FFA002834D19DF80010A0
:1054500029B1029901F24E21A1422FD2641A9DF87E
:10546000021021B1029901F2B221490005E09DF834
:10547000011029B1029901F52571A1421ED2641AC9
:105480009DF8031061B103AA0321384600F03BFAEE
:10549000039901F52571A14210D2641A00280AD19E
:1054A0009DF80410002906D0A4F2262204213846D3
:1054B00000F0F5FC7E6104B0BDE8F0812846FAE713
:1054C0002DE9F0479046894686B004460025B4266B
:1054D00006274FF02C0A0122FF21FEF787FEB0B904
:1054E00000224F212046FEF781FE80B92C224E215A
:1054F0002046FEF77BFE50B90022FF212046FEF732
:1055000075FE20B93246B6212046FEF76FFE002018
:1055100001462218401C82F82411B842F9D3B8F190
:10552000000F01D106E06D1C701900F0CBFA08B92C
:105530005545F8D305A90097CDE90391CDE901655B
:1055400004F592739A1D4146204600F04AF900285E
:1055500006D1012184F8151184F8139184F814817F
:1055600006B0BDE8F0872DE9FF41074600208DF821
:105570000C0014460E46D0076FF0030571D116B12A
:10558000012E0DD0B2E00C2C6BD3122C69D80C2C50
:1055900013D00E2C13D0102C13D0122C13D0A5E046
:1055A000082CF1D30E2CF1D8082C17D00A2C44D09B
:1055B0000C2C57D00E2C69D098E0182204E0302231
:1055C00002E0402200E0502257213846FEF70EFE4E
:1055D000082256213846FEF709FE85E010224821B0
:1055E0003846FEF703FE082247213846FEF7FEFD47
:1055F0008046022232213846FEF7F8FD40EA0808CC
:105600000C2230213846FEF7F1FD40EA080801225D
:10561000FF213846FEF7EAFD40EA0808302211462D
:105620003846FEF7E3FD40EA08080022FF2138462D
:10563000FEF7DCFD40EA080056E028224821384603
:10564000FEF7D4FD082247213846FEF7CFFD8046FD
:10565000032232213846FEF7C9FD40EA0808092234
:1056600027E04AE0382248213846FEF7BFFD0822ED
:1056700047213846FEF7BAFD8046032232213846DC
:10568000FEF7B4FD40EA0808082212E0482211465D
:105690003846FEF7ABFD082247213846FEF7A6FD47
:1056A0008046032232213846FEF7A0FD40EA080872
:1056B000072230213846FEF799FD40EA080801220A
:1056C000FF213846FEF792FD40EA080820223021EB
:1056D0003846FEF78BFD40EA08080022FF213846D5
:1056E000FEF784FD40EA0800002807D12046FEF7B7
:1056F000A7FF80462EB1012E23D0284604B0BDE876
:10570000F08101AA0321384600F0FDF8B0B902AAE1
:105710000221384600F0F7F880B942465021384659
:10572000FEF764FD50B903213846019A00F0B7FB3B
:1057300020B902213846029A00F0B1FB87F8E84010
:1057400012E06A460421384600F0DDF850B94246BE
:1057500070213846FEF74AFD20B904213846009AE8
:1057600000F09DFB87F8E0400028C7D138467969F2
:10577000FEF7A5FB0028C1D10123002203A938466A
:10578000FFF725FCBAE738B502F10A03009393B29C
:1057900090F86021D0F85C0142F001040A462146ED
:1057A000FBF730FE38BD38B502F10A03009393B21F
:1057B00090F860410A46D0F85C012146FBF74AFFA9
:1057C00038BD0907090E002804DB00F1E02080F84D
:1057D0000014704700F00F0000F1E02080F8141D65
:1057E00070472DE9FF4F83B00024DDE9125A149F62
:1057F0009B46DDF8409026466FF0310800951AE090
:105800006B462A464946059800F04AF80098411C24
:1058100006D01199084400F055F90499884202D045
:1058200044463D6023E0009D49462A46584600F024
:1058300022F86D1C761C5645E2D33D60BCB9594632
:10584000039800F027FB040011D101A9039800F090
:1058500055F80446002001A907E01BF800200B5C66
:105860009A4201D0444602E0401C4845F5D307B0B7
:105870002046BDE8F08F70B50825B2FBF5F3B2FB0A
:10588000F5F60446002005FB16228B4202D36FF08A
:10589000310070BDE15C012595402943E15470BDA4
:1058A0002DE9F043082581464FF0FF301860B2FB28
:1058B000F5F0B2FBF5F605FB10274FF0000C304673
:1058C00015E0002219F80040B04202D1FC403A46EF
:1058D0000AE05FEAC47805D000FB05224FF0010C16
:1058E0001A6003E06408521CAA42F2D3401C8842AA
:1058F00002D2BCF1000FE4D0BDE8F08306230A46D3
:10590000B021FEF7A9B92DE9F04100248AB017466D
:1059100080468DF81C402546ADF81840264641B11A
:10592000012906D0022904D0032912D0042929D044
:105930005DE06A4600214046FEF7CDF8040005D13F
:1059400007AA46214046FEF730F904469DF81C00A0
:1059500015E06A4600214046FEF7BDF8040046D136
:105960006A4600214046FEF7B6F8040005D106AAB3
:1059700051214046FEF752F90446BDF81800FEF7E3
:1059800021FE2DE004A94046FEF76CF89DF81300B7
:10599000002590B16A4600214046FEF79CF80400BD
:1059A0001DD106AA51214046FEF738F90446BDF83C
:1059B0001800FEF707FE85B28CB96A460121404601
:1059C000FEF789F804000AD108AA71214046FEF7C3
:1059D00025F90446BDF82000FEF7F4FD86B2701BE1
:1059E00081B29DF800204046FEF7DBFD05463D6094
:1059F0000AB02046BDE8F08170B50B4C4FF47A75C3
:105A000005E02B46012208490848FCF779FD20787B
:105A10005528F6D164202070BDE870402122044949
:105A20000248FCF7C3BD0000200000202C1100201C
:105A3000AC0F002010B59620FAF7B6FF054C0120F8
:105A40006071FBF715FCE0600020A0712071E0712F
:105A500010BD00004000002010B59620FAF7A4FF0A
:105A6000054C0120A071FBF703FCE0600020607191
:105A70002071E07110BD00004000002010B596209C
:105A8000FAF77AFF054C01202071FBF7F1FBE0608B
:105A90000020A0716071E07110BD00004000002086
:105AA00010B59620FAF768FF054C0120E071FBF76E
:105AB000DFFBE0600020A0712071607110BD00006C
:105AC000400000200146044A8909012052F82110B3
:105AD000002900D1002070471403002008B5FBF70F
