:020000040800F2
:100000008807002089010008971B00084D19000887
:10001000951B0008D50300083F1E000800000000E3
:100020000000000000000000000000009B1B000812
:100030000F04000800000000991B00089D1B000829
:10004000A3010008A3010008A3010008A301000800
:10005000A3010008A3010008110400081704000808
:10006000A30100081D04000823040008D9030008A8
:10007000A3010008A3010008A3010008A3010008D0
:10008000A3010008A3010008A3010008A3010008C0
:10009000A3010008A3010008A3010008A3010008B0
:1000A000A3010008A3010008A3010008A3010008A0
:1000B000A3010008A3010008A3010008A301000890
:1000C000A3010008A3010008A3010008A301000880
:1000D000A3010008A3010008A3010008A301000870
:1000E000A3010008A3010008A301000800F002F822
:1000F00000F03AF80AA090E8000C82448344AAF188
:100100000107DA4501D100F02FF8AFF2090EBAE885
:100110000F0013F0010F18BFFB1A43F0010318473B
:10012000041E0000241E0000103A24BF78C878C1C5
:10013000FAD8520724BF30C830C144BF04680C60ED
:10014000704700000023002400250026103A28BF35
:1001500078C1FBD8520728BF30C148BF0B60704739
:100160001FB51FBD10B510BD00F058F81146FFF7C0
:10017000F7FF01F075FE00F076F803B4FFF7F2FF29
:1001800003BC00F07DF8000009488047094800479B
:10019000FEE7FEE7FEE7FEE7FEE7FEE7FEE7FEE737
:1001A000FEE7FEE704480549054A064B7047000094
:1001B000071C0008ED0000088801002088070020C7
:1001C00088030020880300204FF0000200B513468A
:1001D00094469646203922BFA0E80C50A0E80C5067
:1001E000B1F12001BFF4F7AF090728BFA0E80C5018
:1001F00048BF0CC05DF804EB890028BF40F8042B11
:1002000008BF704748BF20F8022B11F0804F18BF7D
:1002100000F8012B7047704770477047754600F033
:100220002BF8AE4605006946534620F00700854688
:1002300018B020B5FFF7B6FFBDE820404FF000062C
:100240004FF000074FF000084FF0000B21F00701BE
:10025000AC46ACE8C009ACE8C009ACE8C009ACE801
:10026000C0098D46704710B50446AFF300802046A4
:10027000BDE81040FFF781BF00487047280100200B
:1002800001491820ABBEFEE72600020070470000BF
:1002900070B5044600688168C943C90717D18168F1
:1002A00021F00101816000F0C5FC05460AE000BFB5
:1002B00000F0C0FC401B022804D920688068C043BD
:1002C000C00706D020688068C043C007F0D0002077
:1002D00070BDA06A40F01000A062E06A40F001002A
:1002E000E062012070BD10B50146406A826A12F0DA
:1002F000500F05D0006A026BBDE810400846104759
:10030000816A41F40071816201688968C1F34241E8
:1003100007290CD1017B51B9816A21F48071816276
:10032000816AC90403D4816A41F00101816200F04D
:10033000FBF810BD10B5406A816A41F0400181624E
:10034000C16A41F00401C16200F0F0F810BD10B5BF
:10035000406A00F0EAF810BDF8B5002604460096A1
:1003600000688168C943C9072DD0816841F0010147
:100370008160164816490068B0FBF1F000E0401EAD
:1003800000900028FBD100F055FC054616E000BFA8
:1003900000F050FC401B022810D920688068C04340
:1003A000C0070BD0A06A40F01000A062E06A40F0E5
:1003B0000100E06284F824600120F8BD20688068B4
:1003C000C043C007E4D10020F8BD000014000020A5
:1003D00040420F00FEE70000014800F005BA0000AF
:1003E000E400002030B590F840500124AC40C56BCB
:1003F0006C60046863604368102B036803D09960E5
:100400000068C26030BD9A600068C16030BD70474E
:10041000012000F00DBB022000F00ABB082000F014
:1004200007BB102000F004BB72B6FEE7F8B500244D
:10043000009490F824202546012A12D0012280F849
:1004400024204A681F23072A0DD20668776B521EA4
:1004500002EB820293409F430B6893401F437763F4
:1004600019E00220F8BD06680D2A0AD2376BD21FA8
:1004700002EB820293409F430B6893401F43376314
:1004800009E0F76A0D3A02EB820293409F430B6842
:1004900093401F43F7620A68072306680A2A0AD3B3
:1004A000F7680A3A02EB420293409F438B689340FD
:1004B0001F43F76008E0376902EB420293409F4315
:1004C0008B6893401F4337610A68102A01D0112AB4
:1004D00020D1124B02689A4217D193681B0219D49B
:1004E000936843F4000393600968102912D10C4902
:1004F0000C4A0968B1FBF2F101EB8101490000E00F
:10050000491E00910029FBD104E0816A41F02001DD
:100510008162012480F824502046F8BD0024014067
:100520001400002040420F007047704770470000E1
:100530002DE9F0414FF0000704003D467ED0A06A4F
:10054000002628B9E66284F82460204600F07EF890
:100550002046FFF79DFEA16AC90600D420B1A06A1B
:1005600040F01000A06269E0A16A21F4885141F0D6
:100570000201A1626268E169237B0A4347EA430101
:100580000A43A1684FF48077B94209D0012907D006
:100590005FF0000194F814C0BCF1010F02D00AE032
:1005A0003946F7E7F3B1A36A43F02003A362E36A95
:1005B00043F00103E3622368D3F804C02CF4694CD0
:1005C0004CEA010CC3F804C021688B68DFF870C0E6
:1005D00003EA0C0313438B60A168B9420BD00129D5
:1005E00009D00CE0DFF85CC0A3690CEB43330B438C
:1005F00043F40061DFE7218A0D05A5F58015216828
:10060000CB6A23F470032B43CB62216889680E4BBD
:100610001940914208D1E662A16A21F0020141F03D
:100620000101A162BDE8F081A06A20F0020040F063
:100630001000A062E06A40F00100E0620120F1E7F2
:10064000FDF7E1FF00E0FFFFFE0E1FFF70B586B073
:1006500000250646009501950295039500681A4904
:1006600088422ED11949886940F4007088618869F0
:1006700000F400700490886940F004008861886983
:10068000694600F0040004900220009003200190CD
:100690000F4800F0D9F9104C0E48C4E9000580203D
:1006A000C4E9025040002061800060612020C4E95C
:1006B0000605204600F042F908B1FFF7B5FE3462A6
:1006C000666206B070BD00000024014000100240C8
:1006D0000008014008000240E40000202DE9F04736
:1006E000894604463B4900683B4F0E1D90468842B0
:1006F00001D0B84207D1306810F4702F03D0012523
:100700002846BDE8F08794F8240001280CD0012089
:1007100084F824002046FFF71FFE05004FF000007C
:1007200004D084F82400EBE70220EAE7A16A40F64F
:100730000162914341F48071A1622168B94218D1EC
:10074000326812F4702F14D0A16A41F48011A162B2
:100750003168490505D5A16A21F4005141F4805161
:10076000A162A16AC9040AD5E16A21F00601E16229
:1007700006E0A26A22F48012A2624968E9E7E06218
:1007800084F82400216A15488862216A1448C862E6
:10079000216A1448086321686FF00200086020682D
:1007A000816841F480718160216843464A464C313A
:1007B000206A00F0F1F820688168C1F342410729FE
:1007C000816803D041F48011816099E741F4A00170
:1007D000FAE700000024014000280140E702000879
:1007E0004F030008350300082DE9F05FC16B0C686A
:1007F00001680B68D0F840C0042202FA0CF2494D9F
:10080000DFF824A1494E4A4FDFF828B1DFF828E18C
:1008100022422CD05A072AD50A68920603D40A68C5
:1008200022F004020A600168A94201D1042219E001
:10083000514501D1402215E0B14202D14FF480620E
:1008400010E0B94202D14FF480420BE0594502D189
:100850004FF4802206E0714502D14FF4800201E09E
:100860004FF080622F4908394A60C16A3BE04FF07F
:10087000020808FA0CF818EA040F4FF000094FF0CC
:10088000010235D05FEA837832D50B689B0605D428
:100890000B6823F00A030B6080F821200168A9424D
:1008A00001D1022219E0514501D1202215E0B142C7
:1008B00002D14FF4007210E0B94202D14FF400525D
:1008C0000BE0594502D14FF4003206E0714502D1E8
:1008D0004FF4001201E04FF00072124908394A60EB
:1008E00080F82090816A00291AD0BDE8F05F08479F
:1008F000082505FA0CF5254212D01B0710D50B6808
:1009000023F00E030B6090F84010C36B02FA01F164
:100910005960826380F8212080F82090016BE2E723
:10092000BDE8F09F080002401C0002403000024079
:1009300044000240580002406C00024030B528B329
:1009400008C8134914221944B1FBF2F18900C163AC
:1009500010498163022141771A6843F6F0718A4396
:10096000D0E900142143D0E902452C432143046916
:1009700021434469214384692143114319600021C3
:100980004163012242770177084630BD012030BD26
:10099000F8FFFDBF0000024070B5044690F820004B
:1009A000002501280CD0012084F8200094F8216053
:1009B0000020012E06D084F820000225284670BDB4
:1009C000022070BD022684F82160A06320680668BA
:1009D00026F0010606602046FFF704FDE06A0028C5
:1009E0002068016802D041F00E0106E021F0040108
:1009F00001602068016841F00A0101602068016817
:100A000041F001010160D9E70021084A012807D01F
:100A1000022807D0102807D0082800D1117070478D
:100A200051707047D170704791707047000000207E
:100A3000044910B50A68024202D00860FFF7E4FFDB
:100A400010BD0000140401402DE9F84FDFF8B89103
:100A50000024A9F1040B23460F2709F1040AABF186
:100A6000040EC9E00125A5402A40AA427DD1674E67
:100A7000D1F804C0ACEB0608B44532D014DCBCF1AC
:100A8000030F3AD009DCBCF1000F2AD0BCF1010FF2
:100A90001CD0BCF1020F31D11DE0BCF1110F17D0F9
:100AA000BCF1120F2AD119E0B8F5881F19D006DC65
:100AB000B8F5803F15D0B8F5801F1FD111E0B8F50B
:100AC000001F0ED0B8F5041F18D10AE0CB6815E05E
:100AD000CB681B1D12E0CB6808330FE0CB680C33EA
:100AE0000CE08B682BB1012B4FF0080303D045615C
:100AF00004E0042302E0056100E00023FF2A01D89E
:100B0000064601E000F104064FEA840501D9A5F18B
:100B10002005D6F8008007FA05FC28EA0C0803FA3D
:100B200005F548EA0508C6F800804D68ED0062D575
:100B3000374DAE6946F00106AE61AD6924F003069B
:100B400005F001050095334D06EB050CDCF8085067
:100B5000A607360F07FA06F825EA0805DFF8B88079
:100B6000404503D14FF0000817E044E0DFF8AC80C7
:100B7000404502D14FF001080FE0DFF8A480404566
:100B800002D14FF0020808E0DFF89880404502D11A
:100B90004FF0030801E04FF0040808FA06F848EAAD
:100BA0000508CCF808804D68D9F80060ED024D4684
:100BB00001D5164300E096432E604D68DAF80060D8
:100BC000AD02554601D5164300E096432E604D68B0
:100BD000DBF80060AD035D4601D5164300E09643A7
:100BE0002E604D68DEF80060ED03754601D51643B2
:100BF00000E096432E60641C0D682A46E5407FF4B1
:100C000031AFBDE8F88F000008040140000011106A
:100C1000001002400000014000080140000C0140AB
:100C200000100140001401400AB10161704709043D
:100C3000FBE70000014880687047000008000020C2
:100C400070B5040025D094F83D00002520B984F843
:100C50003C50204600F0B8F8242084F83D0020687D
:100C6000016821F0010101602068016841F4004140
:100C700001602068016821F40041016000F076FA0B
:100C80004D4A6168914201D84C4900E04C49884284
:100C900001D2012070BD4B492368B0FBF1F15E68C1
:100CA00026F03F060E435E606368934206D94FF418
:100CB000967359434FF47A73B1FBF3F12368491CDF
:100CC0001E6A26F03F06314319626168914210D8CE
:100CD0004900401EB0FBF1F2521CC2F30B02042A81
:100CE00001D2042022E0B0FBF1F0401CC0F30B0065
:100CF0001CE0A268F2B301EBC10303EB0116431E33
:100D0000B3FBF6F35B1C43F480431B0549D092B35D
:100D100001EBC10202EB0111401EB0FBF1F0401CDF
:100D2000C0F30B0040F4804040F400402168CA69E1
:100D30004CF6FF739A431043C861D4E9071001438E
:100D40002068026822F0C00211430160D4E9030167
:100D500001432068826848F2FF339A43114381605F
:100D6000D4E9050108432168CA6822F0FF02104354
:100D7000C86001E00EE016E02068016841F0010162
:100D800001602564202084F83D00256384F83E50EE
:100D9000002070BD01EB4106431EB3FBF6F35B1C64
:100DA000B3E70120C2E701EB4101401EB0FBF1F0C7
:100DB000401CC0F30B00B7E7A086010080841E0032
:100DC00000093D0040420F0010B586B0002100919F
:100DD00001910291039100680F4988421AD10F4C8A
:100DE000A06940F00800A061A069694600F0080011
:100DF0000490C02000901220019003200390084826
:100E0000FFF722FEE06940F40010E061E06900F4C1
:100E10000010049006B010BD0054004000100240C5
:100E2000000C0140024881680278114481607047DB
:100E300008000020074810B5016841F0100101606A
:100E4000032000F075F80F2000F006F800F024F8F9
:100E5000002010BD0020024070B50D4D04464FF437
:100E60007A712878B1FBF0F00A490968B1FBF0F01B
:100E700000F042FB48B9102C07D200222146501E38
:100E800000F036F800206C6070BD012070BD0000DD
:100E900008000020140000200C4808B5816941F0CA
:100EA00001018161816901F001010091C16941F095
:100EB0008051C161C06900F08050009004484168D1
:100EC00021F0E06141F00071416008BD0010024076
:100ED00000000140002809DB00F01F0201219140C1
:100EE0004009800000F1E020C0F8001170470000C8
:100EF000F0B40E4B1B680C46C3F30223C3F1070585
:100F0000042D00D90425191D072901D2002300E072
:100F1000DB1E012606FA05F1491E214099409E403C
:100F2000761E16403143F0BC00F08ABF0CED00E0A5
:100F3000064900F0070208684FF6FF03184040EA30
:100F40000220034A10430860704700000CED00E0E7
:100F50000000FA052DE9F84305460078354CC00736
:100F600054D0E0690026C00008D4E06940F0805009
:100F7000E061E069012600F0805000902E48016891
:100F8000C90512D40168804641F480710160FFF701
:100F900051FE074605E000BFFFF74CFEC01B64286A
:100FA00023D8D8F80000C005F6D5206A10F44070A8
:100FB00021D0A98801F4407181421CD0206A1F49C8
:100FC000012220F440700A6000220A602062C007FB
:100FD00011D0FFF72FFE074641F2883808E000BF26
:100FE000FFF728FEC11B414502D90320BDE8F88365
:100FF000206A8007F4D5206A696820F440700843AD
:1010000020621EB1E06920F08050E06128788007FE
:1010100005D56068A96820F44040084360602878DE
:10102000C00605D56068E96820F480000843606068
:101030000020DBE700100240007000404004424204
:101040002DE9F0470F46050061D0434E306800F0AF
:101050000700B84209D2306820F0070038433060FA
:10106000306800F00700B84251D128683B4C810736
:1010700012D5400703D5606840F4E06060602878CE
:10108000000703D5606840F4605060606068A9683C
:1010900020F0F000084360602878C00728D0686816
:1010A000012810D02168022810D0890700292EDAE3
:1010B000616821F0030101436160FFF7BBFD8046D9
:1010C00041F288390DE021688903EFE78901EDE7F6
:1010D000FFF7B0FDA0EB0801494502D90320BDE8A8
:1010E000F0876068696800F00C00B0EB810FEFD109
:1010F000306800F00700B8420BD9306820F00700D4
:1011000038433060306800F00700B84201D0012059
:10111000E5E72878400705D56068E96820F4E060D5
:10112000084360602878000706D56068296920F4C4
:10113000605040EAC100606000F028F86168084A29
:10114000C1F30311515CC8400649086006480068B5
:10115000FFF782FE0020C2E700200240001002409C
:101160000A1F0008140000200C0000200448054954
:1011700000684968044AC1F30221515CC8407047C5
:1011800014000020001002401A1F00080E4A516887
:101190000E4801F00C03042B11D0082B0FD10C4882
:1011A000C1F38343C903C05C0AD55168084AC1F33F
:1011B0004041921E515C054A5043B0FBF1F070472C
:1011C00004494843704700000010024000127A00B2
:1011D000FA1E000800093D002DE9F84F040070D008
:1011E0002078C04DC00749D06868C0F3810001284D
:1011F00007D06868C0F38100022809D16868C0037D
:1012000006D52868800339D560680028E7D035E026
:101210006068B0F5803F0BD010B1B0F5A02F11D0B1
:10122000286820F480302860286820F4802002E0BC
:10123000286840F480302860606890B1FFF7FAFCBD
:1012400006460AE0286840F480202860F0E700BFE6
:10125000FFF7F0FC801B642873D828688003F7D55B
:101260000CE0FFF7E7FC064605E000BFFFF7E2FCF5
:10127000801B6428F0D828688003F7D420789A4E21
:1012800080074FF001094FF0000839D5686810F069
:101290000C0F07D06868C0F38100022809D1686884
:1012A000C00306D42868800714D52069012808D116
:1012B00010E02069B0B1C6F80090FFF7BBFC07460C
:1012C00005E00AE1FFF7B6FCC01B0228C4D8286875
:1012D0008007F7D52868616920F0F80040EAC1006E
:1012E00028600DE0C6F80080FFF7A4FC074604E084
:1012F000FFF7A0FCC01B022823D828688007F7D47A
:10130000207800072CD57948A169D9B1C0F80090A0
:10131000FFF790FC074604E0FFF78CFCC01B022897
:101320000FD8686A8007F7D571484FF4FA51006802
:10133000B0FBF1F0009000BF0098411E0091FAD27E
:101340000EE080E0C0F80080FFF774FC074604E080
:10135000FFF770FCC01B022875D8686A8007F7D4B5
:101360002078400760D5E8690027C00008D4E86904
:1013700040F08050E861E869012700F0805000905B
:101380005C480168C90513D40168834641F4807143
:101390000160FFF74FFC824606E000BFFFF74AFC02
:1013A000A0EB0A0064284ED8DBF80000C005F5D594
:1013B000E06801280AD008B1052813D0286A20F077
:1013C00001002862286A20F0040002E0286A40F048
:1013D00001002862E06841F2883B98B1FFF72AFCDF
:1013E00082460BE0286A40F004002862EEE700BF66
:1013F000FFF720FCA0EB0A0159455AD8286A80075C
:10140000F6D50CE0FFF716FC824605E0FFF712FC6C
:10141000A0EB0A0159454CD8286A8007F6D41FB1C1
:10142000E86920F08050E861E06988B36968C1F339
:101430008101022944D00228C6F8608004D0FFF759
:10144000F9FB044638E034E0FFF7F4FB074604E01C
:10145000FFF7F0FBC01B02282BD828688001F7D4C7
:10146000206AB0F5803F05D16868A16820F400309B
:1014700008436860D4E908010843696821F47411DD
:1014800008436860C6F86090FFF7D4FB044606E0A6
:1014900025E000BFFFF7CEFB001B022809D8286813
:1014A0008001F7D51BE000BFFFF7C4FB001B02283B
:1014B00002D90320BDE8F88F28688001F4D40EE03B
:1014C0000128F7D06868226A00F48031914204D183
:1014D000616A00F47010884201D00120EAE7002020
:1014E000E8E700000010024000004242800442424F
:1014F000140000200070004010B5401EB0F1807F45
:1015000001D3012010BD4FF0E02460610F2160176E
:1015100000F096FC0020A06107202061002010BD93
:1015200010B590F83C20012A22D0012280F83C20FE
:10153000CA688C6822F4407222434C6822F48062AC
:1015400022430C6822F4006222430C6922F4805288
:1015500022434C6922F400522243C969002322F439
:1015600080420A4301684A6480F83C30002010BD84
:10157000022010BD70B590F83C20012A26D001242D
:1015800080F83C40022280F83D2003685A689D683C
:1015900022F070060A6832435A600D4B02689A4284
:1015A00008D0B2F1804F05D00A4B9A4202D00A4BC4
:1015B0009A4204D1496825F080031943916080F86C
:1015C0003D40002180F83C10084670BD022070BDEF
:1015D000002C0140000400400008004010B5040049
:1015E00003D094F83D0010B107E0012010BD0020A9
:1015F00084F83C00204600F01FF8022084F83D00EB
:10160000211D206800F000FB012084F8460084F8CA
:101610003E0084F83F0084F8400084F8410084F8DC
:10162000420084F8430084F8440084F8450084F8BC
:101630003D00002010BD000008B500680649884242
:1016400008D10648816941F400618161806900F434
:101650000060009008BD0000002C01400010024016
:1016600070B5044690F83C000025012817D00126EB
:1016700084F83C60022084F83D002068826822F0F3
:10168000770222F47F4282600868502838D00DDC4F
:1016900020284FD005DC90B3102811D14AE0022059
:1016A00070BD302846D040280AD13BE060282FD0BA
:1016B00070280DD0B0F5805F03D0B0F5005F12D078
:1016C000012584F83D60002084F83C00284670BD68
:1016D000CB68D1E90121206800F0D9FA206881683F
:1016E00041F0770109E0CB68D1E90121206800F0E1
:1016F000CEFA2068816841F480418160E1E719E019
:10170000CA684968206800F077FB5021206806E02D
:10171000CA684968206800F080FB6021206800F0FA
:10172000C0FACEE7CA684968206800F065FB40212E
:101730002068F4E7226801461046F0E700B585B05E
:101740000021009101910291039100680B498842A8
:1017500012D10B48816941F00401816180696946B9
:1017600000F0040004904FF470600090022001909B
:1017700003900448FFF768F905B000BD002C014054
:10178000001002400008014070B5044690F83C008B
:1017900000260D4601280FD0012084F83C006AB1D4
:1017A000042A1DD0082A2FD00C2A3FD00126002061
:1017B00084F83C00304670BD022070BD206800F007
:1017C00079FA2068816941F00801816120688169A6
:1017D00021F004018161206881692A69114311E0C7
:1017E000206800F08FFA2068816941F4006181610E
:1017F0002068816921F480618161206881692A699A
:1018000041EA02218161D2E7206800F0A7FA20684E
:10181000C16941F00801C1612068C16921F004017A
:10182000C1612068C1692A69114311E0206800F094
:10183000C1FA2068C16941F40061C1612068C169D1
:1018400021F48061C1612068C1692A6941EA0221ED
:10185000C161ACE710B5040003D094F83D0010B1AD
:1018600007E0012010BD002084F83C00204600F075
:101870001EF8022084F83D00211D206800F0C4F904
:10188000012084F8460084F83E0084F83F0084F884
:10189000400084F8410084F8420084F8430084F852
:1018A000440084F8450084F83D00002010BD7047D6
:1018B00010B50446022249B104290ED0082913D0DC
:1018C00094F84100012816D0012010BD94F83E0084
:1018D0000128F9D184F83E200FE094F83F00012858
:1018E000F2D184F83F2008E094F840000128EBD1C1
:1018F00084F8402001E084F841200122206800F0B3
:10190000B9F90F492068884203D1426C42F4004281
:1019100042642068884208D0B0F1804F05D0094960
:10192000884202D00849884204D1816801F0070149
:10193000062903D0016841F001010160002010BDBB
:10194000002C01400004004000080040FEE70000B9
:101950003EB500211148009101910F4A02910260A9
:1019600001248160047301754FF460220461C26137
:101970004160FEF7DDFD08B172B6FEE70720009476
:10198000CDE9014069460548FEF750FD002801D029
:1019900072B6FEE73EBD00000024014018000020A2
:1019A0002DE9F04385B00024364800940194029458
:1019B0000394816941F020018161816901F0200176
:1019C0000491816941F004018161816901F00401A0
:1019D0000491816941F0080181618069DFF8A88084
:1019E00000F0080048F238050490002229464046DD
:1019F000FFF71AF9DFF894904FF448770022394640
:101A00004846FFF711F90095022601250396CDE916
:101A1000015469464046FFF717F81B2000901C4808
:101A2000CDE9010569464846FFF70EF80097039691
:101A3000CDE9015469464846FFF706F80022012126
:101A40000620FFF755FA0620FFF744FA002201218D
:101A50000720FFF74DFA0720FFF73CFA002201218B
:101A60000920FFF745FA0920FFF734FA0022012187
:101A70000A20FFF73DFA0A20FFF72CFA05B0BDE86F
:101A8000F08300000010024000080140000C0140FB
:101A90000000211010B596B000240F9410941194FA
:101AA000129413941C2168461494FEF78DFB202198
:101AB00007A8FEF789FB3648344901604F21C0E989
:101AC000011440F2E731C0E9031444618461FFF777
:101AD00085FD08B172B6FEE74FF480500F900FA954
:101AE0002B48FFF7BDFD08B172B6FEE72848FFF7A7
:101AF000B1FE08B172B6FEE7139413A924481494FA
:101B0000FFF738FD08B172B6FEE7602000904FF491
:101B1000FA70CDE901040394049405940022694607
:101B20001B480694FFF730FE08B172B6FEE70422A8
:101B3000694617480194FFF727FE08B172B6FEE721
:101B4000082269461248FFF71FFE08B172B6FEE789
:101B50000C2269460E48FFF717FE08B172B6FEE781
:101B60000794089409944FF400500A94CDE90B406F
:101B700007A907480E94FFF7D3FC08B172B6FEE739
:101B80000348FFF7DBFD16B010BD0000002C01403C
:101B90009C000020FEE7FEE770477047FFF742B960
:101BA00030B593B028216846FEF70EFB14210AA831
:101BB000FEF70AFB002401250F9410942804CDE9B8
:101BC00000501194129407946846FFF705FB08B182
:101BD00072B6FEE70F200A90CDE90B540D94002158
:101BE0000AA80E94FFF72CFA08B172B6FEE702209D
:101BF0000F9011940FA8FFF7ADF9002801D072B62D
:101C0000FEE713B030BD7047F0B50268164B174CB5
:101C1000174D4FF08047984205D0B84203D0A042FC
:101C200001D0A84203D122F070064A68324398429C
:101C300005D0B84203D0A04201D0A84203D122F47B
:101C40004074CA6822434C6922F080022243026039
:101C50008A68C2620A688262984201D10969016396
:101C600001214161F0BD0000002C01400004004052
:101C70000008004010B501F01F030121046A9940DB
:101C80008C430462016A9A401143016210BD10B591
:101C9000846842EA032224F47F440A432243826098
:101CA00010BD826822F070020A4342F00701816091
:101CB0007047000030B5036A026A22F00102026236
:101CC0004268846924F073050C682C4323F00205F4
:101CD0008B682B430A4DA8420BD123F00805CB6833
:101CE00022F440722B434D6923F0040315438A69A3
:101CF0002A434260846149684163036230BD000049
:101D0000002C014030B5026A036A23F0100303621D
:101D1000436884690D6824F4E64444EA05248D6828
:101D200022F0200242EA05120B4DA8420ED1CD68E6
:101D300022F0800242EA05124D6923F4406343EA2F
:101D400085038D6922F0400243EA85034360846184
:101D500049688163026230BD002C014030B5036ADE
:101D6000026A22F4807202624268C46923F400733A
:101D700024F073050C682C438D6843EA05230C4D51
:101D8000A8420ED1CD6823F4006343EA05234D69D0
:101D900022F4405242EA05128D6923F4806342EA3C
:101DA00005124260C4614968C163036230BD00002E
:101DB000002C014030B5046A026A22F480520262AB
:101DC0004268C3690D6823F4E64343EA05238D683E
:101DD00024F4005444EA0534064DA84204D14D6968
:101DE00022F4804242EA85124260C361496801647C
:101DF000046230BD002C014010B5036A046A24F06F
:101E000001040462846924F0F00444EA021423F01B
:101E10000A020A438461026210BD10B5036A046AB3
:101E200024F010040462846923F0A00324F47044B5
:101E300044EA023243EA01118261016210BDFEE709
:101E40000907090E002804DB00F1E02080F80014E7
:101E5000704700F00F0000F1E02080F8141D70477B
:101E600008B5FEF7E7FFFFF79BFEFFF799FD1D485A
:101E7000416941F0010141614069002200F0010027
:101E8000009011460B20FFF733F80B20FFF722F8E4
:101E9000164815494FF48042016015494160002100
:101EA0008160C0E9031241618161C1610162FEF795
:101EB000C7FE08B172B6FEE7FFF7ECFDFFF748FD7D
:101EC0000A4800215430FFF7F3FC0848042154303D
:101ED000FFF7EEFC0548012206493038FEF7FEFB0D
:101EE000FEE70000001002400054004048000020BF
:101EF000A086010004000020010202030405060779
:101F000008090A0B0C0D0E0F101000000000000055
:101F10000000010203040607080900000000010296
:101F200003040000441F0008000000201800000007
:101F3000280100085C1F000818000020700700003E
:101F4000440100080101010100000000010000003F
:0C1F500010000000000000000024F4005D
:04000005080000ED02
:00000001FF
