:020000040800F2
:1000000070170020D10100085F290008DD220008D8
:100010005D290008B1090008AB2C000800000000B1
:100020000000000000000000000000008D29000812
:10003000EB090008000000008B290008092A0008CD
:10004000EB010008EB010008EB010008EB010008E0
:10005000EB010008EB010008ED090008F3090008B6
:10006000EB010008F9090008FF090008B5090008BC
:10007000EB010008EB010008EB010008EB010008B0
:10008000EB010008EB010008EB010008EB010008A0
:10009000EB010008EB010008EB010008EB01000890
:1000A000EB010008EB010008EB010008EB01000880
:1000B000EB010008EB010008EB010008EB01000870
:1000C000EB010008EB010008EB010008EB01000860
:1000D000EB010008EB010008EB010008EB01000850
:1000E000EB010008EB010008EB01000800F002F84A
:1000F00000F05EF80AA090E8000C82448344AAF164
:100100000107DA4501D100F053F8AFF2090EBAE861
:100110000F0013F0010F18BFFB1A43F0010318473B
:10012000145A0000345A000010F8013B0A4413F03E
:10013000030408BF10F8014B1D1108BF10F8015B44
:10014000641E05D010F8016B641E01F8016BF9D133
:10015000002D15D010F8014B03F00C030C2BA1EB74
:1001600004040ABF10F8013BA4EB8314A4EB03249E
:1001700005F1010314F8016B5B1E01F8016BF9D561
:10018000914238BF10F8013BD1D3704700230024BF
:1001900000250026103A28BF78C1FBD8520728BF97
:1001A00030C148BF0B6070471FB51FBD10B510BDF3
:1001B00000F0F3F81146FFF7F7FF05F093F800F0B1
:1001C00011F903B4FFF7F2FF03BC00F019F90000C6
:1001D0000948804709480047FEE7FEE7FEE7FEE7DB
:1001E000FEE7FEE7FEE7FEE7FEE7FEE70448054917
:1001F000054A064B70470000732A0008ED0000080E
:100200007011002070170020701300207013002060
:1002100040EA0103024630B59B0710D14FF001348C
:1002200000E008C208C91D1B9D4315EAC41FF8D091
:1002300013F0FF0102F8011B0DD01B0AF8E711F8BB
:10024000013B002B02F8013B05D011F8013B002BCC
:1002500002F8013BF3D130BD032A40F2308010F0A8
:10026000030C00F0158011F8013BBCF1020F624451
:1002700098BF11F801CB00F8013B38BF11F8013BE2
:10028000A2F1040298BF00F801CB38BF00F8013B8F
:1002900011F0030300F02580083AC0F0088051F8FF
:1002A000043B083A51F804CBA0E80810F5E7121D0A
:1002B0005CBF51F8043B40F8043BAFF30080D20729
:1002C00024BF11F8013B11F801CB48BF11F8012BF5
:1002D00024BF00F8013B00F801CB48BF00F8012B18
:1002E000704710B5203AC0F00B80B1E81850203AA2
:1002F000A0E81850B1E81850A0E81850BFF4F5AFC6
:100300005FEA027C24BFB1E81850A0E8185044BF4F
:1003100018C918C0BDE810405FEA827C24BF51F8BC
:10032000043B40F8043B08BF7047D20728BF31F8B0
:10033000023B48BF11F8012B28BF20F8023B48BF01
:1003400000F8012B70474FF0000200B513469446A9
:100350009646203922BFA0E80C50A0E80C50B1F11D
:100360002001BFF4F7AF090728BFA0E80C5048BF31
:100370000CC05DF804EB890028BF40F8042B08BFCF
:10038000704748BF20F8022B11F0804F18BF00F8CB
:10039000012B7047704770477047754600F02CF886
:1003A000AE4605006946534620F00700854618B062
:1003B00020B5FFF71BFFBDE820404FF000064FF0CF
:1003C00000074FF000084FF0000B21F00701AC468A
:1003D000ACE8C009ACE8C009ACE8C009ACE8C009A9
:1003E0008D46704710B50446AFF300802046BDE847
:1003F0001040FFF7E6BE00000048704710110020D3
:1004000001491820ABBEFEE726000200704700003D
:1004100070B5044600688168C943C90717D181686F
:1004200021F00101816000F00BFF05460AE000BFEA
:1004300000F006FF401B022804D920688068C043F2
:10044000C00706D020688068C043C007F0D00020F5
:1004500070BDA06A40F01000A062E06A40F00100A8
:10046000E062012070BD10B50146406A826A12F058
:10047000500F05D0006A026BBDE8104008461047D7
:10048000816A41F40071816201688968C1F3424167
:1004900007290CD1017B51B9816A21F480718162F5
:1004A000816AC90403D4816A41F00101816200F0CC
:1004B00029FB10BD10B5406A816A41F0400181629C
:1004C000C16A41F00401C16200F01EFB10BD10B50D
:1004D000406A00F018FB10BDF8B5002604460096EF
:1004E00000688168C943C9072DD0816841F00101C6
:1004F0008160164816490068B0FBF1F000E0401E2C
:1005000000900028FBD100F09BFE054616E000BFDE
:1005100000F096FE401B022810D920688068C04376
:10052000C0070BD0A06A40F01000A062E06A40F063
:100530000100E06284F824600120F8BD2068806832
:10054000C043C007E4D10020F8BD000040000020F7
:1005500040420F0010B5154C207930B100F070FE0C
:10056000A168401AE1688842F6D3607930B100F0A2
:1005700067FEA168401AE1688842F6D3A07930B1DD
:1005800000F05EFEA168401AE1688842F6D3E07987
:1005900030B100F055FEA168401AE1688842F6D3F8
:1005A00000206071A0712071E07110BD200000205A
:1005B00070B5294D044655F8240003F0F6F955F8B6
:1005C000240002F0D7FB55F8240003F01FF9234A5A
:1005D00055F82400511E02F093FE204A55F82400DD
:1005E000921E02F1140102F08EFE55F82400012142
:1005F00002F030FF55F824000122002102F0D8FF5C
:10060000012255F82400114602F0D2FF55F82400CB
:100610004FF48042012103F00CF855F824004FF408
:100620000012002103F005F855F8240044F620617B
:1006300003F027F855F824001222002103F07AF87D
:1006400055F824000E22012103F074F855F8240017
:10065000BDE8704003F070B85C0F0020020000207D
:1006600070B54B4E06F6B4343146206802F046FDB4
:10067000308940F2C575A0F10B01A94209D205F0FD
:10068000EFF80146A4F65C4002F088F905F0C8F8DE
:1006900030813F4E60681C36314602F02FFD3089B4
:1006A000A0F10B01A94209D205F0DAF80146A6F142
:1006B000AC0002F073F905F0B3F83081344EA06855
:1006C0003836314602F01AFD3089A0F10B01A942FB
:1006D00009D205F0C5F80146A6F1B00002F05EF9B6
:1006E00005F09EF830812A4EE0685436314602F01B
:1006F00005FD3089A0F10B01A94209D205F0B0F83F
:100700000146A6F1B40002F049F905F089F83081FC
:100710001F4E20697036314602F0F0FC3089A0F19E
:100720000B01A94209D205F09BF80146A6F1B800D9
:1007300002F034F905F074F83081154E60698C369A
:10074000314602F0DBFC3089A0F10B01A94209D24D
:1007500005F086F80146A6F1BC0002F01FF905F08D
:100760005FF830810A4EA069A836314602F0C6FC17
:100770003089A0F10B01A94209D205F071F80146B8
:10078000A6F1C00002F00AF905F04AF8308170BD08
:10079000A80300202DE9F05FDFF8F0B14FF4807A74
:1007A0004FF0460800225146584600F043FD002213
:1007B0002021584600F03EFD00224FF400417448CD
:1007C00000F038FD4FF4007900224946584600F009
:1007D00031FD002249466E4800F02CFD00224FF406
:1007E00080616B4800F026FD00224FF400616848EC
:1007F00000F020FD404600F0F5FB01224946644828
:1008000000F018FD404600F0EDFB6248624E00F536
:100810009664624D20615227C0F85C6180F8607177
:10082000297902F013FE2169287981F860010420FA
:10083000FFF7BEFE01222021584600F0FBFC404697
:1008400000F0D0FBA4F516606060C0F85C6180F831
:100850006071697802F0FAFD6168687881F860017A
:100860000120FFF7A5FE01224946584600F0E2FCB0
:10087000404600F0B7FBA4F5C860E060C0F85C61DA
:1008800080F86071E97802F0E1FDE168E87881F8CC
:1008900060010320FFF78CFE01225146584600F00C
:1008A000C9FC404600F09EFBA4F52F602060C0F814
:1008B0005C6180F86071297802F0C8FD21682878B1
:1008C00081F860010020FFF773FE0122D103304858
:1008D00000F0B0FC404600F085FBA4F5FA60A06093
:1008E000C0F85C6180F86071A97802F0AFFDA16882
:1008F000A87881F860010220FFF75AFE0122D10298
:10090000234800F097FC404600F06CFBA4F5C8704B
:10091000A061C0F85C6180F86071A97902F096FD71
:10092000A169A87981F860010620FFF741FE012244
:100930009102174800F07EFC404600F053FBA4F5FE
:1009400048706061C0F85C6180F86071697902F09C
:100950007DFD6169687981F860010520FFF728FE57
:100960000F4D104E104FDFF84480002404EB44007C
:1009700005EBC00033463A46414602F008F8641CD5
:10098000E4B2072CF2D3BDE8F09F0000000C014058
:1009900000080140AC0A0020A80F00201800002029
:1009A000000300206F12833A0AD7233C295C8F3D55
:1009B000FEE70000014800F005BA00008C1000209E
:1009C00030B590F840500124AC40C56B6C600468B1
:1009D00063604368102B036803D099600068C260AD
:1009E00030BD9A600068C16030BD7047012000F0E2
:1009F00025BB022000F022BB082000F01FBB102006
:100A000000F01CBB72B6FEE7F8B50024009490F825
:100A100024202546012A12D0012280F824204A6889
:100A20001F23072A0DD20668776B521E02EB820243
:100A300093409F430B6893401F43776319E0022064
:100A4000F8BD06680D2A0AD2376BD21F02EB82026C
:100A500093409F430B6893401F43376309E0F76A55
:100A60000D3A02EB820293409F430B6893401F4371
:100A7000F7620A68072306680A2A0AD3F7680A3A5F
:100A800002EB420293409F438B6893401F43F76001
:100A900008E0376902EB420293409F438B68934022
:100AA0001F4337610A68102A01D0112A20D1124B46
:100AB00002689A4217D193681B0219D4936843F4D1
:100AC000000393600968102912D10C490C4A096887
:100AD000B1FBF2F101EB8101490000E0491E0091F8
:100AE0000029FBD104E0816A41F0200181620124E8
:100AF00080F824502046F8BD00240140400000202A
:100B000040420F0070477047704700002DE9F041E8
:100B10004FF0000704003D467ED0A06A002628B9A9
:100B2000E66284F82460204600F07EF82046FFF755
:100B30006FFCA16AC90600D420B1A06A40F0100081
:100B4000A06269E0A16A21F4885141F00201A1622A
:100B50006268E169237B0A4347EA43010A43A168CB
:100B60004FF48077B94209D0012907D05FF0000126
:100B700094F814C0BCF1010F02D00AE03946F7E73F
:100B8000F3B1A36A43F02003A362E36A43F00103D5
:100B9000E3622368D3F804C02CF4694C4CEA010CDE
:100BA000C3F804C021688B68DFF870C003EA0C0347
:100BB00013438B60A168B9420BD0012909D00CE026
:100BC000DFF85CC0A3690CEB43330B4343F40061D3
:100BD000DFE7218A0D05A5F580152168CB6A23F48E
:100BE00070032B43CB62216889680E4B19409142F8
:100BF00008D1E662A16A21F0020141F00101A1627F
:100C0000BDE8F081A06A20F0020040F01000A06270
:100C1000E06A40F00100E0620120F1E7FDF7E1FF4A
:100C200000E0FFFFFE0E1FFF70B586B000250646F0
:100C3000009501950295039500681A4988422ED1C6
:100C40001949886940F400708861886900F400706F
:100C50000490886940F0040088618869694600F062
:100C60000400049004200090032001900F4800F03D
:100C7000F1F9104C0E48C4E900058020C4E9025087
:100C800040002061800060612020C4E90605204604
:100C900000F042F908B1FFF7B5FE3462666206B0B3
:100CA00070BD000000240140001002400008014017
:100CB000080002408C1000202DE9F04789460446C8
:100CC0003B4900683B4F0E1D9046884201D0B84218
:100CD00007D1306810F4702F03D001252846BDE8F5
:100CE000F08794F8240001280CD0012084F8240017
:100CF0002046FFF7F1FB05004FF0000004D084F818
:100D00002400EBE70220EAE7A16A40F60162914382
:100D100041F48071A1622168B94218D1326812F49D
:100D2000702F14D0A16A41F48011A1623168490585
:100D300005D5A16A21F4005141F48051A162A16A54
:100D4000C9040AD5E16A21F00601E16206E0A26A5F
:100D500022F48012A2624968E9E7E06284F8240084
:100D6000216A15488862216A1448C862216A1448B9
:100D7000086321686FF0020008602068816841F410
:100D800080718160216843464A464C31206A00F0F8
:100D9000F1F820688168C1F342410729816803D0D6
:100DA00041F48011816099E741F4A001FAE7000065
:100DB000002401400028014067040008CF04000817
:100DC000B50400082DE9F05FC16B0C6801680B6881
:100DD000D0F840C0042202FA0CF2494DDFF824A1F9
:100DE000494E4A4FDFF828B1DFF828E122422CD0E3
:100DF0005A072AD50A68920603D40A6822F0040228
:100E00000A600168A94201D1042219E0514501D1CB
:100E1000402215E0B14202D14FF4806210E0B942A5
:100E200002D14FF480420BE0594502D14FF48022A9
:100E300006E0714502D14FF4800201E04FF080627C
:100E40002F4908394A60C16A3BE04FF0020808FAAE
:100E50000CF818EA040F4FF000094FF0010235D0EA
:100E60005FEA837832D50B689B0605D40B6823F0C4
:100E70000A030B6080F821200168A94201D10222F7
:100E800019E0514501D1202215E0B14202D14FF4C1
:100E9000007210E0B94202D14FF400520BE0594504
:100EA00002D14FF4003206E0714502D14FF4001236
:100EB00001E04FF00072124908394A6080F8209032
:100EC000816A00291AD0BDE8F05F0847082505FAB5
:100ED0000CF5254212D01B0710D50B6823F00E032A
:100EE0000B6090F84010C36B02FA01F15960826305
:100EF00080F8212080F82090016BE2E7BDE8F09FA8
:100F0000080002401C000240300002404400024041
:100F1000580002406C00024030B528B308C813499D
:100F200014221944B1FBF2F18900C16310498163B5
:100F3000022141771A6843F6F0718A43D0E9001420
:100F40002143D0E902452C432143046921434469EC
:100F50002143846921431143196000214163012227
:100F600042770177084630BD012030BDF8FFFDBF54
:100F70000000024070B5044690F8200000250128CA
:100F80000CD0012084F8200094F821600020012E6C
:100F900006D084F820000225284670BD022070BDCE
:100FA000022684F82160A0632068066826F0010606
:100FB00006602046FFF704FDE06A0028206801680B
:100FC00002D041F00E0106E021F00401016020682A
:100FD000016841F00A0101602068016841F00101E7
:100FE0000160D9E770B5044600F02AF90546601C97
:100FF00002D004480078044400F022F9401BA042CB
:10100000FAD370BD3400002000210B4A012808D01B
:10101000022809D010280AD008280BD1117004F03A
:1010200033B9517004F00EB9D17004F0C7B89170A3
:1010300004F0E6B87047000020000020044910B515
:101040000A68024202D00860FFF7DEFF10BD000010
:10105000140401402DE9F84FDFF8B8910024A9F1FC
:10106000040B23460F2709F1040AABF1040EC9E073
:101070000125A5402A40AA427DD1674ED1F804C07F
:10108000ACEB0608B44532D014DCBCF1030F3AD007
:1010900009DCBCF1000F2AD0BCF1010F1CD0BCF15F
:1010A000020F31D11DE0BCF1110F17D0BCF1120FAE
:1010B0002AD119E0B8F5881F19D006DCB8F5803FB1
:1010C00015D0B8F5801F1FD111E0B8F5001F0ED064
:1010D000B8F5041F18D10AE0CB6815E0CB681B1DDA
:1010E00012E0CB6808330FE0CB680C330CE08B6860
:1010F0002BB1012B4FF0080303D0456104E004231A
:1011000002E0056100E00023FF2A01D8064601E065
:1011100000F104064FEA840501D9A5F12005D6F8AF
:10112000008007FA05FC28EA0C0803FA05F548EAEE
:101130000508C6F800804D68ED0062D5374DAE69F0
:1011400046F00106AE61AD6924F0030605F0010525
:101150000095334D06EB050CDCF80850A607360F5A
:1011600007FA06F825EA0805DFF8B880404503D1FC
:101170004FF0000817E044E0DFF8AC80404502D1B2
:101180004FF001080FE0DFF8A480404502D14FF096
:10119000020808E0DFF89880404502D14FF00308CC
:1011A00001E04FF0040808FA06F848EA0508CCF810
:1011B00008804D68D9F80060ED024D4601D5164310
:1011C00000E096432E604D68DAF80060AD025546A7
:1011D00001D5164300E096432E604D68DBF80060B1
:1011E000AD035D4601D5164300E096432E604D6881
:1011F000DEF80060ED03754601D5164300E0964326
:101200002E60641C0D682A46E5407FF431AFBDE8CE
:10121000F88F000008040140000011100010024087
:101220000000014000080140000C01400010014096
:10123000001401400AB1016170470904FBE7000096
:1012400001488068704700003400002070B5040039
:1012500025D094F83D00002520B984F83C50204664
:1012600000F076FA242084F83D002068016821F01F
:10127000010101602068016841F4004101602068BB
:10128000016821F40041016000F034FC4D4A6168BE
:10129000914201D84C4900E04C49884201D20120DA
:1012A00070BD4B492368B0FBF1F15E6826F03F0644
:1012B0000E435E606368934206D94FF496735943B8
:1012C0004FF47A73B1FBF3F12368491C1E6A26F0D0
:1012D0003F06314319626168914210D84900401EAF
:1012E000B0FBF1F2521CC2F30B02042A01D204201B
:1012F00022E0B0FBF1F0401CC0F30B001CE0A26840
:10130000F2B301EBC10303EB0116431EB3FBF6F38B
:101310005B1C43F480431B0549D092B301EBC1022F
:1013200002EB0111401EB0FBF1F0401CC0F30B00BA
:1013300040F4804040F400402168CA694CF6FF73D5
:101340009A431043C861D4E907100143206802683A
:1013500022F0C00211430160D4E903010143206877
:10136000826848F2FF339A4311438160D4E9050152
:1013700008432168CA6822F0FF021043C86001E0F8
:101380000EE016E02068016841F00101016025646B
:10139000202084F83D00256384F83E50002070BD75
:1013A00001EB4106431EB3FBF6F35B1CB3E70120E0
:1013B000C2E701EB4101401EB0FBF1F0401CC0F35D
:1013C0000B00B7E7A086010080841E0000093D00E5
:1013D00040420F002DE9F84F0025DDF8289098468F
:1013E00017468A4604460095FFF72AFF064694F8FA
:1013F0003D0020287AD119230122864920460096F3
:1014000001F074F80028F5D194F83C0001286DD063
:10141000012084F83C0020680168C90703D10168F5
:1014200041F0010101602068016821F40061016060
:10143000222084F83D00102084F83E002564676275
:10144000A4F82A80608D20857348E06233464A46BE
:101450005146204600F05AFF00287CD1208DDFF84D
:10146000BC81202768B1012814D0022820680168B7
:101470001ED041F48061016020684169806900905C
:10148000BBE02068416981690091016841F4007105
:101490000160B2E02068016821F48061016072B6E9
:1014A0002068416981690091016841F400710AE096
:1014B00041F40061016072B6206841698169009160
:1014C000016821F48061016062B696E0032865D866
:1014D00001280CD002284B464FF00002414620461E
:1014E00000960BD001F002F8A8BB0CE090E0324669
:1014F0004946204601F0A0F868BB71E000F0F6FF15
:1015000048BB72B633E02068016821F48061016055
:1015100072B620680069616A0870606A401C606287
:10152000208D401E2085608D401E60853C4846F21F
:10153000A8110068B0FBF1F0C0EBC00000EB800028
:101540000090401E009007D020684069C0434007CB
:101550000DD50098F5E727E044F8305F6773A57371
:10156000206940F02000206162B625731CE02068ED
:10157000016841F40071016020680069616A0870C7
:10158000606A401C6062218D491E2185618D491E63
:10159000618562B621680969017025E032464946D5
:1015A000204601F049F810B10120BDE8F88F20680D
:1015B0000069616A0870606A401C6062208D401E8C
:1015C00081B22185608D401E608520684269D243CA
:1015D000520712D4032903D1016821F4806101600C
:1015E00020680069616A0870606A401C6062208D32
:1015F000401E2085608D401E6085208D00287FF470
:1016000065AF84F83D7084F83E5084F83C50CCE7D8
:101610000220CAE7020010000000FFFF04000100E2
:10162000400000202DE9F84F1F4690468A460446A8
:10163000DDF82890FFF704FE054694F83D002028C9
:101640007FD11923012240492046009500F04EFF2A
:10165000002876D194F83C00012872D0012084F84B
:101660003C0020680168C90703D1016841F001010D
:1016700001602068016821F400610160212084F884
:101680003D00102084F83E0000262664C4F8248023
:101690006785608D20852D48E0622B464A4651467D
:1016A000204600F0A9FE90B9206841698069009049
:1016B00036E02A464946204600F0F6FF50B1206C3D
:1016C000042804D12068016841F400710160012000
:1016D000BDE8F88F606A216800780861606A401C84
:1016E0006062618D491E6185218D491E89B2218507
:1016F00022685369DB435B070BD451B1007810615A
:10170000606A401C6062608D401E6085208D401EB6
:1017100020852A464946204600F0BCFE0028CED14E
:10172000208D0028C5D154F83D0B016841F40071AB
:101730000160202004F81E09E67766770020C7E7DD
:10174000FFE70220C4E70000020010000000FFFFD6
:1017500010B586B0002100910191029103910068BB
:101760000F4988421AD10F4CA06940F00800A061CF
:10177000A069694600F008000490C0200090122083
:101780000190032003900848FFF764FCE06940F4EF
:101790000010E061E06900F40010049006B010BD94
:1017A0000054004000100240000C014002488168D3
:1017B000027811448160704734000020074810B55A
:1017C000016841F010010160032000F075F800206D
:1017D00000F006F800F024F8002010BD00200240C0
:1017E00070B50D4D04464FF47A712878B1FBF0F0D6
:1017F0000A490968B1FBF0F000F042FB48B9102C2F
:1018000007D200222146501E00F036F800206C60FE
:1018100070BD012070BD0000340000204000002099
:101820000C4808B5816941F001018161816901F0CD
:1018300001010091C16941F08051C161C06900F0AE
:10184000805000900448416821F0E06141F000714F
:10185000416008BD0010024000000140002809DB83
:1018600000F01F02012191404009800000F1E020BA
:10187000C0F8001170470000F0B40E4B1B680C4616
:10188000C3F30223C3F10705042D00D90425191D54
:10189000072901D2002300E0DB1E012606FA05F12C
:1018A000491E214099409E40761E16403143F0BCAF
:1018B00003F069BB0CED00E0064900F00702086880
:1018C0004FF6FF03184040EA0220034A1043086025
:1018D000704700000CED00E00000FA052DE9F84328
:1018E00005460078354CC00754D0E0690026C0009A
:1018F00008D4E06940F08050E061E069012600F022
:10190000805000902E480168C90512D401688046B5
:1019100041F480710160FFF793FC074605E000BFCA
:10192000FFF78EFCC01B642823D8D8F80000C00540
:10193000F6D5206A10F4407021D0A98801F44071D6
:1019400081421CD0206A1F49012220F440700A60A5
:1019500000220A602062C00711D0FFF771FC074621
:1019600041F2883808E000BFFFF76AFCC11B41451F
:1019700002D90320BDE8F883206A8007F4D5206AE5
:10198000696820F44070084320621EB1E06920F0CD
:101990008050E0612878800705D56068A96820F448
:1019A0004040084360602878C00605D56068E96853
:1019B00020F48000084360600020DBE70010024054
:1019C00000700040400442422DE9F0470F460500F8
:1019D00061D0434E306800F00700B84209D2306849
:1019E00020F0070038433060306800F00700B8424C
:1019F00051D128683B4C810712D5400703D5606858
:101A000040F4E06060602878000703D5606840F427
:101A1000605060606068A96820F0F0000843606072
:101A20002878C00728D06868012810D021680228CB
:101A300010D0890700292EDA616821F003010143E3
:101A40006160FFF7FDFB804641F288390DE02168B7
:101A50008903EFE78901EDE7FFF7F2FBA0EB08014F
:101A6000494502D90320BDE8F0876068696800F045
:101A70000C00B0EB810FEFD1306800F00700B842E6
:101A80000BD9306820F0070038433060306800F030
:101A90000700B84201D00120E5E72878400705D5C6
:101AA0006068E96820F4E060084360602878000717
:101AB00006D56068296920F4605040EAC100606082
:101AC00000F028F86168084AC1F30311515CC8406E
:101AD0000649086006480068FFF782FE0020C2E75A
:101AE00000200240001002401C5B00084000002063
:101AF000380000200448054900684968044AC1F3D9
:101B00000221515CC8407047400000200010024094
:101B10002C5B00080E4A51680E4801F00C03042BA0
:101B200011D0082B0FD10C48C1F38343C903C05C0B
:101B30000AD55168084AC1F34041921E515C054ADA
:101B40005043B0FBF1F07047044948437047000030
:101B50000010024000127A000C5B000800093D00F2
:101B60002DE9F84F040070D02078C04DC00749D04F
:101B70006868C0F38100012807D06868C0F381005D
:101B8000022809D16868C00306D52868800339D5C2
:101B900060680028E7D035E06068B0F5803F0BD082
:101BA00010B1B0F5A02F11D0286820F48030286043
:101BB000286820F4802002E0286840F48030286003
:101BC000606890B1FFF73CFB06460AE0286840F4E5
:101BD00080202860F0E700BFFFF732FB801B6428FD
:101BE00073D828688003F7D50CE0FFF729FB064679
:101BF00005E000BFFFF724FB801B6428F0D82868AD
:101C00008003F7D420789A4E80074FF001094FF0F7
:101C1000000839D5686810F00C0F07D06868C0F369
:101C20008100022809D16868C00306D428688007AB
:101C300014D52069012808D110E02069B0B1C6F898
:101C40000090FFF7FDFA074605E00AE1FFF7F8FA12
:101C5000C01B0228C4D828688007F7D528686169A6
:101C600020F0F80040EAC10028600DE0C6F80080CE
:101C7000FFF7E6FA074604E0FFF7E2FAC01B022886
:101C800023D828688007F7D4207800072CD5794816
:101C9000A169D9B1C0F80090FFF7D2FA074604E075
:101CA000FFF7CEFAC01B02280FD8686A8007F7D565
:101CB00071484FF4FA510068B0FBF1F0009000BF9A
:101CC0000098411E0091FAD20EE080E0C0F800803A
:101CD000FFF7B6FA074604E0FFF7B2FAC01B022886
:101CE00075D8686A8007F7D42078400760D5E8691E
:101CF0000027C00008D4E86940F08050E861E86936
:101D0000012700F0805000905C480168C90513D499
:101D10000168834641F480710160FFF791FA8246C1
:101D200006E000BFFFF78CFAA0EB0A0064284ED84B
:101D3000DBF80000C005F5D5E06801280AD008B13D
:101D4000052813D0286A20F001002862286A20F0B4
:101D5000040002E0286A40F001002862E06841F2D5
:101D6000883B98B1FFF76CFA82460BE0286A40F096
:101D700004002862EEE700BFFFF762FAA0EB0A0159
:101D800059455AD8286A8007F6D50CE0FFF758FA6B
:101D9000824605E0FFF754FAA0EB0A0159454CD8FA
:101DA000286A8007F6D41FB1E86920F08050E86106
:101DB000E06988B36968C1F38101022944D002282F
:101DC000C6F8608004D0FFF73BFA044638E034E000
:101DD000FFF736FA074604E0FFF732FAC01B022885
:101DE0002BD828688001F7D4206AB0F5803F05D150
:101DF0006868A16820F4003008436860D4E90801ED
:101E00000843696821F4741108436860C6F860905B
:101E1000FFF716FA044606E025E000BFFFF710FAC8
:101E2000001B022809D828688001F7D51BE000BFF5
:101E3000FFF706FA001B022802D90320BDE8F88F3D
:101E400028688001F4D40EE00128F7D06868226A7F
:101E500000F48031914204D1616A00F4701088422C
:101E600001D00120EAE70020E8E70000001002406E
:101E700000004242800442424000002000700040C6
:101E800010B5401EB0F1807F01D3012010BD4FF08E
:101E9000E02460610F21601703F075F80020A06155
:101EA00007202061002010BD70B590F83C20012A69
:101EB00026D0012480F83C40022280F83D200368AF
:101EC0005A689D6822F070060A6832435A600D4BCA
:101ED00002689A4208D0B2F1804F05D00A4B9A426C
:101EE00002D00A4B9A4204D1496825F08003194375
:101EF000916080F83D40002180F83C10084670BD9C
:101F0000022070BD002C0140000400400008004089
:101F100010B5040003D094F83D0010B107E0012093
:101F200010BD002084F83C00204600F01FF802207D
:101F300084F83D00211D206800F09CFD012084F8FC
:101F4000460084F83E0084F83F0084F8400084F89E
:101F5000410084F8420084F8430084F8440084F887
:101F6000450084F83D00002010BD000008B5006861
:101F70000649884208D10648816941F400618161BF
:101F8000806900F40060009008BD0000002C014052
:101F90000010024070B5044690F83C00002501286E
:101FA00017D0012684F83C60022084F83D002068A8
:101FB000826822F0770222F47F428260086850280B
:101FC00038D00DDC20284FD005DC90B3102811D17B
:101FD0004AE0022070BD302846D040280AD13BE0BC
:101FE00060282FD070280DD0B0F5805F03D0B0F5F9
:101FF000005F12D0012584F83D60002084F83C0089
:10200000284670BDCB68D1E90121206800F075FD3C
:102010002068816841F0770109E0CB68D1E90121AE
:10202000206800F06AFD2068816841F48041816089
:10203000E1E719E0CA684968206800F013FE502102
:10204000206806E0CA684968206800F01CFE60212C
:10205000206800F05CFDCEE7CA684968206800F09F
:1020600001FE40212068F4E7226801461046F0E7AF
:1020700010B586B000210091019102910391006892
:10208000B0F1804F2BD11748816941F00401816183
:10209000816901F004010491816941F008018161C5
:1020A0008069022400F0080004900320CDE90004B8
:1020B00069460D480394FEF7CDFF4FF44060CDE92B
:1020C0000004694609480394FEF7C4FF08484168C4
:1020D00021F4407141F0E06141F40071416006B0CB
:1020E00010BD00000010024000080140000C01403B
:1020F0000000014070B5044690F83C0000260D46F3
:1021000001280FD0012084F83C006AB1042A1DD0B8
:10211000082A2FD00C2A3FD00126002084F83C004A
:10212000304670BD022070BD206800F0F9FC2068C8
:10213000816941F0080181612068816921F0040111
:102140008161206881692A69114311E0206800F0EB
:102150000FFD2068816941F4006181612068816917
:1021600021F480618161206881692A6941EA022144
:102170008161D2E7206800F027FD2068C16941F045
:102180000801C1612068C16921F00401C1612068B2
:10219000C1692A69114311E0206800F041FD2068FF
:1021A000C16941F40061C1612068C16921F48061A5
:1021B000C1612068C1692A6941EA0221C161ACE7B5
:1021C00010B5040003D094F83D0010B107E00120E1
:1021D00010BD002084F83C00204600F01FF80220CB
:1021E00084F83D00211D206800F044FC012084F8A3
:1021F000460084F83E0084F83F0084F8400084F8EC
:10220000410084F8420084F8430084F8440084F8D4
:10221000450084F83D00002010BD000008B50068AE
:10222000B0F1804F08D10548C16941F00101C16199
:10223000C06900F00100009008BD000000100240DD
:1022400010B50446022249B104290ED0082913D042
:1022500094F84100012816D0012010BD94F83E00EA
:102260000128F9D184F83E200FE094F83F000128BE
:10227000F2D184F83F2008E094F840000128EBD127
:1022800084F8402001E084F841200122206800F019
:1022900027FC0F492068884203D1426C42F4004277
:1022A00042642068884208D0B0F1804F05D00949C7
:1022B000884202D00849884204D1816801F00701B0
:1022C000062903D0016841F001010160002010BD22
:1022D000002C01400004004000080040FEE70168B7
:1022E0004A69D24352050FD46FF480624A610021DB
:1022F00040F8301F202242738173026942F00402C9
:102300000261017301207047002070472DE9F84FEA
:102310000446C06A1E4693460D4621680A6842F488
:1023200080620A60082807D0012805D010F5803F98
:1023300002D0206B112804D12068016841F480711B
:1023400001604FF001195B46002249462046009685
:1023500000F0CCF84FF4007840B120680068C00568
:1023600001D5C4F840800320BDE8F88F2069DFF86C
:1023700084A0B0F5804F0FD00620216800EAD51761
:1023800047F0F000086133465A460AF1060120463C
:1023900000F0F4F858BB03E0E8B240F001001CE0A4
:1023A0002168E8B2086133465A465146204600F09B
:1023B000E5F8E0B92068416981690091016841F45C
:1023C000807101605B46002249462046009600F07D
:1023D0008DF80028C1D147F0F1002168086133462B
:1023E0005A465146204600F0C9F80028BCD00120CA
:1023F000BAE7000002000100F8B50446C06A1E46B4
:102400000D461746082807D0012805D010F5803F53
:1024100002D0206B122804D12068016841F4807139
:102420000160134600224FF001112046009600F093
:102430005DF840B120680068C00502D54FF4007017
:1024400020640320F8BD2069B0F5804F0ED006202F
:10245000216800EAD51040F0F000086133463A46A2
:102460000B49204600F08AF878B902E005F0FE003A
:1024700000E0E8B221680861054933463A46891F01
:10248000204600F07BF80028DCD00120F8BD0000D9
:102490000800010070B516460D4604461EE02046B1
:1024A000FFF71DFF08B1012070BD681C16D0FEF7B4
:1024B000C7FE801BA84200D885B920684069C04388
:1024C00040070BD5002044F8300F20216173A07322
:1024D000216941F0200121612073E4E7206840690F
:1024E000C0434007DBD4002070BD00002DE9F04759
:1024F000984617460D460446C1F30746DDF820907E
:102500002AE000BFB8F1FF3F26D0FEF799FEA0EB0E
:102510000901414502D8B8F1000F1DD12068012EF4
:1025200016D0806925EA00000004000C12D00020BB
:10253000B84211D1002044F8300F20216173A073FC
:10254000216941F02001216120730120BDE8F0875D
:102550004069E7E70120EBE72068012E0AD0806997
:1025600025EA00000004000C06D00020B842C9D0C3
:102570000020EBE74069F3E70120F7E72DE9F0479A
:10258000984616460D4604464FF000094FF0200AC3
:10259000C1F3074723E020684069C043400515D4D4
:1025A0002068016841F40071016021686FF4806067
:1025B0004861C4F8309084F83DA084F83E90216CC6
:1025C00041F00401216484F83C9021E0701C06D0A5
:1025D000FEF736FEA0EB0800B04203D816B1012F7B
:1025E0001FD021E02068012F15D0806925EA000066
:1025F0000004000C18D000BF44F8309F84F80DA0F0
:1026000084F80E90216941F02001216184F80C903A
:102610000120BDE8F087406925EA00000004000CB5
:10262000EAD12068406901E02068806925EA00005D
:102630000004000CAFD1ECE72DE9F04100259046F5
:102640000E460446202728E04069C043C0060CD44B
:1026500054F8301B6FF01000486144F81059677748
:10266000A577206A2062257714E0FEF7E9FDA0EB4C
:102670000800B04200D886B920684069C0434006CF
:102680000BD544F8305F6773A573206940F02000D4
:10269000206125730120BDE8F08120684169C943AC
:1026A0004906D1D40020F6E770B516460D4604461B
:1026B0001EE02046FFF713FE08B1012070BD681C24
:1026C00016D0FEF7BDFD801BA84200D885B9206852
:1026D0004069C04300060BD5002044F8300F20218C
:1026E0006173A073216941F0200121612073E4E747
:1026F00020684069C0430006DBD4002070BD0000A4
:102700003EB500211148009101910F4A02910260EB
:1027100001248160047301754FF460220461C26179
:102720004160FEF7F3F908B172B6FEE70220CDE989
:1027300000040720029069460448FEF765F9002866
:1027400001D072B6FEE73EBD00240140780F0020A4
:102750002DE9F04385B000243A4800940194029496
:102760000394816941F020018161816901F02001B8
:102770000491816941F004018161816901F00401E2
:102780000491816941F0080181618069DFF8B880B6
:1027900000F0080048F620650490002229464046D3
:1027A000FEF748FDDFF8A4904FF448770022394641
:1027B0004846FEF73FFD0095022601250396CDE928
:1027C000015469464046FEF745FC1B200090204816
:1027D000CDE9010569464846FEF73CFC2802009019
:1027E0000320019069464046FEF734FC00970396AB
:1027F000CDE9015469464846FEF72CFC0022012130
:102800000620FFF739F80620FFF728F800220121FB
:102810000720FFF731F80720FFF720F800220121F9
:102820000920FFF729F80920FFF718F800220121F5
:102830000A20FFF721F80A20FFF710F805B0BDE8DD
:10284000F08300000010024000080140000C01402D
:102850000000211010B586B00024174800940194A0
:102860000294039404941349059401604F21C0E934
:10287000011440F2E731C0E9031444618461FFF7B9
:1028800047FB08B172B6FEE74FF4805000906946EE
:102890000948FFF77FFB08B172B6FEE7049404A96C
:1028A00005480594FFF700FB002801D072B6FEE74B
:1028B00006B010BD002C0140FC0F002010B58AB0FE
:1028C000002407941C2168460894FDF73CFD22482B
:1028D0004FF0804101604F21C0E9011440F2E7311F
:1028E000C0E903148461FFF76BFC08B172B6FEE720
:1028F000079407A918480894FFF7D6FA08B172B6EA
:10290000FEE76020CDE900040294002269461248E7
:102910000494FFF7EFFB08B172B6FEE704226946A4
:102920000D48FFF7E7FB08B172B6FEE708226946DB
:102930000948FFF7DFFB08B172B6FEE70C226946D3
:102940000548FFF7D7FB08B172B6FEE70248FFF76C
:102950008FFB0AB010BD000044100020FEE7FEE728
:1029600010B50368D86A6424B0FBF4F0504380B219
:1029700029B1042905D0082905D0186410BD586371
:1029800010BD986310BDD86310BD7047704780E8D4
:102990000E000021C1600161416170472DE9F041E5
:1029A00004460D46D4E90017384602F015FE0146EC
:1029B000384602F073FE606126698046314628463B
:1029C00003F02EF8414602F05FFF314602F004FEAC
:1029D0000546E0602946304603F022F820F000402A
:1029E000A16802F051FF064641464FF07E5003F0C9
:1029F00017F8394602F048FF314602F0EDFD256137
:102A000060602846BDE8F081FEF7D0BE30B593B0D7
:102A100028216846FDF797FC14210AA8FDF793FCCE
:102A2000002401250F9410942804CDE9005011943E
:102A3000129407946846FFF793F808B172B6FEE760
:102A40000F200A90CDE90B540D9400210AA80E9492
:102A5000FEF7BAFF08B172B6FEE702200F9011949C
:102A60000FA8FEF73BFF002801D072B6FEE713B0B7
:102A700030BD7047F0B50268164B174C174D4FF03C
:102A80008047984205D0B84203D0A04201D0A84266
:102A900003D122F070064A683243984205D0B8420A
:102AA00003D0A04201D0A84203D122F44074CA68E6
:102AB00022434C6922F08002224302608A68C2628B
:102AC0000A688262984201D109690163012141616A
:102AD000F0BD0000002C0140000400400008004050
:102AE00010B501F01F030121046A99408C43046270
:102AF000016A9A401143016210BD10B5846842EA30
:102B0000032224F47F440A432243826010BD82687A
:102B100022F070020A4342F0070181607047000012
:102B200030B5036A026A22F00102026242688469D7
:102B300024F073050C682C4323F002058B682B43AB
:102B40000A4DA8420BD123F00805CB6822F440724D
:102B50002B434D6923F0040315438A692A434260DD
:102B6000846149684163036230BD0000002C01406C
:102B700030B5026A036A23F0100303624368846974
:102B80000D6824F4E64444EA05248D6822F020020E
:102B900042EA05120B4DA8420ED1CD6822F0800208
:102BA00042EA05124D6923F4406343EA85038D69C7
:102BB00022F0400243EA85034360846149688163EF
:102BC000026230BD002C014030B5036A026A22F473
:102BD000807202624268C46923F4007324F07305B2
:102BE0000C682C438D6843EA05230C4DA8420ED196
:102BF000CD6823F4006343EA05234D6922F4405273
:102C000042EA05128D6923F4806342EA05124260AC
:102C1000C4614968C163036230BD0000002C0140FB
:102C200030B5046A026A22F4805202624268C369C3
:102C30000D6823F4E64343EA05238D6824F4005429
:102C400044EA0534064DA84204D14D6922F480427D
:102C500042EA85124260C36149680164046230BD82
:102C6000002C014010B5036A046A24F001040462D8
:102C7000846924F0F00444EA021423F00A020A43AF
:102C80008461026210BD10B5036A046A24F0100466
:102C90000462846923F0A00324F4704444EA0232FD
:102CA00043EA01118261016210BDFEE77CB5044672
:102CB000002094F8DA200D46012A03D0022A01D020
:102CC000032A14D101AB6A460121204600F091F994
:102CD000009A4FF47F018A4202D8019A8A4206D9AB
:102CE000002804D125B10F49204601F0E5FC7CBD48
:102CF0000422FF21204600F05BFE054600227021E1
:102D0000204600F055FE05430022FF21204600F03A
:102D10004FFE054300228021204600F049FE284353
:102D20007CBD000037010020F8B5064600240122D2
:102D30000B21304600F03CFE074600220B213046B6
:102D400000F036FE40EA07056A461321304600F0DF
:102D50000EFB641C9DF800102843E4B2490704D020
:102D6000032C04D20028E2D0F8BD032CFCD36FF072
:102D70000B00F8BDF0B591B004460022882100F0A8
:102D800017FE002584F8F0504FF47A70A4F8520131
:102D90004FF4C870A4F854015748C4F85801574874
:102DA0002562C4F8D4006946204600F0A9F8060060
:102DB00009D18DF800508DF801504022694604F188
:102DC0001000FDF78EFA6420A4F834014FF461700E
:102DD000A4F836014FF4FA70A4F838014FF42060DB
:102DE000A4F83C01012784F850713A46802120461E
:102DF00000F0DEFD06430122FF21204600F0D8FD51
:102E0000064300221146204600F0D2FD064310AAD8
:102E10009121204600F0ABFA06439DF8400084F86B
:102E20003A0101220021204600F0C2FD06430022A3
:102E3000FF21204600F0BCFD0643002280212046F1
:102E400000F0B6FD30430026002852D1B1B2012275
:102E5000204600F0ADFB761C062EF5DB002848D19D
:102E600000220221204600F0A3FB002841D10022CD
:102E70000321204600F09CFB00283AD100220421C7
:102E8000204600F095FB002833D100220521204682
:102E900000F08EFB00282CD14FF490120021204628
:102EA00000F0C7FB002824D14FF4804201212046C6
:102EB00000F0BFFB00281CD14FF40C120221204669
:102EC00000F0B7FB002814D100220321204600F0B7
:102ED000B0FB00280DD1FF2084F83001024601210B
:102EE000204600F065FD84F83271002801D184F895
:102EF000155111B0F0BD0000856B0100A4700900F0
:102F000070B506460C46007C01F8080B304600F010
:102F100044F8002833D1207304F11001304600F04A
:102F2000D9F900282BD104F11401304600F0E4F85F
:102F3000002824D1002501E0002820D104EB8502DF
:102F4000A9B23046243200F07BF8002817D162196C
:102F5000A9B23046183200F066F86D1C062DEBDB86
:102F600000280CD104F13C01304600F098F900280B
:102F700005D1211D3046BDE8704000F0BBB870BDE2
:102F800010B50C460A46092100F0F1F9002803D1DA
:102F9000217801F00101217010BD3EB50C460546B7
:102FA00002AAF82100F01CFA00280ED16A4604217A
:102FB000284600F0F1F9002807D1BDF8081029B122
:102FC000009AB2FBF1F12160A9613EBD2168FBE7E7
:102FD00038B50C466A46132100F0C9F99DF8001077
:102FE00001F0070211F0180F226001D06FF0050008
:102FF00038BDF8B515461C4606466A460E2100F057
:10300000EFF9BDF800100905C9082960002809D1A9
:103010006A460C21304600F0E3F9BDF800100905BE
:10302000C9082160F8BD03460020062902D3001F0D
:10303000002102E0194491F8281011707047000037
:10304000F8B504460020154606292ED2DFE801F027
:103050000305191B1D1D646B25E06A4644212046AB
:1030600000F0BEF9002803D1BDF800104FEA412658
:1030700006D1EEB12E604FF00101A66384F829104D
:10308000F8BDE46B0FE0246C0DE06A464FF064017C
:10309000204600F0A5F9002804D100BFBDF80010BB
:1030A0004FEA4124ECD12C60F8BD6FF00300F8BD6D
:1030B000A16B29604FF00001E0E77CB50C4690F869
:1030C000DA100025012604290AD06A46142100F0EE
:1030D0004EF900280BD19DF80010C90706D007E073
:1030E00001A9FFF775FF0199042901D025707CBD66
:1030F00026707CBD01F01FB901F07FB9F0B58DB02D
:103100000C4605460C2302AA142100F087F906009C
:103110007ED10021A17521609DF813009DF8122039
:10312000616000EB02209DF80F209DF80E304FF4F7
:103130007A7E02EB03221204D209E2609DF811307C
:103140009DF8106080B203EB06231B04DB092361AA
:103150009DF80B309DF80A6003EB06239BB2A38217
:10316000B5F852619DF8087095F831C176451FD0C9
:10317000464306F5FA7696FBFEF02E8C95F81CE099
:1031800080B2B6B2BEF1000F12D05E43B2EB262F72
:1031900008D1BCF1000F02D042F2B82008E048F696
:1031A000E0200DE05043A2EB2626B0FBF6F080B203
:1031B000BCF1000F04D0810821818001E07501E09D
:1031C0002081E1750CA8CDE900403946284601F080
:1031D0002DF9060025D19DF83000207605F150012B
:1031E0001C220D4605A8FDF77CF82089ADF81C00CF
:1031F000E07D8DF82B006089ADF81E0060680690B8
:10320000E068089020690990A08AADF8280000E0E5
:1032100007E0207E8DF82C001C2205A92846FDF72A
:1032200060F80DB03046F0BD38B5054600200C46BC
:103230008DF800006A460121284600F098F8002821
:103240002AD123469DF800200021284602F022F9C9
:10325000002821D1A31C9DF800200121284602F05E
:1032600019F9002818D1631C9DF800200221284676
:1032700002F010F900280FD1E31C9DF80020032173
:10328000284602F007F9002806D1231D9DF80020EA
:103290000421284602F0FEF838BD01F0DFB938B548
:1032A0000C4605466A46012100F061F800280BD162
:1032B0009DF8001085F83011090601D5012100E0C4
:1032C0000021217085F84C1038BD02460020127F85
:1032D0000A70704738B50D4604466A46202100F052
:1032E0007FF8002807D1BDF8001029B1C900296076
:1032F00021620121217738BD216A29600021F9E787
:10330000012301F080BA01F09EBA70B5047C054635
:1033100014B900F011FA10B9284601F01FFA50EA6A
:10332000040102D1032185F8321170BD70B50C463D
:103330000546002100F08EF8002810D12846FFF73E
:10334000E4FF00280BD121462846FFF7D7FE0028CE
:1033500005D12846BDE870400021FFF7E5BC70BDEF
:1033600010B500240220FDF73DFE204610BDF7B544
:10337000164607460024012201A901F0F6FD6FF070
:10338000130528B901223146384601F0DEFD00B1AF
:103390002C462046FEBD0000F7B516460746002421
:1033A000012201A901F0E1FD6FF0130528B9042203
:1033B0000A49384601F0C9FD08B12C460BE0074820
:1033C000C178027801EB026142788078120402EB46
:1033D0000020084430602046FEBD0000D0100020D0
:1033E000F7B5164607460024012201A901F0BDFDEC
:1033F0006FF0130528B902220749384601F0A5FDF0
:1034000008B12C4605E004484178007801EB002023
:1034100030802046FEBD0000D01000202DE9FF4185
:1034200017461E4680460024012201A901F09DFD99
:103430006FF0130528B932463946404601F085FD44
:1034400000B12C4604B02046BDE8F0814A088A212C
:1034500000F0AEBA0246002003290BD003DC49B1CC
:10346000012904D106E0142904D0152902D06FF0F7
:10347000070070471174704770B51C46049E0546DE
:1034800011B16FF0090070BD142A08D0152A0FD0B1
:10349000052C6FD2DFE804F066686A6C6F002EB10D
:1034A0000122BDE87040842100F082BA1022F8E7C2
:1034B0000122FF2100F07CFA044600221146284632
:1034C00000F076FA04430022FF21284600F070FA4B
:1034D000044301228021284600F06AFA04430222B4
:1034E0008521284600F064FA04430422FF2128467F
:1034F00000F05EFA04430022CD21284600F058FA7D
:1035000004431122CC21284600F052FA044307223A
:10351000FF21284600F04CFA04430022BE21284631
:1035200000F046FA04430622FF21284600F040FA44
:1035300004430922CC21284600F03AFA0443002231
:10354000FF21284600F034FA04430122FF212846D7
:1035500000F02EFA044300221146284600F028FA13
:10356000204370BD002207E0012205E0022203E0B3
:10357000032201E017E004220A21284600F018FA8D
:103580000028EED196B11023EF228421284600F0C6
:10359000F7F90028E5D185F8DA402846BDE8704003
:1035A0000021FFF7C1BB6FF00A0070BD0023EBE7FD
:1035B0002DE9F041044600200D461646071F03463C
:1035C00001460246062D02D33846BDE8F08156B1C9
:1035D00004EB85014B6B0121062DF5D2DFE805F0E8
:1035E00005080F1215180122F6E784F8281017E0D5
:1035F000C3F34F224421204600F0ECF90EE084F89A
:103600002A100DE084F82B100AE05300FE2201E09E
:103610001301EF226021204600F0B2F90028D4D136
:10362000611926B15FF0010281F82820CDE7002260
:10363000FAE770B514460022431800EB810593F8B1
:103640002830DBB1C4F34F23062914D2DFE801F0A0
:103650000305080A0C0C446310E01A46442105E0F7
:10366000C4630BE0046409E01A46642100F0B2F977
:10367000020003D003E06FF0030200E06C63104629
:1036800070BD01F09EBA2DE9F84307460020904630
:103690000E468DF800006A4601213846FFF767FEA6
:1036A00005009DF8000004462ED1291FB8F1010F36
:1036B00006D0052E2CD2DFE806F0191C1F222500AB
:1036C000052E25D2DFE806F00306090C0F0044F0B2
:1036D000100419E044F0280416E044F0040413E058
:1036E00044F0400410E044F080040DE004F0EF04E6
:1036F0000AE004F0D70407E004F0FB0404E004F05F
:10370000BF0401E004F07F04844210D015B10EE044
:103710000D460CE022460121384600F049F905002B
:1037200005D187F8304138467969FFF7AAFF284666
:10373000BDE8F88301F0F9BAF8B501250646047C26
:103740002A46802100F034F90122FF21304600F0A2
:103750002FF900221146304600F02AF996F83A2156
:103760009121304600F024F901220021304600F07A
:103770001FF90022FF21304600F01AF900228021B3
:10378000304600F015F93CB10425012C26D0032C5D
:103790002FD06FF00700F8BD01220021304600F065
:1037A00007F98DF800500028F5D100244FF4FA678E
:1037B00005E024B16A4600213046FFF7D8FD9DF8A8
:1037C0000020641C25EA0201014304D0BC42E2D37C
:1037D0006FF00600F8BDBC42EBD3F9E718B9012140
:1037E0003046FFF763FA022209E000BF86F8325143
:1037F000F8BD18B901213046FFF758FA042200211C
:10380000304600F0D5F80028F0D0F8BD30B597B0BC
:103810000446402101A8FCF796FD00258DF8445090
:10382000ADF850508DF8545001212046169500F007
:10383000EEFA94F8142194F81311012A06D802D153
:10384000202903D808E03AB90C2905D915AA16A9E8
:10385000204600F0F8FF02E0204601F013FA474945
:1038600000287DD194F8500108B9D4F84C112046B5
:1038700000F022FF00287ED10022042311462046BA
:103880000095FFF7F9FD002875D10122FF212046A0
:1038900000F08EF8054614AA84212046FFF7A0FD0B
:1038A00005430022FF21204600F082F8284362D120
:1038B000BDF8500001A90001C4F8D4002046FFF76C
:1038C0001FFB002857D111A92046FFF759FB0028FC
:1038D00051D19DF8440084F83101402201A904F13E
:1038E0001000FCF7FEFC11AA01212046FFF73FFD66
:1038F000002840D19DF8440084F830010022114690
:103900002046FFF7C0FE002835D1002202212046C4
:10391000FFF7B9FE00282ED1032084F8320112AA45
:1039200000212046FFF7B9FC002824D19DF848006B
:1039300084F8E80012AA01212046FFF7AEFC002817
:1039400019D19DF8480084F8E00013AA032120460D
:1039500001F0BBFB00280ED1139813AA042100E04C
:1039600009E0C4F8E400204601F0AFFB002802D1D2
:103970001399C4F8DC1017B030BD000044000020DB
:10398000F8B515461C460E4607466A46FFF7EFFC9B
:10399000002809D19DF8002031462A4022438DF8A5
:1039A0000020384600F004F8F8BD6FF06200704760
:1039B000034610B5064800240170427001460222F9
:1039C000184601F0D2FA08B16FF01304204610BD7A
:1039D000D0100020034610B5074800240170110ADA
:1039E0004170827001460322184601F0BEFA08B108
:1039F0006FF01304204610BDD010002070B51C4697
:103A00000025134606463F2C01D9281F70BD0848E3
:103A1000224600F8011B1946FCF71EFC621C0449F3
:103A2000304601F0A2FA08B16FF01305284670BDC8
:103A3000D01000202DE9F047B0F854C1D0F858015B
:103A4000DDE90A860CFB00F58035DDE908972C0AD4
:103A50004FF0000A04FB0CF4554652B1880200EB0B
:103A60005200B0FBF2F000EB4000404300F5004094
:103A7000050C07F50040000C0622C01CB0FBF2F05C
:103A800003FB09F303F50043190C4943C0EBC000E5
:103A9000B0F5803F01D31C4808E0FF1CB7FBF2F0F3
:103AA000C0EBC00000F50040000C4043084400EBB0
:103AB0005800B0FBF8F08003FE227F30B0FBF2F03C
:103AC00068434FF47A7100F5FA70B0FBF1F0000131
:103AD00000F5FA70B0FBF1F7402004F12001B1FBD2
:103AE000F0F000F0D3FD054627B104EB5700B0FB22
:103AF000F7F000E0002000F0C9FD3560854200D9F4
:103B000030605046BDE8F0870000F0FF01EBC101D6
:103B100040F277600902A1FB000170472DE9FF4FD9
:103B200087B00446006A0690884608694FF47A71A7
:103B30004843000C0390D8F80C000590DFF8F8B16A
:103B40004FF4481604AA4146204600F062FD06AA3A
:103B50004146204600F06BFD81464FF47A7104988F
:103B6000069D484300F50040070C4D43B54200D97F
:103B70003546B9F1000074D1D4F8DC00019094F816
:103B8000E06001463246204600F0DCF88246D4F878
:103B9000E4000090014694F8E820204600F0D2F8B6
:103BA00001460320082E00D1022051444143C9029E
:103BB0004FF47A7001F5FA71B1FBF0F140F27762DF
:103BC000514301F5FA71B1FBF0FA04988030010A13
:103BD00001FB0AF08030060A080204900FB14EB1D2
:103BE00009E00999C1F800B0C4F840B10A98002171
:103BF00001609CE001264FF44870029003984F4901
:103C00000004B0FBF7F0884200D908464FF4167163
:103C100000FB01F906EB4600800000F037FD400094
:103C20000390B8F8081046486A424143380400EB54
:103C300042024FF47A7002F5FA72B2FBF0F24310CE
:103C400003EB0743B3FBF0F01202B2FBF0F00028E5
:103C500000DA404298F8182000021AB14FF480357B
:103C60000FE065E041F25C22B1FBF2F1C0F580307B
:103C7000484300F50040000C00F580304008404308
:103C8000850B4FF4487105FB01F000F50040010C75
:103C900009F50040000C49434043084400F0F6FC9D
:103CA000000464213230B0FBF1F10398B1FBF0F075
:103CB00040F6B531484341F2883108444900B0FB31
:103CC000F1F74FF47040874200D90746DDE9001054
:103CD00008444FF47A7800F5FA70B0FBF8F04FF42E
:103CE000C81101EB5001B1FBF0F000F0CFFC000275
:103CF00000F5FA70B0FBF8F07F434043384400F021
:103D0000C5FC414648430EB1584500D9584609996B
:103D10000860C4F840010A98029B03908DE80806E9
:103D2000DDE904122B462046FFF784FE8146484613
:103D30000BB0BDE8F08F0000AE878F0266666600AC
:103D40009A99060000B50B461146FFF7DFFE4FF4C7
:103D50007A7100F5FA70B0FBF1F04B4303EB5001C0
:103D6000B1FBF0F000BD00B50B461146FFF7CEFEEB
:103D70004FF47A7100F5FA70B0FBF1F0434303F5AC
:103D8000FA73B3FBF1F000BD0146C0B2090A8840E6
:103D9000401C70474000801CC0B27047F8B5064612
:103DA00000228321FFF704FE040011D100254FF407
:103DB000FA676A4683213046FFF7D9FA04469DF830
:103DC000000020430BD0BD4202D300BF6FF00604B9
:103DD000012283213046FFF7EBFD2043F8BD6D1C27
:103DE000BD42E6D3F2E70022114648B1401E02E090
:103DF0004008491C89B2020AFAD161F31F2082B23D
:103E000010467047FF2101EB5000C0B270472DE90A
:103E1000F04F95B0002504460E954FF4C8500F950D
:103E2000CDE90450129594F8F0600F46AB46AA46CF
:103E3000072E7ED0012280212046FFF7B9FD804663
:103E40000122FF212046FFF7B3FD40EA08050022CA
:103E500011462046FFF7ACFD40EA05080622FF2187
:103E60002046FFF7A5FD40EA080502AA8321204667
:103E7000FFF77DFA40EA05089DF80800832140F02D
:103E800004022046FFF794FD40EA08050722FF21BF
:103E90002046FFF78DFD40EA0508012281212046DA
:103EA000FFF786FD40EA08052046FFF759FA40EA89
:103EB0000508012280212046FFF77AFD40EA080527
:103EC000F80755D0F00753D16B2294212046FFF715
:103ED0006FFD40EA05082046FFF760FF40EA08054D
:103EE00001AA90212046FFF757FA40EA05080198F9
:103EF0002422C0F30621C0F3C03B12919421204636
:103F0000FFF756FD40EA08052046FFF747FF40EA65
:103F1000050801AA90212046FFF73EFA40EA08056D
:103F20000198010E8DF82C10010C8DF82D10010A4E
:103F300000E0FCE18DF82E108DF82F002522942151
:103F40002046FFF735FD40EA05082046FFF726FF2B
:103F500040EA080901AA90212046FFF71DFA40EA2D
:103F600009050198010E8DF83010000C8DF8310014
:103F7000B8077ED5B0077CD4022294212046FFF7F3
:103F800017FD40EA05082046FFF708FF40EA08054C
:103F900013AA90212046FFF7EAF940EA05087B22A0
:103FA00094212046FFF704FD40EA08052046FFF76C
:103FB000F5FE40EA050810AA90212046FFF7D7F940
:103FC00040EA0805772294212046FFF7F1FC40EAF9
:103FD00005082046FFF7E2FE40EA080501AA902105
:103FE0002046FFF7D9F940EA050801987822410EEA
:103FF0008DF81810C0F386418DF81910C0F3C62152
:104000008DF81A10C0F306110007400E8DF81B1032
:104010008DF8080094212046FFF7CAFC40EA080505
:104020002046FFF7BBFE40EA050801AA9021204682
:10403000FFF7B2F940EA08059DF80810019801EB76
:1040400050718DF81C10C0F386518DF81D10C0F30F
:10405000C6318DF81E10C0F306218DF81F10C0F375
:104060004601C007400E8DF820108DF80800792217
:1040700000E055E094212046FFF79AFC40EA05084D
:104080002046FFF78BFE40EA080501AA9021204652
:10409000FFF782F940EA05089DF8081001987A2296
:1040A00001EB90618DF82110C0F3C6418DF822100C
:1040B000C0F306318DF82310C0F34611C006400E40
:1040C0008DF824108DF8080094212046FFF770FC2D
:1040D00040EA08052046FFF761FE40EA050801AA0C
:1040E00090212046FFF758F940EA08059DF808108E
:1040F000019801EB90718DF82510C0F3C6518DF831
:104100002610C0F306418DF82710C0F346218DF824
:104110002810C0F386008DF8290000208DF82A00B1
:1041200078077ED570077CD47B2294212046FFF748
:104130003FFC40EA05082046FFF730FE40EA08054C
:104140000EAA90212046FFF727F940EA05087C22B5
:1041500094212046FFF72CFC40EA08092046FFF78F
:104160001DFE40EA09050FAA90212046FFF714F929
:1041700040EA0508732294212046FFF719FC40EA23
:1041800008052046FFF70AFE40EA050801AA90212B
:104190002046FFF701F940EA08050198742200065D
:1041A0004FEA104994212046FFF702FC40EA050837
:1041B0002046FFF7F3FD40EA080501AA90212046BA
:1041C000FFF7EAF8019940EA050849EA116004900E
:1041D000752294212046FFF7EBFB40EA08052046B4
:1041E000FFF7DCFD40EA050901AA90212046FFF710
:1041F000D3F840EA09080198762200064FEA1049F0
:1042000094212046FFF7D4FB40EA08052046FFF73B
:10421000C5FD40EA050801AA90212046FFF7BCF839
:1042200000E004E0019940EA080549EA116A002229
:1042300081212046FFF7BCFB40EA05080622FF214A
:104240002046FFF7B5FB40EA080502AA8321204675
:10425000FFF78DF840EA05089DF80800832100F07B
:10426000FB022046FFF7A4FB40EA08050122FF21DC
:104270002046FFF79DFB40EA050801220021204669
:10428000FFF796FB40EA08050022FF212046FFF7D2
:104290008FFB40EA0508002280212046FFF788FBBB
:1042A00050EA080543D1F8070FD0F0070DD1129856
:1042B00084F8130184F814B100200BA923180A5CB8
:1042C000401C83F82A210628F8DBB8070ED5B00772
:1042D0000CD49DF84C0084F8F1009DF8400084F85F
:1042E000F20004F1F30006A9FBF792FF780719D555
:1042F000700717D40E98C4F818010F98C4F81C0161
:1043000004984002C4F820010020BAF1000F08D040
:104310000599AAEB01004FF47A114843001440427A
:1043200000B2E0603E438DF8086084F8F06015B09C
:104330002846BDE8F08F30B585B005464FF4FA60E9
:1043400002900020039040F6363008600C46694623
:104350002846FEF769FF00284DD19DF8001029B9C5
:104360009DF8011011B99DF8021011B302AA0221A3
:10437000284600F0AAFE00283DD19DF8001029B182
:104380000299226801F24E21114421609DF8021029
:1043900031B10299226801F2B22102EB410107E03A
:1043A0009DF8011029B10299226801F52571114487
:1043B00021609DF8031061B103AA0321284600F093
:1043C00084FE0399226801F52571114421600028BB
:1043D00011D19DF8041061B104AA0421284600F00F
:1043E00074FE0499226801F22621114421600028FC
:1043F00001D12168696105B030BD38B50C4640F285
:10440000FF756A462821FEF7EBFF00280DD1BDF8A5
:104410000010C1F30B02ADF80020AA424FF0FA01E0
:1044200001DDA2F580524A43226038BD2DE9FF4FDD
:104430008BB04FF00009199D8DF800909A46064602
:10444000C8464F468DF804908DF808908DF80C9072
:10445000ADF81090C1F3C304CDF81490BCB1052C95
:1044600015D0072C13D00C2C11D00D2C0FD00E2CE6
:104470000DD00F2C0BD0002083466A460021304619
:10448000FEF7D1FD9DF80010C9B110B11DE001206B
:10449000F2E705AB06AA30461899FFF73FFBA0B933
:1044A0001899059807AA488100213046FEF7C8FDF3
:1044B000079921B1069A8A4201D94FF0010920B922
:1044C00002AA02213046FEF7AEFD9DF8081011B396
:1044D00038BB08AA02213046FEF7B2FD80B901229E
:1044E000FF213046FFF764FA50B904AAB6213046DE
:1044F000FEF776FF20B90022FF213046FFF758FA79
:10450000BDF810104902C6F84811089A1AB1914234
:1045100001D94FF0010820B903AA03213046FEF764
:1045200082FD9DF80C1091B190B9BAF1000F12D034
:104530000D980102B1FBFAF0824609AA0321304628
:10454000FEF77EFD099911B18A4500D2012720B1FD
:10455000287858B32DE00020EEE7BBF1000F01D022
:10456000FF2013E0012C10D0022C0ED0032C0CD015
:10457000062C0DD0092C0BD0082C04D00A2C02D00C
:10458000B8F1000F06D0032000E00520287010E0ED
:104590000420FBE7042C00D00FB10220F6E7B9F1AC
:1045A000000F01D00120F1E70020287018990020A9
:1045B000488101AA01213046FEF735FD002825D1AA
:1045C0009DF8001011B15FEA090100D0012186F8C1
:1045D0002E10042C15D09DF8041091B15FF000014D
:1045E00086F82F109DF8081011B15FEA080100D07D
:1045F000012186F830109DF80C1001B11FB1012186
:1046000002E00121ECE7002186F831100FB0BDE88F
:10461000F08F38B51446CA6822606A4600F007F881
:10462000002803D12168009A1144216038BDF8B5F3
:10463000064600200D461060144669463046FEF7D7
:1046400044FE002809D19DF80010002905D0A98A50
:10465000326A51438031090A2160F8BD38B51446E9
:1046600021B1012905D06FF003010DE06A46502108
:1046700001E06A467021FEF77AFE010004D19DF840
:104680000000FFF787FB2070084638BD0246002077
:104690004FF0804100E089089142FCD808E04318BF
:1046A000934203D8D21A01EB500000E04008890879
:1046B0000029F4D170470000F8B5074600200D46E8
:1046C0000446061F13E0CBB2641CFF2B05D0042B5D
:1046D0000CD8295D00206A4639E0295D641C61B16F
:1046E000012912D0022918D003291ED03046295D95
:1046F000002901D00028E6D0F8BD2A5D641C295DA0
:1047000001EB0221A7F8341116E0295D641C2A5D33
:1047100002EB0121A7F836110EE02A5D641C295D29
:1047200001EB0221A7F8381106E0295D641C2A5D1F
:1047300002EB0121A7F83C11641C295D0029C2D1BC
:10474000F8BD00BF15F804C002F800C0401C641C8E
:104750009842F7DB3846FFF751F9C8E7F8B5064647
:1047600000208DF8000004464FF4FA656946304693
:10477000FEF7A3FC002807D19DF80010012903D003
:10478000641CAC4201D3C01FF8BD3046FEF7E8FD03
:10479000ECE72DE9F04385B01D0091460E46074633
:1047A0004FF0000401D097F8304102220121FFF7B9
:1047B000FFF84FF0000838B90021384600F052F9F0
:1047C00010B9B9F1010F11D086F8008000280AD184
:1047D000002D08D0224601213846FFF7E9F80028CD
:1047E00001D187F8304105B0BDE8F083012004A96C
:1047F000CDE90016CDE9028042460146134638460F
:1048000000F086F9E2E72DE9F0411E46174605461D
:1048100090F830410023324600F040F9002810D1D2
:104820000023324639462846FFF7B3FF002808D157
:10483000224601212846FFF7BBF8002801D185F860
:104840003041BDE8F0812DE9F74F96B006462C20A7
:104850000B9000200E9011908DF84C008DF85000B8
:104860001290B6F83CA14FF0B4094FF0030B01468B
:104870004FF00608074672180020491C82F82401F0
:104880004145F8D30122FF213046FFF791F804009B
:1048900079D100224F213046FFF78AF80400F7D182
:1048A0002C224E213046FFF783F80400F0D100227D
:1048B000FF213046FFF77CF80400E9D14A46B621D3
:1048C0003046FFF775F80400E2D10022802130461F
:1048D000FFF76EF80400DBD1002314AA13A93046B9
:1048E000FFF791FF0400D3D106F592730EAACDF81D
:1048F000008006930E90CDE903B29A1D0A92CDE98D
:1049000001900146304600F04EFB04003BD109A95E
:1049100030460E9D00F048FD040034D1BDF824104F
:10492000514531D900213218401C82F824114045EC
:10493000F9D300E06D1C09EB050000F0C7FC10B9CD
:104940000B988542F6D301200EA9CDF80080159072
:10495000CDE903B1CDE9019501463046069B0A9A9F
:1049600000F021FB040079D109A930460E9D00F02A
:104970001BFD040072D1BDF82410514505D901205A
:104980005F46129001E051E0159089B2514555D231
:10499000159812905F4642460FA80699FBF7A1FCB6
:1049A000BDF82410B1EB0A0000D54042834611AB9C
:1049B0002A4641460A9800F055FB1198411C0FD039
:1049C000484400F083FC159988422ED1119D414640
:1049D0002A467F1C069800F030FB040003D03DE01F
:1049E0006FF031043AE030466D1C069900F06EFD20
:1049F000040033D109A9304600F0D6FC04002DD1C3
:104A0000BDF82410B1EB0A0000D5404251450ED943
:104A100058450AD90FA9304600F058FD04464246D1
:104A20000FA90698FBF75DFC7F1E3CB116E083469C
:104A300042460FA80699FBF754FCB8E717980760A1
:104A4000189912980870012086F8150117980078B7
:104A500086F813011898007886F8140119B02046DA
:104A6000BDE8F08F10B541F0010204460021FEF7C9
:104A70009FFF002811D12046FFF770FE00280CD1BF
:104A800000212046FEF750F9002806D120460022DA
:104A9000BDE810401146FEF78BBF10BD2DE9F04375
:104AA00085B04FF000051E0091460F4680462C460B
:104AB0008DF8105001D098F8305101221146FEF7C0
:104AC00077FF38B940214046FFF7CCFF10B9B9F164
:104AD000010F10D03C7000280AD1002E08D02A46C1
:104AE00001214046FEF764FF002801D188F83051CB
:104AF00005B0BDE8F083012004A900970394CDE937
:104B00000110224601461346404600F001F8E2E754
:104B10002DE9FF4F81B00020DDE90EA9DDE9106528
:104B20000F468DF800009B460122FF210198FEF7F9
:104B30003FFF0446002211460198FEF739FF40EA84
:104B400004080022FF210198FEF732FF40EA080422
:104B50006FB12EB15246CB210198FEF708FC0443F9
:104B6000A5B16A46EE210198FEF701FC0DE02EB1D9
:104B7000CB21039A0198FEF71BFF044335B15B4636
:104B80008022EE210198FEF7FBFE04430122FF2163
:104B90000198FEF70DFF0443012200210198FEF762
:104BA00007FF04430022FF210198FEF701FF9DF853
:104BB0000010204301F0EF0289F8002005B0BDE8A5
:104BC000F08F2DE9FF4107464FF4FA600290002074
:104BD000039044F620600E466FF0030581424FD3E8
:104BE000A6F6363469463846FEF71EFB002844D147
:104BF0009DF8001029B99DF8011011B99DF8021017
:104C000001B302AA0221384600F05FFA002834D12D
:104C10009DF8001029B1029901F24E21A1422FD234
:104C2000641A9DF8021021B1029901F2B2214900E3
:104C300005E09DF8011029B1029901F52571A14205
:104C40001ED2641A9DF8031061B103AA03213846ED
:104C500000F03BFA039901F52571A14210D2641AC4
:104C600000280AD19DF80410002906D0A4F22622BB
:104C70000421384600F02FFC7E6104B0BDE8F081CD
:104C80002846FAE72DE9F0479046894686B0044663
:104C90000025B42606274FF02C0A0122FF21FEF73B
:104CA00087FEB0B900224F212046FEF781FE80B971
:104CB0002C224E212046FEF77BFE50B90022FF2118
:104CC0002046FEF775FE20B93246B6212046FEF793
:104CD0006FFE002001462218401C82F82411B842C1
:104CE000F9D3B8F1000F01D106E06D1C701900F086
:104CF000EDFA08B95545F8D305A90097CDE9039118
:104D0000CDE9016504F592739A1D4146204600F0F5
:104D10004AF9002806D1012184F8151184F813916D
:104D200084F8148106B0BDE8F0872DE9FF410746FD
:104D300000208DF80C0014460E46D0076FF00305D6
:104D400071D116B1012E0DD0B2E00C2C6BD3122C08
:104D500069D80C2C13D00E2C13D0102C13D0122C7D
:104D600013D0A5E0082CF1D30E2CF1D8082C17D0C5
:104D70000A2C44D00C2C57D00E2C69D098E0182265
:104D800004E0302202E0402200E050225721384661
:104D9000FEF70EFE082256213846FEF709FE85E092
:104DA000102248213846FEF703FE082247213846E4
:104DB000FEF7FEFD8046022232213846FEF7F8FD5E
:104DC00040EA08080C2230213846FEF7F1FD40EA9F
:104DD00008080122FF213846FEF7EAFD40EA0808EC
:104DE000302211463846FEF7E3FD40EA080800226B
:104DF000FF213846FEF7DCFD40EA080056E0282295
:104E000048213846FEF7D4FD082247213846FEF7F0
:104E1000CFFD8046032232213846FEF7C9FD40EA25
:104E20000808092227E04AE0382248213846FEF7E0
:104E3000BFFD082247213846FEF7BAFD804603220F
:104E400032213846FEF7B4FD40EA0808082212E095
:104E5000482211463846FEF7ABFD08224721384666
:104E6000FEF7A6FD8046032232213846FEF7A0FD5C
:104E700040EA0808072230213846FEF799FD40EA4B
:104E800008080122FF213846FEF792FD40EA080893
:104E9000202230213846FEF78BFD40EA0808002228
:104EA000FF213846FEF784FD40EA0800002807D1BC
:104EB0002046FEF7A7FF80462EB1012E23D02846BC
:104EC00004B0BDE8F08101AA0321384600F0FDF8E6
:104ED000B0B902AA0221384600F0F7F880B942467C
:104EE00050213846FEF764FD50B903213846019A37
:104EF00000F0F1FA20B902213846029A00F0EBFAEC
:104F000087F8E84012E06A460421384600F0DDF8F0
:104F100050B9424670213846FEF74AFD20B90421B7
:104F20003846009A00F0D7FA87F8E0400028C7D149
:104F300038467969FEF7A5FB0028C1D1012300227C
:104F400003A93846FFF725FCBAE738B502F10A0392
:104F5000009393B290F86021D0F85C0142F0010414
:104F60000A462146FCF736FA38BD38B502F10A0385
:104F7000009393B290F860410A46D0F85C01214654
:104F8000FCF750FB38BD0907090E002804DB00F1CF
:104F9000E02080F80014704700F00F0000F1E020DE
:104FA00080F8141D70472DE9FF4F83B00024DDE920
:104FB000125A149F9B46DDF8409026466FF0310848
:104FC00000951AE06B462A464946059800F04AF8D3
:104FD0000098411C06D01199084400F077F9049913
:104FE000884202D044463D6023E0009D49462A465F
:104FF000584600F022F86D1C761C5645E2D33D6001
:10500000BCB95946039800F061FA040011D101A916
:10501000039800F055F80446002001A907E01BF8AA
:1050200000200B5C9A4201D0444602E0401C4845F7
:10503000F5D307B02046BDE8F08F70B50825B2FB68
:10504000F5F3B2FBF5F60446002005FB16228B4271
:1050500002D36FF0310070BDE15C0125954029431A
:10506000E15470BD2DE9F043082581464FF0FF3033
:105070001860B2FBF5F0B2FBF5F605FB10274FF018
:10508000000C304615E0002219F80040B04202D171
:10509000FC403A460AE05FEAC47805D000FB0522EE
:1050A0004FF0010C1A6003E06408521CAA42F2D3CC
:1050B000401C884202D2BCF1000FE4D0BDE8F0836E
:1050C00006230A46B021FEF7A9B92DE9F0410024D4
:1050D0008AB0174680468DF81C402546ADF818402A
:1050E000264641B1012906D0022904D0032912D055
:1050F000042929D05DE06A4600214046FEF7CDF83C
:10510000040005D107AA46214046FEF730F90446BF
:105110009DF81C0015E06A4600214046FEF7BDF8E8
:10512000040046D16A4600214046FEF7B6F8040066
:1051300005D106AA51214046FEF752F90446BDF8B2
:105140001800FEF721FE2DE004A94046FEF76CF89A
:105150009DF81300002590B16A4600214046FEF7F5
:105160009CF804001DD106AA51214046FEF738F9EB
:105170000446BDF81800FEF707FE85B28CB96A46F2
:1051800001214046FEF789F804000AD108AA7121DE
:105190004046FEF725F90446BDF82000FEF7F4FD71
:1051A00086B2701B81B29DF800204046FEF7DBFD01
:1051B00005463D600AB02046BDE8F08110B50021EB
:1051C0000D48FDF73DF808210B48FDF739F80A2294
:1051D00000210948FDF7C4FB0A2208210648FDF713
:1051E000BFFB064C01206071FCF72AF8A06000208C
:1051F000A0712071E07110BD44100020200000203B
:1052000010B500210D48FDF71BF808210B48FDF7EC
:1052100017F80A2200210948FDF7A2FB0A220821FB
:105220000648FDF79DFB064C0120A071FCF708F82D
:10523000A060002060712071E07110BD441000205A
:105240002000002010B504210D48FCF7F9FF0C21C7
:105250000B48FCF7F5FF0A2204210948FDF780FB03
:105260000A220C210648FDF77BFB064C0120207129
:10527000FBF7E6FFA0600020A0716071E07110BD37
:10528000441000202000002010B504210D48FCF738
:10529000D7FF04210B48FCF7D3FF0A220421094859
:1052A000FDF75EFB0A220C210648FDF759FB064C70
:1052B0000120E071FBF7C4FFA0600020A071207105
:1052C000607110BD44100020200000200146044AF7
:1052D0008909012052F82110002900D100207047CF
:1052E000F002002008B5FCF769FAFDF78FFBFDF727
:1052F0002FFA2848416941F00101416140690022CB
:1053000000F00100009011460B20FCF7B5FA0B20CD
:10531000FCF7A4FA214820494FF48042016020495B
:10532000416000218160C0E9031241618161C16176
:105330000162FBF78BFF08B172B6FEE7FDF78AFA50
:10534000FDF7DEF9FDF7BAFAFBF724FA134801225C
:1053500014493038FBF7B0FC104800219C30FCF7B2
:105360006FFF0E48322200219C30FDF7F9FA0B48FE
:1053700004219C30FCF764FF0848002204219C3083
:10538000FDF7EEFAFBF76CF900F040F8FBF7E2F8F6
:10539000F8E700000010024000540040A80F002071
:1053A000801A06003000002070B50E4688B0054611
:1053B00090F83041C0220121FEF7FAFA002823D1EB
:1053C00069462846FDF7B2FF00281DD10122FF21C2
:1053D0002846FEF7EDFA002816D13246B6212846B7
:1053E000FDF7FEFF00280FD10022FF212846FEF71F
:1053F000DFFA002808D1224601212846FEF7D8FA14
:10540000002801D185F8304108B070BD2DE9F04386
:105410001E484FF007090021B0F80AC0C688058968
:105420008489C389028A478A072920D2DFE801F0EC
:1054300004090C1014181C00DFF854C0BCF808C094
:1054400015E0134EB68C12E0114DB5F840500EE049
:105450000F4CB4F85C400AE00D4BB3F87A3006E02C
:105460000B4AB2F8962002E0094FB7F8B070491C19
:1054700089B24945D8D3A0F80AC0C6800581848185
:10548000C38102824782BDE8F08300000000002053
:10549000A803002010B500201870052913D2DFE8FA
:1054A00001F00306090C0F00C2F3001109E0C2F37A
:1054B000C00106E0C2F3800103E0C2F3801100E006
:1054C000D109197010BD6FF0030010BD06230A4604
:1054D000B021FEF793BAF0B587B01646054661B124
:1054E00001290AD0022908D0032922D004293ED05C
:1054F0006FF0030407B02046F0BD05AA0021FDF7B8
:10550000CCFE0400F6D19DF8142031462846FEF763
:1055100019FC80B2B0F5807F01D9FF2201E0401E66
:10552000C2B2A5F8D82046212846FEF741FA044623
:10553000E0E705AA0021FDF7B0FE04469DF814201F
:1055400031462846FEF7FEFB80B2FEF74CFCADF874
:1055500008000246A5F8D800002CCBD151212846DE
:10556000FEF738FA0400C5D1C5F8E460C2E703A924
:10557000FDF75AFE9DF80F00002798B105AA0021FB
:105580002846FDF78AFE0400B4D102AA512128461C
:10559000FDF726FF0446BDF80800FEF7F5FB87B2CD
:1055A000002CA7D105AA01212846FDF776FE0400AC
:1055B000A0D19DF8142031462846FEF7C3FB38449D
:1055C000FEF711FC024671212846FEF703FA04009B
:1055D00090D1C5F8DC608DE790EA010F48BF81F0FB
:1055E000004100F12482421A3CBF801A89184FEA18
:1055F000D0524FF07F4C1CEA410FA2EBD15318BFA1
:105600009CEA026F00F03B804FF0004C4CEA002017
:105610004CEA012121FA03FC10EB0C0C1ED202F122
:10562000FF325FEA1C2040EBC25038BF70471CF0CD
:105630007F0F4FEA400C18BFBCF17F4F38BF704757
:10564000C3F12003994008BF20F00100BCF17F4F57
:1056500038BF7047A0F1C04000F0DDB94FEA3C0010
:10566000000A40EBC25028BF1CF0FF0F4FEA400C6D
:10567000E6D018BFBCF17F4F38BF7047EAE79CEA1D
:10568000026F05D010EA5C0F08BF00F000407047C1
:1056900010B500F07AF900BF64FBBE3E4FF47F0CFA
:1056A0001CEAD0121EBF1CEAD11392EA0C0F93EA37
:1056B0000C0F00F0858090EA010F48BF42F4807221
:1056C00040F4000C41F400002CF07F4120F07F40BA
:1056D00000B58142A2EB03020FF2081CACEB504E66
:1056E000C0F100009EF800E04FEA4E0E00FB0EFCF9
:1056F00038BF49004FEA2C1C02F5FA020CFB0EF3EE
:105700004FEACE1E4FEA112C4FEAC1210EEB635E29
:1057100042EB22420EFB0CFC4FEA1C5300FB031130
:105720004FEA112C4FEA01310EFB0CFC4FEADC4C26
:1057300000FB0C11C14228BF09184CEB03335DF884
:1057400004EB10EB410143EBC250B2F57C0F38BFC4
:10575000704729D512F0F00F1CBF00F1C04000F0D7
:1057600000407047008182838485868788898B8C7E
:105770008D8E8F919293959697999A9C9D9FA0A2BA
:10578000A3A5A7A8AAACAEB0B2B3B5B7B9BCBEC00A
:10579000C2C5C7C9CCCED1D4D7D9DCDFE2E6E9ECAB
:1057A000F0F3F7FAFE0000004FEA400C0CF1807CA9
:1057B000BCF17E4F28BF7047B0F1C04000F02BB95C
:1057C00090EA010F0CEAD11348BF42F4807262459F
:1057D00038BF634507D213F47F0F16D080EA01006B
:1057E00000F00040704710B500F0CFF8097EFC3E95
:1057F00000F005B880EA010000F00040704780EA40
:10580000010000F0004000F006B912F47F0F04BF61
:105810000248704780EA010000F0FDB80000C07F38
:10582000C10DD1F19E0206DB4FEA002343F0004395
:1058300023FA02F07047004207D54FEA4001B1F168
:10584000FE4F02D24FF00000704710B500F09DF8F7
:1058500049922480002070476FEA200070470000C2
:10586000B0FA80F310FA03F2C3F19D030AD0D90510
:1058700001EB1220530638BF704700F1010008BF4A
:1058800020F00100704700004FF47F0C1CEAD0129A
:105890001EBF1CEAD11392EA0C0F93EA0C0F00F022
:1058A000478090EA010F48BF42F480724FF0004CED
:1058B0004CEA00204CEA012102EB0302A0FB011399
:1058C000A2F50002002918BF43F001035B0028BFC6
:1058D0004FEA330342EB22425FEA132C4CEBC250F7
:1058E0002EBFBCEB436FB2F57C0F70474FEA036CE1
:1058F000BCF1004F08BF20F00100B2F57C0F38BFAB
:1059000070470BD582F0FF0212F5803FC8BF704789
:1059100000F1C040D8BF00F00040704700F5000C17
:105920005FEA4C0C48BF7047B0F1C04000F073B85C
:1059300090EA010F0CEAD11348BF42F4807262452D
:1059400038BF634504D280EA010000F00040704790
:1059500010B500F01AF800BF8900013E00F007B84A
:1059600000F009B85FEA410C5FEA1C6C08D080EADD
:10597000010000F050B85FEA400C5FEA1C6CF6D101
:105980004FF00040A0F5800070470EF1020E2EF09F
:10599000030E5EF8044B244204D44FEA4102B2F1F4
:1059A0007F4F11D84FEA4003B3F17F4F0CD80ED18F
:1059B0004FEAD07CB2F17F4F0CEB4C0C0CF1020C97
:1059C00008BF4CEBD17C04E04FF0080C01E04FEA3B
:1059D000D17C0CEB4C0324FA03F404F00704B4F17B
:1059E000040C06D20EEB840CBDE810404CF0010C08
:1059F0006047DFE80CF0070802024FF00040A0F516
:105A0000800010BD0846420018BFD2F1807288BFE6
:105A100000F0004010BDFF2141EAD050C0057047A2
:105A200090EA010F48BF81F000413FF5DCAD421A1A
:105A300004D882F00042A0EB020011444FEAD05299
:105A40004FF07F4C1CEA410FA2EBD15318BF9CEAE8
:105A5000026F4AD04FF0004C4CEA00204CEA012182
:105A600021FA03FCB0EB0C0C0FD412F0FE0F36D071
:105A70005FEA4C001DD5001240EBC25038BF7047A2
:105A80001CF03F0F18BF70470BE0A2F101025FEA64
:105A90001C2040EBC25038BF70471CF07F0F18BF6E
:105AA0007047C3F12003994014BF401E20F001004D
:105AB000704780084FEA122308BF7047B0FA80FC95
:105AC000A2EB0C02CCF1280C60FA0CF093EA122F36
:105AD00004BF00EBC25070474FEAC3707047130A0F
