:020000040800F2
:1000000040140020890100086B2800083D1F0008EB
:10001000692800086D050008632B00080000000037
:100020000000000000000000000000006F28000831
:10003000A7050008000000006D280008DD28000862
:10004000A3010008A3010008A3010008A301000800
:10005000A3010008A3010008A9050008AF050008D6
:10006000A3010008B5050008BB05000871050008DC
:10007000A3010008A3010008A3010008A3010008D0
:10008000A3010008A3010008A3010008A3010008C0
:10009000A3010008A3010008A3010008A3010008B0
:1000A000A3010008A3010008A3010008A3010008A0
:1000B000A3010008A3010008A3010008A301000890
:1000C000411F0008A3010008A3010008A3010008C4
:1000D000A3010008A3010008A3010008A301000870
:1000E000A3010008A3010008A301000800F002F822
:1000F00000F03AF80AA090E8000C82448344AAF188
:100100000107DA4501D100F02FF8AFF2090EBAE885
:100110000F0013F0010F18BFFB1A43F0010318473B
:100120006C3800008C380000103A24BF78C878C1C1
:10013000FAD8520724BF30C830C144BF04680C60ED
:10014000704700000023002400250026103A28BF35
:1001500078C1FBD8520728BF30C148BF0B60704739
:100160001FB51FBD10B510BD00F08AF81146FFF78E
:10017000F7FF03F019F900F0A8F803B4FFF7F2FF56
:1001800003BC00F0AFF80000094880470948004769
:10019000FEE7FEE7FEE7FEE7FEE7FEE7FEE7FEE737
:1001A000FEE7FEE704480549054A064B7047000094
:1001B00047290008ED000008400E002040140020F0
:1001C000401000204010002010B5203AC0F00B80F5
:1001D000B1E81850203AA0E81850B1E81850A0E84B
:1001E0001850BFF4F5AF5FEA027C24BFB1E81850A5
:1001F000A0E8185044BF18C918C0BDE810405FEA15
:10020000827C24BF51F8043B40F8043B08BF704790
:10021000D20728BF31F8023B48BF11F8012B28BF95
:1002200020F8023B48BF00F8012B70474FF0000256
:1002300000B5134694469646203922BFA0E80C50DC
:10024000A0E80C50B1F12001BFF4F7AF090728BFB7
:10025000A0E80C5048BF0CC05DF804EB890028BF33
:1002600040F8042B08BF704748BF20F8022B11F05C
:10027000804F18BF00F8012B7047704770477047D8
:10028000754600F02BF8AE4605006946534620F04F
:100290000700854618B020B5FFF784FFBDE8204071
:1002A0004FF000064FF000074FF000084FF0000B32
:1002B00021F00701AC46ACE8C009ACE8C009ACE8E5
:1002C000C009ACE8C0098D46704710B50446AFF3CD
:1002D00000802046BDE81040FFF74FBF0048704740
:1002E000E00D002001491820ABBEFEE72600020009
:1002F0007047000070B5044600688168C943C907AB
:1003000017D1816821F00101816000F0ABFD054645
:100310000AE000BF00F0A6FD401B022804D92068B7
:100320008068C043C00706D020688068C043C0070B
:10033000F0D0002070BDA06A40F01000A062E06A1A
:1003400040F00100E062012070BD10B50146406A36
:10035000826A12F0500F05D0006A026BBDE81040AF
:1003600008461047816A41F400718162016889681A
:10037000C1F3424107290CD1017B51B9816A21F4B3
:1003800080718162816AC90403D4816A41F00101EC
:10039000816200F095F910BD10B5406A816A41F0A4
:1003A00040018162C16A41F00401C16200F08AF932
:1003B00010BD10B5406A00F084F910BDF8B50026F4
:1003C0000446009600688168C943C9072DD081683A
:1003D00041F001018160164816490068B0FBF1F058
:1003E00000E0401E00900028FBD100F03BFD0546D8
:1003F00016E000BF00F036FD401B022810D920682F
:100400008068C043C0070BD0A06A40F01000A06213
:10041000E06A40F00100E06284F824600120F8BD49
:1004200020688068C043C007E4D10020F8BD000008
:100430001400002040420F0070B54B4E06F6B43455
:100440003146206802F0D7FB308940F2C575A0F133
:100450000B01A94209D203F02FF90146A4F65C4032
:1004600002F006FA03F008F930813F4E60681C364E
:10047000314602F0C0FB3089A0F10B01A94209D23C
:1004800003F01AF90146A6F1AC0002F0F1F903F00D
:10049000F3F83081344EA0683836314602F0ABFBB9
:1004A0003089A0F10B01A94209D203F005F90146F8
:1004B000A6F1B00002F0DCF903F0DEF830812A4E3C
:1004C000E0685436314602F096FB3089A0F10B010A
:1004D000A94209D203F0F0F80146A6F1B40002F0F7
:1004E000C7F903F0C9F830811F4E206970363146D4
:1004F00002F081FB3089A0F10B01A94209D203F07F
:10050000DBF80146A6F1B80002F0B2F903F0B4F846
:100510003081154E60698C36314602F06CFB3089B3
:10052000A0F10B01A94209D203F0C6F80146A6F1D9
:10053000BC0002F09DF903F09FF830810A4EA069DB
:10054000A836314602F057FB3089A0F10B01A942D1
:1005500009D203F0B1F80146A6F1C00002F088F913
:1005600003F08AF8308170BDC0000020FEE7000073
:10057000014800F051BA00005C0D002030B590F841
:1005800040500124AC40C56B6C60046863604368F4
:10059000102B036803D099600068C26030BD9A6078
:1005A0000068C16030BD7047012000F059BB0220D7
:1005B00000F056BB082000F053BB102000F050BBE9
:1005C00072B6FEE7F8B50024009490F82420254682
:1005D000012A12D0012280F824204A681F23072A0A
:1005E0000DD20668776B521E02EB820293409F4346
:1005F0000B6893401F43776319E00220F8BD06683B
:100600000D2A0AD2376BD21F02EB820293409F431E
:100610000B6893401F43376309E0F76A0D3A02EB1A
:10062000820293409F430B6893401F43F7620A681E
:10063000072306680A2A0AD3F7680A3A02EB42023D
:1006400093409F438B6893401F43F76008E03769EE
:1006500002EB420293409F438B6893401F433761F4
:100660000A68102A01D0112A20D1124B02689A423E
:1006700017D193681B0219D4936843F40003936065
:100680000968102912D10C490C4A0968B1FBF2F132
:1006900001EB8101490000E0491E00910029FBD1D6
:1006A00004E0816A41F020018162012480F8245035
:1006B0002046F8BD002401401400002040420F00F5
:1006C00070477047704700002DE9F0414FF0000778
:1006D00004003D467ED0A06A002628B9E66284F870
:1006E0002460204600F07EF82046FFF703FEA16A52
:1006F000C90600D420B1A06A40F01000A06269E0F1
:10070000A16A21F4885141F00201A1626268E169A5
:10071000237B0A4347EA43010A43A1684FF48077E9
:10072000B94209D0012907D05FF0000194F814C044
:10073000BCF1010F02D00AE03946F7E7F3B1A36A32
:1007400043F02003A362E36A43F00103E3622368FA
:10075000D3F804C02CF4694C4CEA010CC3F804C073
:1007600021688B68DFF870C003EA0C0313438B60C9
:10077000A168B9420BD0012909D00CE0DFF85CC0B8
:10078000A3690CEB43330B4343F40061DFE7218A99
:100790000D05A5F580152168CB6A23F470032B4362
:1007A000CB62216889680E4B1940914208D1E662FC
:1007B000A16A21F0020141F00101A162BDE8F081CE
:1007C000A06A20F0020040F01000A062E06A40F051
:1007D0000100E0620120F1E7FDF7E1FF00E0FFFF2B
:1007E000FE0E1FFF70B586B00025064600950195E8
:1007F0000295039500681A4988422ED119498869E3
:1008000040F400708861886900F400700490886981
:1008100040F0040088618869694600F00400049093
:1008200002200090032001900F4800F025FA104CA0
:100830000E48C4E900058020C4E902504000206150
:10084000800060612020C4E90605204600F08EF992
:1008500008B1FFF7B5FE3462666206B070BD0000F5
:10086000002401400010024000080140080002403E
:100870005C0D00202DE9F047894604463B4900689D
:100880003B4F0E1D9046884201D0B84207D13068D8
:1008900010F4702F03D001252846BDE8F08794F8A6
:1008A000240001280CD0012084F824002046FFF702
:1008B00085FD05004FF0000004D084F82400EBE72C
:1008C0000220EAE7A16A40F60162914341F4807197
:1008D000A1622168B94218D1326812F4702F14D085
:1008E000A16A41F48011A1623168490505D5A16A68
:1008F00021F4005141F48051A162A16AC9040AD5D2
:10090000E16A21F00601E16206E0A26A22F48012A7
:10091000A2624968E9E7E06284F82400216A154888
:100920008862216A1448C862216A144808632168F1
:100930006FF0020008602068816841F48071816076
:10094000216843464A464C31206A00F03DF9206850
:100950008168C1F342410729816803D041F48011C5
:10096000816099E741F4A001FAE70000002401400A
:10097000002801404B030008B30300089903000856
:1009800010B590F821100024022903D004218163BE
:1009900001243DE001680A6822F00E020A60016845
:1009A0000A6822F001020A601A4A0168914201D1E4
:1009B000012121E0174A1432914201D110211BE09C
:1009C000144A2832914201D1891515E0114A3C326E
:1009D000914201D189140FE00E4A5032914202D166
:1009E0004FF4803108E00B4A6432914202D14FF457
:1009F000801101E04FF08071064A083A51600121F0
:100A000080F82110002180F82010416B01B1884747
:100A1000204610BD080002402DE9F05FC16B0C6854
:100A200001680B68D0F840C0042202FA0CF2494D6C
:100A3000DFF824A1494E4A4FDFF828B1DFF828E15A
:100A400022422CD05A072AD50A68920603D40A6893
:100A500022F004020A600168A94201D1042219E0CF
:100A6000514501D1402215E0B14202D14FF48062DC
:100A700010E0B94202D14FF480420BE0594502D157
:100A80004FF4802206E0714502D14FF4800201E06C
:100A90004FF080622F4908394A60C16A3BE04FF04D
:100AA000020808FA0CF818EA040F4FF000094FF09A
:100AB000010235D05FEA837832D50B689B0605D4F6
:100AC0000B6823F00A030B6080F821200168A9421B
:100AD00001D1022219E0514501D1202215E0B14295
:100AE00002D14FF4007210E0B94202D14FF400522B
:100AF0000BE0594502D14FF4003206E0714502D1B6
:100B00004FF4001201E04FF00072124908394A60B8
:100B100080F82090816A00291AD0BDE8F05F08476C
:100B2000082505FA0CF5254212D01B0710D50B68D5
:100B300023F00E030B6090F84010C36B02FA01F132
:100B40005960826380F8212080F82090016BE2E7F1
:100B5000BDE8F09F080002401C0002403000024047
:100B600044000240580002406C00024030B528B3F7
:100B700008C8134914221944B1FBF2F18900C1637A
:100B800010498163022141771A6843F6F0718A4364
:100B9000D0E900142143D0E902452C4321430469E4
:100BA0002143446921438469214311431960002191
:100BB0004163012242770177084630BD012030BDF4
:100BC000F8FFFDBF0000024070B5044690F8200019
:100BD000002501280CD0012084F8200094F8216021
:100BE0000020012E06D084F820000225284670BD82
:100BF000022070BD022684F82160A0632068066888
:100C000026F0010606602046FFF7B8FCE06A0028DF
:100C10002068016802D041F00E0106E021F00401D5
:100C200001602068016841F00A01016020680168E4
:100C300041F001010160D9E70021084A012807D0ED
:100C4000022807D0102807D0082800D1117070475B
:100C500051707047D170704791707047000000204C
:100C6000044910B50A68024202D00860FFF7E4FFA9
:100C700010BD0000140401402DE9F84FDFF8B891D1
:100C80000024A9F1040B23460F2709F1040AABF154
:100C9000040EC9E00125A5402A40AA427DD1674E35
:100CA000D1F804C0ACEB0608B44532D014DCBCF17A
:100CB000030F3AD009DCBCF1000F2AD0BCF1010FC0
:100CC0001CD0BCF1020F31D11DE0BCF1110F17D0C7
:100CD000BCF1120F2AD119E0B8F5881F19D006DC33
:100CE000B8F5803F15D0B8F5801F1FD111E0B8F5D9
:100CF000001F0ED0B8F5041F18D10AE0CB6815E02C
:100D0000CB681B1D12E0CB6808330FE0CB680C33B7
:100D10000CE08B682BB1012B4FF0080303D0456129
:100D200004E0042302E0056100E00023FF2A01D86B
:100D3000064601E000F104064FEA840501D9A5F159
:100D40002005D6F8008007FA05FC28EA0C0803FA0B
:100D500005F548EA0508C6F800804D68ED0062D543
:100D6000374DAE6946F00106AE61AD6924F0030669
:100D700005F001050095334D06EB050CDCF8085035
:100D8000A607360F07FA06F825EA0805DFF8B88047
:100D9000404503D14FF0000817E044E0DFF8AC8095
:100DA000404502D14FF001080FE0DFF8A480404534
:100DB00002D14FF0020808E0DFF89880404502D1E8
:100DC0004FF0030801E04FF0040808FA06F848EA7B
:100DD0000508CCF808804D68D9F80060ED024D4652
:100DE00001D5164300E096432E604D68DAF80060A6
:100DF000AD02554601D5164300E096432E604D687E
:100E0000DBF80060AD035D4601D5164300E0964374
:100E10002E604D68DEF80060ED03754601D516437F
:100E200000E096432E60641C0D682A46E5407FF47E
:100E300031AFBDE8F88F0000080401400000111038
:100E4000001002400000014000080140000C014079
:100E500000100140001401400AB10161704709040B
:100E6000FBE7000001488068704700000800002090
:100E700070472DE9F041016804464A694E6890F8D0
:100E80003E000025D743FA050BD4F243D20508D41F
:100E90006FF4807201254A6121680A6842F40042B9
:100EA0000A60B90508D4F143C90505D422686FF476
:100EB000007145F002055161790525D4F143C9055A
:100EC00022D4638D94F83D10226B202808D13BB9C1
:100ED000212910D029290ED0282901D1212A0AD070
:100EE00022686FF48061516145F00405102806D036
:100EF000402804D008E0204601F016FA04E02068FB
:100F0000016841F400710160380508D4F043C00560
:100F100005D421686FF4006045F008054861002D94
:100F200007D0206C284320642046BDE8F04101F042
:100F300073B8BDE8F081704770B5040025D094F80F
:100F40003D00002520B984F83C50204600F078FA96
:100F5000242084F83D002068016821F0010101602F
:100F60002068016841F4004101602068016821F4B3
:100F70000041016000F040FC4D4A6168914201D897
:100F80004C4900E04C49884201D2012070BD4B49D8
:100F90002368B0FBF1F15E6826F03F060E435E6009
:100FA0006368934206D94FF4967359434FF47A73AA
:100FB000B1FBF3F12368491C1E6A26F03F0631435A
:100FC00019626168914210D84900401EB0FBF1F2ED
:100FD000521CC2F30B02042A01D2042022E0B0FB0F
:100FE000F1F0401CC0F30B001CE0A268F2B301EB6F
:100FF000C10303EB0116431EB3FBF6F35B1C43F482
:1010000080431B0549D092B301EBC10202EB0111F1
:10101000401EB0FBF1F0401CC0F30B0040F48040D8
:1010200040F400402168CA694CF6FF739A431043AC
:10103000C861D4E9071001432068026822F0C002A9
:1010400011430160D4E9030101432068826848F23A
:10105000FF339A4311438160D4E9050108432168B5
:10106000CA6822F0FF021043C86001E00EE016E0FB
:101070002068016841F0010101602564202084F8A6
:101080003D00256384F83E50002070BD01EB410611
:10109000431EB3FBF6F35B1CB3E70120C2E701EB91
:1010A0004101401EB0FBF1F0401CC0F30B00B7E75C
:1010B000A086010080841E0000093D0040420F0010
:1010C000704700002DE9F84F0025DDF8289098467C
:1010D00017468A4604460095FFF7C4FE064694F874
:1010E0003D0020287AD11923012286492046009606
:1010F00001F08EF90028F5D194F83C0001286DD05C
:10110000012084F83C0020680168C90703D1016808
:1011100041F0010101602068016821F40061016073
:10112000222084F83D00102084F83E002564676288
:10113000A4F82A80608D20857348E06233464A46D1
:101140005146204601F02CF800287CD1208DDFF894
:10115000BC81202768B1012814D0022820680168CA
:101160001ED041F48061016020684169806900906F
:10117000BBE02068416981690091016841F4007118
:101180000160B2E02068016821F48061016072B6FC
:101190002068416981690091016841F400710AE0A9
:1011A00041F40061016072B6206841698169009173
:1011B000016821F48061016062B696E0032865D879
:1011C00001280CD002284B464FF000024146204631
:1011D00000960BD001F01CF9A8BB0CE090E0324661
:1011E0004946204601F0BAF968BB71E001F010F9F8
:1011F00048BB72B633E02068016821F48061016069
:1012000072B620680069616A0870606A401C60629A
:10121000208D401E2085608D401E60853C4846F232
:10122000A8110068B0FBF1F0C0EBC00000EB80003B
:101230000090401E009007D020684069C0434007DE
:101240000DD50098F5E727E044F8305F6773A57384
:10125000206940F02000206162B625731CE0206800
:10126000016841F40071016020680069616A0870DA
:10127000606A401C6062218D491E2185618D491E76
:10128000618562B621680969017025E032464946E8
:10129000204601F063F910B10120BDE8F88F206805
:1012A0000069616A0870606A401C6062208D401E9F
:1012B00081B22185608D401E608520684269D243DD
:1012C000520712D4032903D1016821F4806101601F
:1012D00020680069616A0870606A401C6062208D45
:1012E000401E2085608D401E6085208D00287FF483
:1012F00065AF84F83D7084F83E5084F83C50CCE7EC
:101300000220CAE7020010000000FFFF04000100F5
:10131000140000202DE9F84F1F4690468A460446E7
:10132000DDF82890FFF79EFD054694F83D00202843
:101330007FD11923012240492046009501F068F829
:10134000002876D194F83C00012872D0012084F85E
:101350003C0020680168C90703D1016841F0010120
:1013600001602068016821F400610160212084F897
:101370003D00102084F83E0000262664C4F8248036
:101380006785608D20852D48E0622B464A46514690
:10139000204600F07BFF90B9206841698069009089
:1013A00036E02A464946204601F010F950B1206C3B
:1013B000042804D12068016841F400710160012013
:1013C000BDE8F88F606A216800780861606A401C97
:1013D0006062618D491E6185218D491E89B221851A
:1013E00022685369DB435B070BD451B1007810616D
:1013F000606A401C6062608D401E6085208D401ECA
:1014000020852A464946204600F0D6FF0028CED146
:10141000208D0028C5D154F83D0B016841F40071BE
:101420000160202004F81E09E67766770020C7E7F0
:10143000FFE70220C4E70000020010000000FFFFE9
:1014400010B586B0002100910191029103910068CE
:101450001349884222D1134CA06940F00800A061D2
:10146000A069694600F008000490C0200090122096
:101470000190032003900C48FFF7FEFBE06940F465
:101480000010E061E069002200F4001004901146B1
:10149000202000F073F8202000F062F806B010BDA4
:1014A0000054004000100240000C01407047000052
:1014B000024881680278114481607047080000206A
:1014C000074810B5016841F010010160032000F0E9
:1014D00075F80F2000F006F800F024F8002010BD89
:1014E0000020024070B50D4D04464FF47A71287803
:1014F000B1FBF0F00A490968B1FBF0F000F042FBE3
:1015000048B9102C07D200222146501E00F036F8B0
:1015100000206C6070BD012070BD0000080000203C
:10152000140000200C4808B5816941F00101816177
:10153000816901F001010091C16941F08051C161EF
:10154000C06900F0805000900448416821F0E061DB
:1015500041F00071416008BD0010024000000140F0
:10156000002809DB00F01F020121914040098000A2
:1015700000F1E020C0F8001170470000F0B40E4BFD
:101580001B680C46C3F30223C3F10705042D00D9E1
:101590000425191D072901D2002300E0DB1E0126C6
:1015A00006FA05F1491E214099409E40761E1640DC
:1015B0003143F0BC01F0E7BE0CED00E0064900F05D
:1015C000070208684FF6FF03184040EA0220034A6A
:1015D00010430860704700000CED00E00000FA05C1
:1015E0002DE9F84305460078354CC00754D0E06932
:1015F0000026C00008D4E06940F08050E061E06956
:10160000012600F0805000902E480168C90512D4D0
:101610000168804641F480710160FFF723FC0746B2
:1016200005E000BFFFF71EFCC01B642823D8D8F8D4
:101630000000C005F6D5206A10F4407021D0A988BA
:1016400001F4407181421CD0206A1F49012220F41C
:1016500040700A6000220A602062C00711D0FFF7C4
:1016600001FC074641F2883808E000BFFFF7FAFBAB
:10167000C11B414502D90320BDE8F883206A8007D9
:10168000F4D5206A696820F44070084320621EB1D6
:10169000E06920F08050E0612878800705D5606817
:1016A000A96820F44040084360602878C00605D54A
:1016B0006068E96820F48000084360600020DBE790
:1016C0000010024000700040400442422DE9F04703
:1016D0000F46050061D0434E306800F00700B84265
:1016E00009D2306820F0070038433060306800F0DD
:1016F0000700B84251D128683B4C810712D54007FA
:1017000003D5606840F4E06060602878000703D586
:10171000606840F4605060606068A96820F0F00084
:10172000084360602878C00728D06868012810D076
:101730002168022810D0890700292EDA616821F07B
:10174000030101436160FFF78DFB804641F2883958
:101750000DE021688903EFE78901EDE7FFF782FBE0
:10176000A0EB0801494502D90320BDE8F087606875
:10177000696800F00C00B0EB810FEFD1306800F029
:101780000700B8420BD9306820F0070038433060BA
:10179000306800F00700B84201D00120E5E7287862
:1017A000400705D56068E96820F4E06008436060A0
:1017B0002878000706D56068296920F4605040EA5F
:1017C000C100606000F028F86168084AC1F30311A5
:1017D000515CC8400649086006480068FFF782FE71
:1017E0000020C2E7002002400010024074390008C7
:1017F000140000200C0000200448054900684968D6
:10180000044AC1F30221515CC84070471400002013
:1018100000100240843900080E4A51680E4801F059
:101820000C03042B11D0082B0FD10C48C1F38343B8
:10183000C903C05C0AD55168084AC1F34041921EF1
:10184000515C054A5043B0FBF1F0704704494843EE
:10185000704700000010024000127A00643900084E
:1018600000093D002DE9F84F040070D02078C04DEC
:10187000C00749D06868C0F38100012807D06868B4
:10188000C0F38100022809D16868C00306D5286822
:10189000800339D560680028E7D035E06068B0F58E
:1018A000803F0BD010B1B0F5A02F11D0286820F4E4
:1018B00080302860286820F4802002E0286840F406
:1018C00080302860606890B1FFF7CCFA06460AE0E5
:1018D000286840F480202860F0E700BFFFF7C2FAD4
:1018E000801B642873D828688003F7D50CE0FFF7C5
:1018F000B9FA064605E000BFFFF7B4FA801B64287A
:10190000F0D828688003F7D420789A4E80074FF0EB
:1019100001094FF0000839D5686810F00C0F07D0A6
:101920006868C0F38100022809D16868C00306D442
:101930002868800714D52069012808D110E02069A3
:10194000B0B1C6F80090FFF78DFA074605E00AE14E
:10195000FFF788FAC01B0228C4D828688007F7D58B
:101960002868616920F0F80040EAC10028600DE0B5
:10197000C6F80080FFF776FA074604E0FFF772FA30
:10198000C01B022823D828688007F7D420780007D6
:101990002CD57948A169D9B1C0F80090FFF762FA57
:1019A000074604E0FFF75EFAC01B02280FD8686AFA
:1019B0008007F7D571484FF4FA510068B0FBF1F099
:1019C000009000BF0098411E0091FAD20EE080E026
:1019D000C0F80080FFF746FA074604E0FFF742FA36
:1019E000C01B022875D8686A8007F7D420784007A2
:1019F00060D5E8690027C00008D4E86940F080504D
:101A0000E861E869012700F0805000905C480168B7
:101A1000C90513D40168834641F480710160FFF762
:101A200021FA824606E000BFFFF71CFAA0EB0A008D
:101A300064284ED8DBF80000C005F5D5E068012821
:101A40000AD008B1052813D0286A20F001002862C6
:101A5000286A20F0040002E0286A40F001002862B1
:101A6000E06841F2883B98B1FFF7FCF982460BE051
:101A7000286A40F004002862EEE700BFFFF7F2F9A1
:101A8000A0EB0A0159455AD8286A8007F6D50CE020
:101A9000FFF7E8F9824605E0FFF7E4F9A0EB0A0159
:101AA00059454CD8286A8007F6D41FB1E86920F060
:101AB0008050E861E06988B36968C1F38101022957
:101AC00044D00228C6F8608004D0FFF7CBF9044662
:101AD00038E034E0FFF7C6F9074604E0FFF7C2F943
:101AE000C01B02282BD828688001F7D4206AB0F5E3
:101AF000803F05D16868A16820F400300843686021
:101B0000D4E908010843696821F474110843686046
:101B1000C6F86090FFF7A6F9044606E025E000BF8E
:101B2000FFF7A0F9001B022809D828688001F7D523
:101B30001BE000BFFFF796F9001B022802D9032023
:101B4000BDE8F88F28688001F4D40EE00128F7D0B2
:101B50006868226A00F48031914204D1616A00F41D
:101B60007010884201D00120EAE70020E8E7000079
:101B70000010024000004242800442421400002053
:101B80000070004010B5401EB0F1807F01D30120ED
:101B900010BD4FF0E02460610F21601701F0F3FBEE
:101BA0000020A06107202061002010BD10B590F832
:101BB0003C20012A22D0012280F83C20CA688C688F
:101BC00022F4407222434C6822F4806222430C6863
:101BD00022F4006222430C6922F4805222434C69B1
:101BE00022F400522243C969002322F480420A43AE
:101BF00001684A6480F83C30002010BD022010BD0E
:101C000070B590F83C20012A26D0012480F83C4091
:101C1000022280F83D2003685A689D6822F0700611
:101C20000A6832435A600D4B02689A4208D0B2F1FA
:101C3000804F05D00A4B9A4202D00A4B9A4204D1F7
:101C4000496825F080031943916080F83D400021E8
:101C500080F83C10084670BD022070BD002C014089
:101C6000000400400008004010B5040003D094F8C0
:101C70003D0010B107E0012010BD002084F83C00B9
:101C8000204600F01FF8022084F83D00211D206846
:101C900000F05AFE012084F8460084F83E0084F8E3
:101CA0003F0084F8400084F8410084F8420084F842
:101CB000430084F8440084F8450084F83D00002087
:101CC00010BD000008B500680649884208D10648E2
:101CD000816941F400618161806900F400600090D5
:101CE00008BD0000002C01400010024070B5044601
:101CF00090F83C000025012817D0012684F83C60AC
:101D0000022084F83D002068826822F0770222F4E5
:101D10007F4282600868502838D00DDC20284FD0E0
:101D200005DC90B3102811D14AE0022070BD3028A4
:101D300046D040280AD13BE060282FD070280DD033
:101D4000B0F5805F03D0B0F5005F12D0012584F8B4
:101D50003D60002084F83C00284670BDCB68D1E986
:101D60000121206800F026FE2068816841F077019B
:101D700009E0CB68D1E90121206800F01BFE206852
:101D8000816841F480418160E1E719E0CA684968EF
:101D9000206800F0C3FE5021206806E0CA68496848
:101DA000206800F0CCFE6021206800F00DFECEE738
:101DB000CA684968206800F0B1FE40212068F4E755
:101DC000226801461046F0E700B585B00021009179
:101DD00001910291039100680B49884212D10B488E
:101DE000816941F0040181618069694600F0040065
:101DF00004904FF47060009002200190039004481A
:101E0000FEF73AFF05B000BD002C01400010024073
:101E10000008014070B5044690F83C0000260D46CD
:101E200001280FD0012084F83C006AB1042A1DD09B
:101E3000082A2FD00C2A3FD00126002084F83C002D
:101E4000304670BD022070BD206800F0C5FD2068DE
:101E5000816941F0080181612068816921F00401F4
:101E60008161206881692A69114311E0206800F0CE
:101E7000DBFD2068816941F400618161206881692E
:101E800021F480618161206881692A6941EA022127
:101E90008161D2E7206800F0F3FD2068C16941F05C
:101EA0000801C1612068C16921F00401C161206895
:101EB000C1692A69114311E0206800F00DFE206815
:101EC000C16941F40061C1612068C16921F4806188
:101ED000C1612068C1692A6941EA0221C161ACE798
:101EE00010B5040003D094F83D0010B107E00120C4
:101EF00010BD002084F83C00204600F01EF80220AF
:101F000084F83D00211D206800F01EFD012084F8AA
:101F1000460084F83E0084F83F0084F8400084F8CE
:101F2000410084F8420084F8430084F8440084F8B7
:101F3000450084F83D00002010BD7047FEE700001A
:101F40000148FEF796BF0000C00C002038B5406A7B
:101F5000002190F83D202B4B46F2A8141B68B3FBE0
:101F6000F4F3C3EBC30303EB830300933BB15B1EAA
:101F7000009303681B689B0505D5009BF6E7036C7F
:101F800043F020030364436B03B19962836B03B195
:101F9000996203681C6824F480641C604185436B6B
:101FA00003B15963836B03B1596303681C6824F060
:101FB00001041C6090F83D402023602C0BD02824A5
:101FC00034EA02020FD080F83D3080F83E1000BFA6
:101FD000FEF7B1FF38BD80F83D3080F83E10016457
:101FE000FEF746FF38BD0268136843F00103136033
:101FF0000268136843F480631360016380F83D4016
:10200000E6E700001400002000684169C9430906A2
:1020100001D400210161704770B5044690F83D007D
:1020200094F83E10102901D0402906D1222804D16D
:1020300021680A6822F400620A60282131EA00025D
:102040004FF000054FF0200626D0216849680905A9
:1020500005D4602803D084F83D6084F83E502563A1
:1020600020684168090537D5416821F40061416065
:10207000606B90F821203C49012A11D04163606BCC
:10208000FEF77EFC38B32068016821F00101016091
:1020900084F83D60606B1CE0256384F83D10DFE749
:1020A000A06B4163A06BFEF76BFCA0B12068416997
:1020B000C943490605D40069616A0870606A401C1A
:1020C00060622068016821F00101016084F83D60D0
:1020D000A06B416B884710E094F83D10602910D048
:1020E0004169C943490605D40069616A0870606A9C
:1020F000401C60622046FEF71EFF206CC1071CD109
:1021000015E084F83D6025644169C943490605D45A
:102110000069616A0870606A401C6062206801683A
:1021200021F0010101602046FEF7A2FEE5E78107EC
:1021300003D4410701D4000704D52068416821F485
:10214000E061416094F83D00216C49070BD52828D7
:1021500009D10648E062256384F83D6084F83E506A
:102160002046FEF7ADFF70BD4D1F00080000FFFFC9
:1021700001684A69D24352050FD46FF480624A6104
:10218000002140F8301F202242738173026942F01F
:1021900004020261017301207047002070470000B3
:1021A0002DE9F84F0446C06A1E4693460D46216845
:1021B0000A6842F480620A60082807D0012805D026
:1021C00010F5803F02D0206B112804D120680168EF
:1021D00041F4807101604FF001195B4600224946CD
:1021E0002046009600F014F94FF4007840B12068C2
:1021F0000068C00501D5C4F840800320BDE8F88F11
:102200002069DFF884A0B0F5804F0FD00620216848
:1022100000EAD51747F0F000086133465A460AF144
:102220000601204600F03CF958BB03E0E8B240F05C
:1022300001001CE02168E8B2086133465A46514665
:10224000204600F02DF9E0B92068416981690091CC
:10225000016841F4807101605B46002249462046D6
:10226000009600F0D5F80028C1D147F0F1002168B0
:10227000086133465A465146204600F011F90028BD
:10228000BCD00120BAE7000002000100F8B5044606
:10229000C06A1E460D461746082807D0012805D0FB
:1022A00010F5803F02D0206B122804D1206801680D
:1022B00041F480710160134600224FF00111204665
:1022C000009600F0A5F840B120680068C00502D56E
:1022D0004FF4007020640320F8BD2069B0F5804FF2
:1022E0000ED00620216800EAD51040F0F000086109
:1022F00033463A460B49204600F0D2F878B902E05E
:1023000005F0FE0000E0E8B22168086105493346A7
:102310003A46891F204600F0C3F80028DCD001208F
:10232000F8BD0000080001002DE9F04190F83D30B3
:102330000446C26A002120261E4F00686FF48065A3
:10234000082A01D0202A01D1282B04D0212B17D014
:102350004561BDE8F081E762426822F4E0624260D4
:10236000206845612068026822F48062026021636F
:1023700084F83D6084F83E102046FEF7A1FEE8E7B1
:10238000E7622122226384F83D6084F83E104168B0
:1023900021F4E0614160206845612068016821F412
:1023A000806101602046FFF72FFE2046FFF77EF890
:1023B000CFE700000000FFFF70B516460D4604464B
:1023C0001EE02046FFF7D4FE08B1012070BD681C56
:1023D00016D0FEF747FD801BA84200D885B92068BB
:1023E0004069C04340070BD5002044F8300F20213E
:1023F0006173A073216941F0200121612073E4E73A
:1024000020684069C0434007DBD4002070BD000055
:102410002DE9F047984617460D460446C1F3074696
:10242000DDF820902AE000BFB8F1FF3F26D0FEF78C
:1024300019FDA0EB0901414502D8B8F1000F1DD1EB
:102440002068012E16D0806925EA00000004000CE7
:1024500012D00020B84211D1002044F8300F2021C2
:102460006173A073216941F0200121612073012073
:10247000BDE8F0874069E7E70120EBE72068012E1F
:102480000AD0806925EA00000004000C06D0002074
:10249000B842C9D00020EBE74069F3E70120F7E735
:1024A0002DE9F047984616460D4604464FF00009C0
:1024B0004FF0200AC1F3074723E020684069C0437A
:1024C000400515D42068016841F40071016021685D
:1024D0006FF480604861C4F8309084F83DA084F8BF
:1024E0003E90216C41F00401216484F83C9021E08D
:1024F000701C06D0FEF7B6FCA0EB0800B04203D873
:1025000016B1012F1FD021E02068012F15D080695E
:1025100025EA00000004000C18D000BF44F8309FEA
:1025200084F80DA084F80E90216941F0200121610A
:1025300084F80C900120BDE8F087406925EA00008E
:102540000004000CEAD12068406901E0206880693D
:1025500025EA00000004000CAFD1ECE72DE9F041C2
:10256000002590460E460446202728E04069C043D7
:10257000C0060CD454F8301B6FF01000486144F8CA
:1025800010596777A577206A2062257714E0FEF757
:1025900069FCA0EB0800B04200D886B92068406909
:1025A000C04340060BD544F8305F6773A5732069BC
:1025B00040F02000206125730120BDE8F0812068F3
:1025C0004169C9434906D1D40020F6E770B51646E3
:1025D0000D4604461EE02046FFF7CAFD08B1012063
:1025E00070BD681C16D0FEF73DFC801BA84200D8C9
:1025F00085B920684069C04300060BD5002044F827
:10260000300F20216173A073216941F02001216105
:102610002073E4E720684069C0430006DBD4002053
:1026200070BD00003EB500211148009101910F4A94
:102630000291026001248160047301754FF46022ED
:102640000461C2614160FEF73FF808B172B6FEE76F
:1026500007200094CDE9014069460548FDF7B2FF27
:10266000002801D072B6FEE73EBD00000024014004
:10267000900C00202DE9F04385B0002436480094EA
:10268000019402940394816941F020018161816980
:1026900001F020010491816941F0040181618169A7
:1026A00001F004010491816941F0080181618069B0
:1026B000DFF8A88000F0080048F23C0504900022F2
:1026C00029464046FEF7C8FBDFF894904FF4487760
:1026D000002239464846FEF7BFFB00950226012539
:1026E0000396CDE9015469464046FEF7C5FA1B2022
:1026F00000901C48CDE9010569464846FEF7BCFA42
:1027000000970396CDE9015469464846FEF7B4FAAE
:10271000002201210620FEF731FF0620FEF720FFF0
:10272000002201210720FEF729FF0720FEF718FFEE
:10273000002201210920FEF721FF0920FEF710FFEA
:10274000002201210A20FEF719FF0A20FEF708FFE8
:1027500005B0BDE8F0830000001002400008014011
:10276000000C01400000211010B596B000240F9419
:1027700010941194129413941C2168461494FDF73C
:1027800055FD202107A8FDF751FD36483449016069
:102790004F21C0E9011440F2E731C0E9031444615C
:1027A0008461FFF761FA08B172B6FEE74FF480501A
:1027B0000F900FA92B48FFF799FA08B172B6FEE700
:1027C0002848FFF78DFB08B172B6FEE7139413A9F2
:1027D00024481494FFF714FA08B172B6FEE760209B
:1027E00000904FF4FA70CDE9010403940494059429
:1027F000002269461B480694FFF70CFB08B172B62D
:10280000FEE70422694617480194FFF703FB08B16D
:1028100072B6FEE7082269461248FFF7FBFA08B1D4
:1028200072B6FEE70C2269460E48FFF7F3FA08B1CC
:1028300072B6FEE70794089409944FF400500A9486
:10284000CDE90B4007A907480E94FFF7AFF908B18F
:1028500072B6FEE70348FFF7B7FA16B010BD0000E6
:10286000002C0140140D0020FEE7FEE77047704782
:102870002DE9F04104460D46D4E90017384600F032
:10288000D7FD0146384600F035FE60612669804676
:102890003146284600F0F0FF414600F021FF314666
:1028A00000F0C6FD0546E0602946304600F0E4FF32
:1028B00020F00040A16800F013FF064641464FF0AB
:1028C0007E5000F0D9FF394600F00AFF314600F093
:1028D000AFFD256160602846BDE8F081FEF7E8BDE8
:1028E00030B593B028216846FDF7A0FC14210AA852
:1028F000FDF79CFC002401250F9410942804CDE9D9
:1029000000501194129407946846FEF7ABFF08B18B
:1029100072B6FEE70F200A90CDE90B540D9400210A
:102920000AA80E94FEF7D2FE08B172B6FEE70220A6
:102930000F9011940FA8FEF753FE002801D072B635
:10294000FEE713B030BD7047F0B50268164B174C68
:10295000174D4FF08047984205D0B84203D0A042AF
:1029600001D0A84203D122F070064A68324398424F
:1029700005D0B84203D0A04201D0A84203D122F42E
:102980004074CA6822434C6922F0800222430260EC
:102990008A68C2620A688262984201D10969016349
:1029A00001214161F0BD0000002C01400004004005
:1029B0000008004010B5846842EA032224F47F44F2
:1029C0000A432243826010BD826822F070020A43EB
:1029D00042F007018160704730B5036A026A22F055
:1029E000010202624268846924F073050C682C437A
:1029F00023F002058B682B430A4DA8420BD123F02C
:102A00000805CB6822F440722B434D6923F0040380
:102A100015438A692A4342608461496841630362BD
:102A200030BD0000002C014030B5026A036A23F07B
:102A300010030362436884690D6824F4E64444EAA1
:102A400005248D6822F0200242EA05120B4DA842AF
:102A50000ED1CD6822F0800242EA05124D6923F4BE
:102A6000406343EA85038D6922F0400243EA85030F
:102A70004360846149688163026230BD002C01407B
:102A800030B5036A026A22F4807202624268C46945
:102A900023F4007324F073050C682C438D6843EA1B
:102AA00005230C4DA8420ED1CD6823F4006343EA00
:102AB00005234D6922F4405242EA05128D6923F440
:102AC000806342EA05124260C4614968C1630362DF
:102AD00030BD0000002C014030B5046A026A22F4C7
:102AE000805202624268C3690D6823F4E64343EAF8
:102AF00005238D6824F4005444EA0534064DA842A9
:102B000004D14D6922F4804242EA85124260C361D9
:102B100049680164046230BD002C014010B5036AAD
:102B2000046A24F001040462846924F0F00444EA95
:102B3000021423F00A020A438461026210BD10B538
:102B4000036A046A24F010040462846923F0A00379
:102B500024F4704444EA023243EA011182610162C2
:102B600010BDFEE703460020062902D3001F002106
:102B700002E0194491F8281011707047F8B5044626
:102B80000020154606292ED2DFE801F00305191BA7
:102B90001D1D646B25E06A464421204600F0C6F8FE
:102BA000002803D1BDF800104FEA412606D1EEB14E
:102BB0002E604FF00101A66384F82910F8BDE46B84
:102BC0000FE0246C0DE06A464FF06401204600F0EF
:102BD000ADF8002804D100BFBDF800104FEA412431
:102BE000ECD12C60F8BD6FF00300F8BDA16B29603B
:102BF0004FF00001E0E7F0B58DB00C4605460C2320
:102C000002AA142100F0B0F806007ED10021A175BF
:102C100021609DF813009DF81220616000EB0220F6
:102C20009DF80F209DF80E304FF47A7E02EB0322C0
:102C30001204D209E2609DF811309DF8106080B254
:102C400003EB06231B04DB0923619DF80B309DF881
:102C50000A6003EB06239BB2A382B5F852619DF88C
:102C6000087095F831C176451FD0464306F5FA76CF
:102C700096FBFEF02E8C95F81CE080B2B6B2BEF149
:102C8000000F12D05E43B2EB262F08D1BCF1000F2B
:102C900002D042F2B82008E048F6E0200DE05043B0
:102CA000A2EB2626B0FBF6F080B2BCF1000F04D0F8
:102CB000810821818001E07501E02081E1750CA887
:102CC000CDE900403946284600F012FA060025D129
:102CD0009DF83000207605F150011C220D4605A814
:102CE000FDF772FA2089ADF81C00E07D8DF82B000D
:102CF0006089ADF81E0060680690E0680890206961
:102D00000990A08AADF8280000E007E0207E8DF849
:102D10002C001C2205A92846FDF756FA0DB03046B6
:102D2000F0BD02460020127F0A707047F7B51646C4
:102D300007460024012201A900F017FB6FF01305DC
:102D400028B902220749384600F0FFFA08B12C469C
:102D500005E004484178007801EB002030802046EF
:102D6000FEBD0000A00D00202DE9FF4117461E46C4
:102D700080460024012201A900F0F7FA6FF0130544
:102D800028B932463946404600F0DFFA00B12C46F9
:102D900004B02046BDE8F081034610B50648002483
:102DA0000170427001460222184600F0DEFA08B1B6
:102DB0006FF01304204610BDA00D00202DE9F04750
:102DC000B0F854C1D0F85801DDE90A860CFB00F5D3
:102DD0008035DDE908972C0A4FF0000A04FB0CF45B
:102DE000554652B1880200EB5200B0FBF2F000EB06
:102DF0004000404300F50040050C07F50040000C82
:102E00000622C01CB0FBF2F003FB09F303F50043FC
:102E1000190C4943C0EBC000B0F5803F01D31C48FA
:102E200008E0FF1CB7FBF2F0C0EBC00000F500406B
:102E3000000C4043084400EB5800B0FBF8F080035E
:102E4000FE227F30B0FBF2F068434FF47A7100F558
:102E5000FA70B0FBF1F0000100F5FA70B0FBF1F789
:102E6000402004F12001B1FBF0F000F059FA0546D2
:102E700027B104EB5700B0FBF7F000E0002000F0B2
:102E80004FFA3560854200D930605046BDE8F08782
:102E90000000F0FF01EBC10140F277600902A1FBE5
:102EA000000170472DE9FF4F87B00446006A069085
:102EB000884608694FF47A714843000C0390D8F8AB
:102EC0000C000590DFF8F8B14FF4481604AA41460B
:102ED000204600F000FA06AA4146204600F009FA12
:102EE00081464FF47A710498069D484300F50040EE
:102EF000070C4D43B54200D93546B9F1000074D1F5
:102F0000D4F8DC00019094F8E06001463246204697
:102F100000F0DCF88246D4F8E4000090014694F812
:102F2000E820204600F0D2F801460320082E00D108
:102F3000022051444143C9024FF47A7001F5FA71FD
:102F4000B1FBF0F140F27762514301F5FA71B1FB48
:102F5000F0FA04988030010A01FB0AF08030060A7A
:102F6000080204900FB14EB109E00999C1F800B010
:102F7000C4F840B10A98002101609CE001264FF49A
:102F80004870029003984F490004B0FBF7F0884264
:102F900000D908464FF4167100FB01F906EB460014
:102FA000800000F0BDF940000390B8F808104648D2
:102FB0006A424143380400EB42024FF47A7002F552
:102FC000FA72B2FBF0F2431003EB0743B3FBF0F0ED
:102FD0001202B2FBF0F0002800DA404298F8182004
:102FE00000021AB14FF480350FE065E041F25C2237
:102FF000B1FBF2F1C0F58030484300F50040000C11
:1030000000F5803040084043850B4FF4487105FBC4
:1030100001F000F50040010C09F50040000C4943A7
:103020004043084400F07CF9000464213230B0FBD6
:10303000F1F10398B1FBF0F040F6B531484341F2AD
:10304000883108444900B0FBF1F74FF470408742E3
:1030500000D90746DDE9001008444FF47A7800F5FE
:10306000FA70B0FBF8F04FF4C81101EB5001B1FB5E
:10307000F0F000F055F9000200F5FA70B0FBF8F03E
:103080007F434043384400F04BF9414648430EB17A
:10309000584500D9584609990860C4F840010A9873
:1030A000029B03908DE80806DDE904122B462046BA
:1030B000FFF784FE814648460BB0BDE8F08F000064
:1030C000AE878F02666666009A99060000B50B46C9
:1030D0001146FFF7DFFE4FF47A7100F5FA70B0FB8E
:1030E000F1F04B4303EB5001B1FBF0F000BD0000E9
:1030F0002DE9FF4F8BB04FF00009199D8DF800901E
:103100009A460646C8464F468DF804908DF80890BA
:103110008DF80C90ADF81090C1F3C304CDF8149065
:10312000BCB1052C15D0072C13D00C2C11D00D2CB4
:103130000FD00E2C0DD00F2C0BD0002083466A46EA
:1031400000213046FFF70EFD9DF80010C9B110B107
:103150001DE00120F2E705AB06AA30461899FFF7FB
:10316000A1FEA0B91899059807AA48810021304608
:10317000FFF704FD079921B1069A8A4201D94FF061
:10318000010920B902AA02213046FFF7EBFC9DF8A5
:10319000081011B338BB08AA02213046FFF7EEFC35
:1031A00080B90122FF213046FFF7F6FD50B904AA8D
:1031B000B6213046FFF7BAFD20B90022FF21304684
:1031C000FFF7EAFDBDF810104902C6F84811089A49
:1031D0001AB1914201D94FF0010820B903AA032185
:1031E0003046FFF7BFFC9DF80C1091B190B9BAF1D1
:1031F000000F12D00D980102B1FBFAF0824609AA25
:1032000003213046FFF7BAFC099911B18A4500D273
:10321000012720B1287858B32DE00020EEE7BBF15C
:10322000000F01D0FF2013E0012C10D0022C0ED093
:10323000032C0CD0062C0DD0092C0BD0082C04D05C
:103240000A2C02D0B8F1000F06D0032000E00520C0
:10325000287010E00420FBE7042C00D00FB10220FE
:10326000F6E7B9F1000F01D00120F1E70020287046
:1032700018990020488101AA01213046FFF772FC0D
:10328000002825D19DF8001011B15FEA090100D096
:10329000012186F82E10042C15D09DF8041091B150
:1032A0005FF0000186F82F109DF8081011B15FEA59
:1032B000080100D0012186F830109DF80C1001B1F2
:1032C0001FB1012102E00121ECE7002186F8311055
:1032D0000FB0BDE8F08F38B51446CA6822606A4660
:1032E00000F007F8002803D12168009A11442160FA
:1032F00038BDF8B5064600200D46106014466946F4
:103300003046FFF70EFD002809D19DF80010002976
:1033100005D0A98A326A51438031090A2160F8BD7B
:10332000024600204FF0804100E089089142FCD81D
:1033300008E04318934203D8D21A01EB500000E092
:10334000400889080029F4D1704738B502F10A0312
:10335000009393B290F86021D0F85C0142F0010430
:103360000A462146FDF7AEFE38BD38B502F10A0324
:10337000009393B290F860410A46D0F85C01214670
:10338000FDF7C8FF38BD0907090E002804DB00F16E
:10339000E02080F80014704700F00F0000F1E020FA
:1033A00080F8141D7047000008B5FEF789F8FFF794
:1033B00097FAFFF75FF91948416941F0010141614E
:1033C0004069002200F00100009011460B20FEF73A
:1033D000D5F80B20FEF7C4F8124811494FF480428B
:1033E00001601149416000218160C0E9031241611F
:1033F0008161C1610162FDF79FFD08B172B6FEE710
:10340000FFF7B2F9FFF70EF90648012207493038F5
:10341000FDF730FAFDF710F8FCE70000001002405D
:1034200000540040C00C0020801A06000400002058
:1034300090EA010F48BF81F0004100F12482421A56
:103440003CBF801A89184FEAD0524FF07F4C1CEADB
:10345000410FA2EBD15318BF9CEA026F00F03B80F2
:103460004FF0004C4CEA00204CEA012121FA03FC09
:1034700010EB0C0C1ED202F1FF325FEA1C2040EB75
:10348000C25038BF70471CF07F0F4FEA400C18BF86
:10349000BCF17F4F38BF7047C3F12003994008BF8C
:1034A00020F00100BCF17F4F38BF7047A0F1C04051
:1034B00000F0DDB94FEA3C00000A40EBC25028BFE3
:1034C0001CF0FF0F4FEA400CE6D018BFBCF17F4F55
:1034D00038BF7047EAE79CEA026F05D010EA5C0F3C
:1034E00008BF00F00040704710B500F07AF900BF47
:1034F00064FBBE3E4FF47F0C1CEAD0121EBF1CEAD8
:10350000D11392EA0C0F93EA0C0F00F0858090EA39
:10351000010F48BF42F4807240F4000C41F40000F7
:103520002CF07F4120F07F4000B58142A2EB0302E6
:103530000FF2081CACEB504EC0F100009EF800E00A
:103540004FEA4E0E00FB0EFC38BF49004FEA2C1C20
:1035500002F5FA020CFB0EF34FEACE1E4FEA112CD5
:103560004FEAC1210EEB635E42EB22420EFB0CFCE4
:103570004FEA1C5300FB03114FEA112C4FEA0131B3
:103580000EFB0CFC4FEADC4C00FB0C11C14228BFC7
:1035900009184CEB03335DF804EB10EB410143EBEE
:1035A000C250B2F57C0F38BF704729D512F0F00F2A
:1035B0001CBF00F1C04000F00040704700818283D2
:1035C0008485868788898B8C8D8E8F919293959632
:1035D00097999A9C9D9FA0A2A3A5A7A8AAACAEB0BC
:1035E000B2B3B5B7B9BCBEC0C2C5C7C9CCCED1D4C1
:1035F000D7D9DCDFE2E6E9ECF0F3F7FAFE000000F1
:103600004FEA400C0CF1807CBCF17E4F28BF704724
:10361000B0F1C04000F02BB990EA010F0CEAD113D1
:1036200048BF42F48072624538BF634507D213F445
:103630007F0F16D080EA010000F00040704710B5FF
:1036400000F0CFF8097EFC3E00F005B880EA0100EA
:1036500000F00040704780EA010000F0004000F0F8
:1036600006B912F47F0F04BF0248704780EA0100D8
:1036700000F0FDB80000C07FC10DD1F19E0206DB55
:103680004FEA002343F0004323FA02F07047004260
:1036900007D54FEA4001B1F1FE4F02D24FF00000D2
:1036A000704710B500F09DF84992248000207047C3
:1036B0006FEA200070470000B0FA80F310FA03F2BE
:1036C000C3F19D030AD0D90501EB1220530638BF80
:1036D000704700F1010008BF20F0010070470000B2
:1036E0004FF47F0C1CEAD0121EBF1CEAD11392EAE1
:1036F0000C0F93EA0C0F00F0478090EA010F48BFCF
:1037000042F480724FF0004C4CEA00204CEA012158
:1037100002EB0302A0FB0113A2F50002002918BF6F
:1037200043F001035B0028BF4FEA330342EB224220
:103730005FEA132C4CEBC2502EBFBCEB436FB2F5CB
:103740007C0F70474FEA036CBCF1004F08BF20F0BC
:103750000100B2F57C0F38BF70470BD582F0FF0235
:1037600012F5803FC8BF704700F1C040D8BF00F0DD
:103770000040704700F5000C5FEA4C0C48BF7047F2
:10378000B0F1C04000F073B890EA010F0CEAD11319
:1037900048BF42F48072624538BF634504D280EA74
:1037A000010000F00040704710B500F01AF800BFAB
:1037B0008900013E00F007B800F009B85FEA410C4B
:1037C0005FEA1C6C08D080EA010000F050B85FEAA4
:1037D000400C5FEA1C6CF6D14FF00040A0F5800071
:1037E00070470EF1020E2EF0030E5EF8044B2442D9
:1037F00004D44FEA4102B2F17F4F11D84FEA40039F
:10380000B3F17F4F0CD80ED14FEAD07CB2F17F4F8D
:103810000CEB4C0C0CF1020C08BF4CEBD17C04E01F
:103820004FF0080C01E04FEAD17C0CEB4C0324FA7A
:1038300003F404F00704B4F1040C06D20EEB840C7C
:10384000BDE810404CF0010C6047DFE80CF00708C1
:1038500002024FF00040A0F5800010BD0846420073
:1038600018BFD2F1807288BF00F0004010BDFF2168
:1038700041EAD050C005704790EA010F48BF81F07F
:1038800000413FF5DCAD421A04D882F00042A0EBC3
:10389000020011444FEAD0524FF07F4C1CEA410F16
:1038A000A2EBD15318BF9CEA026F4AD04FF0004CF4
:1038B0004CEA00204CEA012121FA03FCB0EB0C0C8D
:1038C0000FD412F0FE0F36D05FEA4C001DD5001267
:1038D00040EBC25038BF70471CF03F0F18BF704715
:1038E0000BE0A2F101025FEA1C2040EBC25038BF9E
:1038F00070471CF07F0F18BF7047C3F12003994039
:1039000014BF401E20F00100704780084FEA1223C8
:1039100008BF7047B0FA80FCA2EB0C02CCF1280C77
:1039200060FA0CF093EA122F04BF00EBC25070470C
:103930004FEAC3707047130A5FEADC1008BF704794
:10394000F6E79CEA026F04D010EA5C0F08BF002083
:10395000704710B5FFF745FF40DFF63E81F00040AD
:103960007047010202030405060708090A0B0C0D43
:103970000E0F101000000000000000000102030400
:10398000060708090000000001020304AC39000822
:10399000000000201800000028010008C4390008B9
:1039A0001800002028140000440100080101010152
:1039B00000000000010000001000000000000000F6
:0439C0000024F400EB
:04000005080000ED02
:00000001FF
